{
  "hash": "00000b59875e80b0afc6c657bc5318d39e03532b7d97fb78a4c7bd55c4840c32",
  "confirmations": 677052,
  "strippedsize": 179,
  "size": 179,
  "weight": 716,
  "height": 4,
  "version": 536870912,
  "versionHex": "20000000",
  "merkleroot": "85b4b5b8b6b9053694a93f643cc8867db2b5ee8d68ddaab3a058b992b14c684c",
  "tx": [
    {
      "txid": "85b4b5b8b6b9053694a93f643cc8867db2b5ee8d68ddaab3a058b992b14c684c",
      "hash": "85b4b5b8b6b9053694a93f643cc8867db2b5ee8d68ddaab3a058b992b14c684c",
      "version": 1,
      "size": 98,
      "vsize": 98,
      "weight": 392,
      "locktime": 0,
      "vin": [
        {
          "coinbase": "540101",
          "sequence": 4294967295
        }
      ],
      "vout": [
        {
          "value": 0.00000000,
          "n": 0,
          "scriptPubKey": {
            "asm": "03f46aecb86ca6f0404f9339e6ff242d82cd36e23612bad62f840986a570ddfd13 OP_CHECKSIG",
            "hex": "2103f46aecb86ca6f0404f9339e6ff242d82cd36e23612bad62f840986a570ddfd13ac",
            "reqSigs": 1,
            "type": "pubkey",
            "addresses": [
              "XcqpUChZhNkVDgQqFF9U4DdewDGUMWwG53"
            ]
          }
        }
      ],
      "hex": "01000000010000000000000000000000000000000000000000000000000000000000000000ffffffff03540101ffffffff010000000000000000232103f46aecb86ca6f0404f9339e6ff242d82cd36e23612bad62f840986a570ddfd13ac00000000"
    }
  ],
  "time": 1520276353,
  "mediantime": 1520276299,
  "nonce": 1776442,
  "bits": "1e0ffff0",
  "difficulty": 0.000244140625,
  "chainwork": "0000000000000000000000000000000000000000000000000000000000500050",
  "previousblockhash": "00000766115b26ecbc09cd3a3db6870fdaf2f049d65a910eb2f2b48b566ca7bd",
  "nextblockhash": "00000267225f7dba55d9a3493740e7f0dde0f28a371d2c3b42e7676b5728d020"
}
