{
  "hash": "00000267225f7dba55d9a3493740e7f0dde0f28a371d2c3b42e7676b5728d020",
  "confirmations": 677051,
  "strippedsize": 179,
  "size": 179,
  "weight": 716,
  "height": 5,
  "version": 536870912,
  "versionHex": "20000000",
  "merkleroot": "41e315108dc2df60caddbc7e8740a5614217f996c96898019e69b3195fd7ee10",
  "tx": [
    {
      "txid": "41e315108dc2df60caddbc7e8740a5614217f996c96898019e69b3195fd7ee10",
      "hash": "41e315108dc2df60caddbc7e8740a5614217f996c96898019e69b3195fd7ee10",
      "version": 1,
      "size": 98,
      "vsize": 98,
      "weight": 392,
      "locktime": 0,
      "vin": [
        {
          "coinbase": "550101",
          "sequence": 4294967295
        }
      ],
      "vout": [
        {
          "value": 0.00000000,
          "n": 0,
          "scriptPubKey": {
            "asm": "03f46aecb86ca6f0404f9339e6ff242d82cd36e23612bad62f840986a570ddfd13 OP_CHECKSIG",
            "hex": "2103f46aecb86ca6f0404f9339e6ff242d82cd36e23612bad62f840986a570ddfd13ac",
            "reqSigs": 1,
            "type": "pubkey",
            "addresses": [
              "XcqpUChZhNkVDgQqFF9U4DdewDGUMWwG53"
            ]
          }
        }
      ],
      "hex": "01000000010000000000000000000000000000000000000000000000000000000000000000ffffffff03550101ffffffff010000000000000000232103f46aecb86ca6f0404f9339e6ff242d82cd36e23612bad62f840986a570ddfd13ac00000000"
    }
  ],
  "time": 1520276359,
  "mediantime": 1520276303,
  "nonce": 213085,
  "bits": "1e0ffff0",
  "difficulty": 0.000244140625,
  "chainwork": "0000000000000000000000000000000000000000000000000000000000600060",
  "previousblockhash": "00000b59875e80b0afc6c657bc5318d39e03532b7d97fb78a4c7bd55c4840c32",
  "nextblockhash": "0000017ee4121cd8ae22f7321041ccb953d53828824217a9dc61a1c857facf85"
}
