{
  "hash": "000004645e2717b556682e3c642a4c6e473bf25c653ff8e8c114a3006040ffb8",
  "confirmations": 677054,
  "strippedsize": 179,
  "size": 179,
  "weight": 716,
  "height": 2,
  "version": 536870912,
  "versionHex": "20000000",
  "merkleroot": "67aa0bd8b9297ca6ee25a1e5c2e3a8dbbcc1e20eab76b6d1bdf9d69f8a5356b8",
  "tx": [
    {
      "txid": "67aa0bd8b9297ca6ee25a1e5c2e3a8dbbcc1e20eab76b6d1bdf9d69f8a5356b8",
      "hash": "67aa0bd8b9297ca6ee25a1e5c2e3a8dbbcc1e20eab76b6d1bdf9d69f8a5356b8",
      "version": 1,
      "size": 98,
      "vsize": 98,
      "weight": 392,
      "locktime": 0,
      "vin": [
        {
          "coinbase": "520101",
          "sequence": 4294967295
        }
      ],
      "vout": [
        {
          "value": 76500000.00000000,
          "n": 0,
          "scriptPubKey": {
            "asm": "03e8c52f2c5155771492907095753a43ce776e1fa7c5e769a67a9f3db4467ec029 OP_CHECKSIG",
            "hex": "2103e8c52f2c5155771492907095753a43ce776e1fa7c5e769a67a9f3db4467ec029ac",
            "reqSigs": 1,
            "type": "pubkey",
            "addresses": [
              "XdJnCKYNwzCz8ATv8Eu75gonaHyfr9qXg9"
            ]
          }
        }
      ],
      "hex": "01000000010000000000000000000000000000000000000000000000000000000000000000ffffffff03520101ffffffff010020886ca22d1b00232103e8c52f2c5155771492907095753a43ce776e1fa7c5e769a67a9f3db4467ec029ac00000000"
    }
  ],
  "time": 1520276299,
  "mediantime": 1520276270,
  "nonce": 1161702,
  "bits": "1e0ffff0",
  "difficulty": 0.000244140625,
  "chainwork": "0000000000000000000000000000000000000000000000000000000000300030",
  "previousblockhash": "000003fb382f6892ae96594b81aa916a8923c70701de4e7054aac556c7271ef7",
  "nextblockhash": "00000766115b26ecbc09cd3a3db6870fdaf2f049d65a910eb2f2b48b566ca7bd"
}
