{
  "hash": "00000c822abdbb23e28f79a49d29b41429737c6c7e15df40d1b1f1b35907ae34",
  "confirmations": 677055,
  "strippedsize": 274,
  "size": 274,
  "weight": 1096,
  "height": 0,
  "version": 1,
  "versionHex": "00000001",
  "merkleroot": "922ab2360f766457416dfc59c6594248c5b79e33c8785bce491c0e01930738f6",
  "tx": [
    {
      "txid": "922ab2360f766457416dfc59c6594248c5b79e33c8785bce491c0e01930738f6",
      "hash": "922ab2360f766457416dfc59c6594248c5b79e33c8785bce491c0e01930738f6",
      "version": 1,
      "size": 193,
      "vsize": 193,
      "weight": 772,
      "locktime": 0,
      "vin": [
        {
          "coinbase": "04ffff001d01044c5957697265642030312f4d61722f3230313820546865205345432069732070726f62696e672063727970746f63757272656e637920636f6d70616e696573207769746820696e697469616c20636f696e206f66666572696e6773",
          "sequence": 4294967295
        }
      ],
      "vout": [
        {
          "value": 50.00000000,
          "n": 0,
          "scriptPubKey": {
            "asm": "03042a235a39a72d7b1296313b0193ba3f93ad1a1fa2d72f1cab4f21d342c9d5b8 OP_CHECKSIG",
            "hex": "2103042a235a39a72d7b1296313b0193ba3f93ad1a1fa2d72f1cab4f21d342c9d5b8ac",
            "reqSigs": 1,
            "type": "pubkey",
            "addresses": [
              "XgsfM87AmT9zuywySeW7CgVEruqJH2ELLo"
            ]
          }
        }
      ],
      "hex": "01000000010000000000000000000000000000000000000000000000000000000000000000ffffffff6204ffff001d01044c5957697265642030312f4d61722f3230313820546865205345432069732070726f62696e672063727970746f63757272656e637920636f6d70616e696573207769746820696e697469616c20636f696e206f66666572696e6773ffffffff0100f2052a01000000232103042a235a39a72d7b1296313b0193ba3f93ad1a1fa2d72f1cab4f21d342c9d5b8ac00000000"
    }
  ],
  "time": 1520274471,
  "mediantime": 1520274471,
  "nonce": 627829,
  "bits": "1e0ffff0",
  "difficulty": 0.000244140625,
  "chainwork": "0000000000000000000000000000000000000000000000000000000000100010",
  "nextblockhash": "000003fb382f6892ae96594b81aa916a8923c70701de4e7054aac556c7271ef7"
}
