{
  "hash": "000003fb382f6892ae96594b81aa916a8923c70701de4e7054aac556c7271ef7",
  "confirmations": 677055,
  "strippedsize": 179,
  "size": 179,
  "weight": 716,
  "height": 1,
  "version": 536870912,
  "versionHex": "20000000",
  "merkleroot": "024aba1d535cfe5dd3ea465d46a828a57b00e1df012d7a2d158e0f7484173f7c",
  "tx": [
    {
      "txid": "024aba1d535cfe5dd3ea465d46a828a57b00e1df012d7a2d158e0f7484173f7c",
      "hash": "024aba1d535cfe5dd3ea465d46a828a57b00e1df012d7a2d158e0f7484173f7c",
      "version": 1,
      "size": 98,
      "vsize": 98,
      "weight": 392,
      "locktime": 0,
      "vin": [
        {
          "coinbase": "510101",
          "sequence": 4294967295
        }
      ],
      "vout": [
        {
          "value": 0.00000000,
          "n": 0,
          "scriptPubKey": {
            "asm": "03e8c52f2c5155771492907095753a43ce776e1fa7c5e769a67a9f3db4467ec029 OP_CHECKSIG",
            "hex": "2103e8c52f2c5155771492907095753a43ce776e1fa7c5e769a67a9f3db4467ec029ac",
            "reqSigs": 1,
            "type": "pubkey",
            "addresses": [
              "XdJnCKYNwzCz8ATv8Eu75gonaHyfr9qXg9"
            ]
          }
        }
      ],
      "hex": "01000000010000000000000000000000000000000000000000000000000000000000000000ffffffff03510101ffffffff010000000000000000232103e8c52f2c5155771492907095753a43ce776e1fa7c5e769a67a9f3db4467ec029ac00000000"
    }
  ],
  "time": 1520276270,
  "mediantime": 1520276270,
  "nonce": 167906,
  "bits": "1e0ffff0",
  "difficulty": 0.000244140625,
  "chainwork": "0000000000000000000000000000000000000000000000000000000000200020",
  "previousblockhash": "00000c822abdbb23e28f79a49d29b41429737c6c7e15df40d1b1f1b35907ae34",
  "nextblockhash": "000004645e2717b556682e3c642a4c6e473bf25c653ff8e8c114a3006040ffb8"
}
