{
  "hash": "00000766115b26ecbc09cd3a3db6870fdaf2f049d65a910eb2f2b48b566ca7bd",
  "confirmations": 677053,
  "strippedsize": 179,
  "size": 179,
  "weight": 716,
  "height": 3,
  "version": 536870912,
  "versionHex": "20000000",
  "merkleroot": "1e591eae200f719344fc5df0c4286e3fb191fb8a645bdf054f9b36a856fce41e",
  "tx": [
    {
      "txid": "1e591eae200f719344fc5df0c4286e3fb191fb8a645bdf054f9b36a856fce41e",
      "hash": "1e591eae200f719344fc5df0c4286e3fb191fb8a645bdf054f9b36a856fce41e",
      "version": 1,
      "size": 98,
      "vsize": 98,
      "weight": 392,
      "locktime": 0,
      "vin": [
        {
          "coinbase": "530101",
          "sequence": 4294967295
        }
      ],
      "vout": [
        {
          "value": 0.00000000,
          "n": 0,
          "scriptPubKey": {
            "asm": "03e8c52f2c5155771492907095753a43ce776e1fa7c5e769a67a9f3db4467ec029 OP_CHECKSIG",
            "hex": "2103e8c52f2c5155771492907095753a43ce776e1fa7c5e769a67a9f3db4467ec029ac",
            "reqSigs": 1,
            "type": "pubkey",
            "addresses": [
              "XdJnCKYNwzCz8ATv8Eu75gonaHyfr9qXg9"
            ]
          }
        }
      ],
      "hex": "01000000010000000000000000000000000000000000000000000000000000000000000000ffffffff03530101ffffffff010000000000000000232103e8c52f2c5155771492907095753a43ce776e1fa7c5e769a67a9f3db4467ec029ac00000000"
    }
  ],
  "time": 1520276303,
  "mediantime": 1520276299,
  "nonce": 139029,
  "bits": "1e0ffff0",
  "difficulty": 0.000244140625,
  "chainwork": "0000000000000000000000000000000000000000000000000000000000400040",
  "previousblockhash": "000004645e2717b556682e3c642a4c6e473bf25c653ff8e8c114a3006040ffb8",
  "nextblockhash": "00000b59875e80b0afc6c657bc5318d39e03532b7d97fb78a4c7bd55c4840c32"
}
