{
  "hash": "0000017ee4121cd8ae22f7321041ccb953d53828824217a9dc61a1c857facf85",
  "confirmations": 677050,
  "strippedsize": 179,
  "size": 179,
  "weight": 716,
  "height": 6,
  "version": 536870912,
  "versionHex": "20000000",
  "merkleroot": "c2c232be75be9dc0d761737173e8c3a22289d7302ac15e7924fab62f743fd6cb",
  "tx": [
    {
      "txid": "c2c232be75be9dc0d761737173e8c3a22289d7302ac15e7924fab62f743fd6cb",
      "hash": "c2c232be75be9dc0d761737173e8c3a22289d7302ac15e7924fab62f743fd6cb",
      "version": 1,
      "size": 98,
      "vsize": 98,
      "weight": 392,
      "locktime": 0,
      "vin": [
        {
          "coinbase": "560101",
          "sequence": 4294967295
        }
      ],
      "vout": [
        {
          "value": 0.00000000,
          "n": 0,
          "scriptPubKey": {
            "asm": "03e8c52f2c5155771492907095753a43ce776e1fa7c5e769a67a9f3db4467ec029 OP_CHECKSIG",
            "hex": "2103e8c52f2c5155771492907095753a43ce776e1fa7c5e769a67a9f3db4467ec029ac",
            "reqSigs": 1,
            "type": "pubkey",
            "addresses": [
              "XdJnCKYNwzCz8ATv8Eu75gonaHyfr9qXg9"
            ]
          }
        }
      ],
      "hex": "01000000010000000000000000000000000000000000000000000000000000000000000000ffffffff03560101ffffffff010000000000000000232103e8c52f2c5155771492907095753a43ce776e1fa7c5e769a67a9f3db4467ec029ac00000000"
    }
  ],
  "time": 1520276361,
  "mediantime": 1520276303,
  "nonce": 3562,
  "bits": "1e0ffff0",
  "difficulty": 0.000244140625,
  "chainwork": "0000000000000000000000000000000000000000000000000000000000700070",
  "previousblockhash": "00000267225f7dba55d9a3493740e7f0dde0f28a371d2c3b42e7676b5728d020",
  "nextblockhash": "000009b8e692cda20b4d3347a95aa9ad1aa9fba3f242e3ba2ff11929a73e3914"
}
