{
  "hash": "0921e87173c79a3639c1c05a119ede932e7757414a9a58fed34b5508d3d30fde",
  "confirmations": 140314,
  "strippedsize": 2055,
  "size": 2320,
  "weight": 8485,
  "height": 1531049,
  "version": 536870912,
  "versionHex": "20000000",
  "merkleroot": "08d57868a9c12e9f31875a2c182247f6382dfadc291045fb1d8957ba87854bdd",
  "tx": [
    {
      "txid": "6a17e3080dff783d1e9d67a18d3801fc0016076effaf9f60854ee569887368db",
      "hash": "a9f682dd8524102079e748eeef8309e8c3e05a009d31cf026255a71998d6a04d",
      "version": 2,
      "size": 149,
      "vsize": 122,
      "weight": 488,
      "locktime": 0,
      "vin": [
        {
          "coinbase": "03a95c170101",
          "sequence": 4294967295
        }
      ],
      "vout": [
        {
          "value": 0,
          "n": 0,
          "scriptPubKey": {
            "asm": "",
            "hex": "",
            "type": "nonstandard"
          }
        },
        {
          "value": 0,
          "n": 1,
          "scriptPubKey": {
            "asm": "OP_RETURN aa21a9edd26fb8283249898b284326eaf5bcdb95c369bc50ed3e038028982acb8fa1349a",
            "hex": "6a24aa21a9edd26fb8283249898b284326eaf5bcdb95c369bc50ed3e038028982acb8fa1349a",
            "type": "nulldata"
          }
        }
      ],
      "hex": "020000000001010000000000000000000000000000000000000000000000000000000000000000ffffffff0603a95c170101ffffffff020000000000000000000000000000000000266a24aa21a9edd26fb8283249898b284326eaf5bcdb95c369bc50ed3e038028982acb8fa1349a0120000000000000000000000000000000000000000000000000000000000000000000000000",
      "blockhash": "0921e87173c79a3639c1c05a119ede932e7757414a9a58fed34b5508d3d30fde",
      "confirmations": 140314,
      "time": 1613017419,
      "blocktime": 1613017419
    },
    {
      "txid": "8fba21b6368b51a616456cbb6a3af30052b5eeee2b4ea008b70d984d85fb1092",
      "hash": "a34898822757239fe3ced621c3959db5954e61cea04685450affe400fa483bd9",
      "version": 2,
      "size": 441,
      "vsize": 358,
      "weight": 1431,
      "locktime": 0,
      "vin": [
        {
          "txid": "ac8fc18d1f77a114ca5b8266662b867430c5d59abf17a7554e6aab2ee542256a",
          "vout": 1,
          "scriptSig": {
            "asm": "00146152418418ad9924ad33b0c1fcce2e18733cb419",
            "hex": "1600146152418418ad9924ad33b0c1fcce2e18733cb419"
          },
          "txinwitness": [
            "30450221008f441fdc5cc68887cad71106f1ece8ddc3b0eb3c9b56dffc0ba0d943f4e0990a02206b10472257a6c457a3c931bdb3ab57ccfb48507c5916d6077504db163324185401",
            "02376715fff755ba868972ef45e776a71316ae279ed5ee13963913d331c211a5d9"
          ],
          "sequence": 4294967295
        },
        {
          "txid": "08bc248ef36158e88867143129a35bc0e7d2d4affa0e4c3b9f4991fec86e6644",
          "vout": 1,
          "scriptSig": {
            "asm": "473044022019010f92af932338fcb6c14a1f1c5330e1083117025cc0979b93b60c49f7b9d6022029a3b55cc77a8d45a0462ae0a6a0928f754cd19c5e7c4c138faba42df14f0b99012103e6cb4fb16876f92809842a4f186301348be8795dda83fea75e063ef8c6dfade2",
            "hex": "4c6a473044022019010f92af932338fcb6c14a1f1c5330e1083117025cc0979b93b60c49f7b9d6022029a3b55cc77a8d45a0462ae0a6a0928f754cd19c5e7c4c138faba42df14f0b99012103e6cb4fb16876f92809842a4f186301348be8795dda83fea75e063ef8c6dfade2"
          },
          "sequence": 4294967295
        }
      ],
      "vout": [
        {
          "value": 0,
          "n": 0,
          "scriptPubKey": {
            "asm": "",
            "hex": "",
            "type": "nonstandard"
          }
        },
        {
          "value": 182513.58176347,
          "n": 1,
          "scriptPubKey": {
            "asm": "OP_HASH160 67bbe94c4206b8d95b0eb770295c7a260779e0b6 OP_EQUAL",
            "hex": "a91467bbe94c4206b8d95b0eb770295c7a260779e0b687",
            "reqSigs": 1,
            "type": "scripthash",
            "addresses": [
              "7bs9TobPv6k9vvZVwYHEVwUQzv2t3MQcWD"
            ]
          }
        },
        {
          "value": 182504.58176347,
          "n": 2,
          "scriptPubKey": {
            "asm": "OP_HASH160 67bbe94c4206b8d95b0eb770295c7a260779e0b6 OP_EQUAL",
            "hex": "a91467bbe94c4206b8d95b0eb770295c7a260779e0b687",
            "reqSigs": 1,
            "type": "scripthash",
            "addresses": [
              "7bs9TobPv6k9vvZVwYHEVwUQzv2t3MQcWD"
            ]
          }
        },
        {
          "value": 9,
          "n": 3,
          "scriptPubKey": {
            "asm": "OP_DUP OP_HASH160 5f5a2afd365be1daf9c4ed836e5650db412ffa94 OP_EQUALVERIFY OP_CHECKSIG",
            "hex": "76a9145f5a2afd365be1daf9c4ed836e5650db412ffa9488ac",
            "reqSigs": 1,
            "type": "pubkeyhash",
            "addresses": [
              "XjP23TKrSpw1yraSeGaenv7ce5dVNiKYSZ"
            ]
          }
        }
      ],
      "hex": "020000000001026a2542e52eab6a4e55a717bf9ad5c53074862b6666825bca14a1771f8dc18fac01000000171600146152418418ad9924ad33b0c1fcce2e18733cb419ffffffff44666ec8fe91499f3b4c0efaafd4d2e7c05ba32931146788e85861f38e24bc08010000006c4c6a473044022019010f92af932338fcb6c14a1f1c5330e1083117025cc0979b93b60c49f7b9d6022029a3b55cc77a8d45a0462ae0a6a0928f754cd19c5e7c4c138faba42df14f0b99012103e6cb4fb16876f92809842a4f186301348be8795dda83fea75e063ef8c6dfade2ffffffff040000000000000000005b84b8799910000017a91467bbe94c4206b8d95b0eb770295c7a260779e0b6875b9b13449910000017a91467bbe94c4206b8d95b0eb770295c7a260779e0b68700e9a435000000001976a9145f5a2afd365be1daf9c4ed836e5650db412ffa9488ac024830450221008f441fdc5cc68887cad71106f1ece8ddc3b0eb3c9b56dffc0ba0d943f4e0990a02206b10472257a6c457a3c931bdb3ab57ccfb48507c5916d6077504db1633241854012102376715fff755ba868972ef45e776a71316ae279ed5ee13963913d331c211a5d90000000000",
      "blockhash": "0921e87173c79a3639c1c05a119ede932e7757414a9a58fed34b5508d3d30fde",
      "confirmations": 138819,
      "time": 1613017419,
      "blocktime": 1613017419
    },
    {
      "txid": "e41a7462667246d3ea5a6538a9ac20e1c305d6452a8a7cd73a8ac86562fb9ad9",
      "hash": "bfaebe6e5dd708eeb0d9e183849d180bbb79cc0128716b54d456c32497b74e0d",
      "version": 2,
      "size": 1551,
      "vsize": 1463,
      "weight": 5850,
      "locktime": 1531048,
      "vin": [
        {
          "txid": "1b2f08baa64334a19715b111bd0bfe12fcba4902bf2f1df57e312bda2666f2b6",
          "vout": 1,
          "scriptSig": {
            "asm": "3044022048a1b154db67dfc9a1c71b154e842dbeb3ab775a030ff41150e3018d0c06aea6022043ee6895b8a0599b33b46c13af5671af78f5c0b5c387f3813af7ec5c04995065[ALL] 0201f7a00d5910089f9bd2cb09451f621ad9e9a57c971aa328b458fb5f8a6d607e",
            "hex": "473044022048a1b154db67dfc9a1c71b154e842dbeb3ab775a030ff41150e3018d0c06aea6022043ee6895b8a0599b33b46c13af5671af78f5c0b5c387f3813af7ec5c0499506501210201f7a00d5910089f9bd2cb09451f621ad9e9a57c971aa328b458fb5f8a6d607e"
          },
          "sequence": 4294967293
        },
        {
          "txid": "3baae94cae056d157590f485f5f8e2968cd6d7d40dbc3641daa11c7520c1e882",
          "vout": 1,
          "scriptSig": {
            "asm": "3044022038d18b9eabf10c424f29cea47af228399a153d14102cdac1df1a7a769675d02c022004d07b8919f5e0ce061589dc884cc9492a1cc419fe39ec4131af188e5ec34ab6[ALL] 0201f7a00d5910089f9bd2cb09451f621ad9e9a57c971aa328b458fb5f8a6d607e",
            "hex": "473044022038d18b9eabf10c424f29cea47af228399a153d14102cdac1df1a7a769675d02c022004d07b8919f5e0ce061589dc884cc9492a1cc419fe39ec4131af188e5ec34ab601210201f7a00d5910089f9bd2cb09451f621ad9e9a57c971aa328b458fb5f8a6d607e"
          },
          "sequence": 4294967293
        },
        {
          "txid": "ae2c6a89748500d5fa371b59043c0286ae3bbf4f75ce02c08fd4feebfb9271cf",
          "vout": 1,
          "scriptSig": {
            "asm": "0014a93d2aacddede7ee38ddab86cfa1eec69b560ebb",
            "hex": "160014a93d2aacddede7ee38ddab86cfa1eec69b560ebb"
          },
          "txinwitness": [
            "304402202100eab1aa13ba794faea3bcab03f20fa8cfd683d810e302c0b507aebca26690022068b446ebeeee9f2d02fe6fc572f4b79fe55f58bf89acdc04d03f55f0d539a3db01",
            "02972ac2b21371714533ff64704321aee7e27b27cd2505f93a1a72453aa0bab142"
          ],
          "sequence": 4294967293
        },
        {
          "txid": "bbecdda698fd498a14852bd228b3ebc69ab3ae9c663936a4b4756da918f42819",
          "vout": 2,
          "scriptSig": {
            "asm": "3045022100da98d4904ed3138e584f1029980871bf73dbdc4badba749642a1f75a0fdbb88e022041f119a9cbb3bb04cbe4ff05f34656bba60b00ff0d81c992930f5ea1fae620b8[ALL] 025eee567030cf11dadc38231519a42899ec23bf42072cd8f86a0c69671e8b1931",
            "hex": "483045022100da98d4904ed3138e584f1029980871bf73dbdc4badba749642a1f75a0fdbb88e022041f119a9cbb3bb04cbe4ff05f34656bba60b00ff0d81c992930f5ea1fae620b80121025eee567030cf11dadc38231519a42899ec23bf42072cd8f86a0c69671e8b1931"
          },
          "sequence": 4294967293
        },
        {
          "txid": "e40fbd25012c1ff439b407b0672536a297027c49989984494c743860671efb9d",
          "vout": 1,
          "scriptSig": {
            "asm": "3045022100bc37e231a0d203aee91694da88d3a63fbf4466210244b7dfc94fbad8ac5c244f022046ef5a0f7368e00646e570209047ef9764119b9580345bfc90d8a89013d8e456[ALL] 0201f7a00d5910089f9bd2cb09451f621ad9e9a57c971aa328b458fb5f8a6d607e",
            "hex": "483045022100bc37e231a0d203aee91694da88d3a63fbf4466210244b7dfc94fbad8ac5c244f022046ef5a0f7368e00646e570209047ef9764119b9580345bfc90d8a89013d8e45601210201f7a00d5910089f9bd2cb09451f621ad9e9a57c971aa328b458fb5f8a6d607e"
          },
          "sequence": 4294967293
        },
        {
          "txid": "5aeda35a567db56d6cc245eaf51aab906a13a7cabf95b6727037104f30ee8947",
          "vout": 0,
          "scriptSig": {
            "asm": "3044022039108a60c626ed824c59a60ec9515266a681d5a434121706eb48e2a9880c498d02206fa135309bbd954a81a6a7b79de2d82510fb42b0923c157f16c169ab32fc4c98[ALL] 03fce0764375e7f5655d4adddb4e53d0e82d77c81a1fe3970d42c4713b7bc8b5f6",
            "hex": "473044022039108a60c626ed824c59a60ec9515266a681d5a434121706eb48e2a9880c498d02206fa135309bbd954a81a6a7b79de2d82510fb42b0923c157f16c169ab32fc4c98012103fce0764375e7f5655d4adddb4e53d0e82d77c81a1fe3970d42c4713b7bc8b5f6"
          },
          "sequence": 4294967293
        },
        {
          "txid": "ebded51e6a4a039be966531f85eb25230ec39eafbba1939f5795fd2fa4c01b10",
          "vout": 0,
          "scriptSig": {
            "asm": "3045022100ee0615524092e6dbb32b3a80da40dbc93d4801b47dae125f5edc9d3cad4855e302207f9432ece60ef83cda12f4bff21b922cad534236a4291b14d35861b03da15360[ALL] 029853691e91324e3d1ab9c48d330279c0e48d406d271eda1be31611fc7699115e",
            "hex": "483045022100ee0615524092e6dbb32b3a80da40dbc93d4801b47dae125f5edc9d3cad4855e302207f9432ece60ef83cda12f4bff21b922cad534236a4291b14d35861b03da153600121029853691e91324e3d1ab9c48d330279c0e48d406d271eda1be31611fc7699115e"
          },
          "sequence": 4294967293
        },
        {
          "txid": "68771da6a91e772741c715433efc71dc1f1a52d018d91ca941efc99607c2ab7a",
          "vout": 1,
          "scriptSig": {
            "asm": "304402200e0303f87a43ebaac6c77e31cd85da2d0a2990151c18aa87f12e3fe68bfca6100220394796cac23beb6056a3d5af8c389dbc00a8c9d3ed98f39d5388e86d3de06522[ALL] 0201f7a00d5910089f9bd2cb09451f621ad9e9a57c971aa328b458fb5f8a6d607e",
            "hex": "47304402200e0303f87a43ebaac6c77e31cd85da2d0a2990151c18aa87f12e3fe68bfca6100220394796cac23beb6056a3d5af8c389dbc00a8c9d3ed98f39d5388e86d3de0652201210201f7a00d5910089f9bd2cb09451f621ad9e9a57c971aa328b458fb5f8a6d607e"
          },
          "sequence": 4294967293
        },
        {
          "txid": "e524586479d8490ac6e337fc375458f8616d12a2d9c5d39c92b3a6d6662ba93a",
          "vout": 0,
          "scriptSig": {
            "asm": "304402203828a6abe0ad3fee42b2b057957563bfad173dff33caf01841008914f1b1a64c0220026e8ac3f59eebb48d864eff56beb0e9058906f02781bd0d736a712da5a1f7c6[ALL] 0201f7a00d5910089f9bd2cb09451f621ad9e9a57c971aa328b458fb5f8a6d607e",
            "hex": "47304402203828a6abe0ad3fee42b2b057957563bfad173dff33caf01841008914f1b1a64c0220026e8ac3f59eebb48d864eff56beb0e9058906f02781bd0d736a712da5a1f7c601210201f7a00d5910089f9bd2cb09451f621ad9e9a57c971aa328b458fb5f8a6d607e"
          },
          "sequence": 4294967293
        },
        {
          "txid": "5a84a865fefd2457dbd13d0748aa746fd56d2d81cb76e0c047f93ba96fb2da9e",
          "vout": 0,
          "scriptSig": {
            "asm": "3045022100ee6ec3354e946b7de4e610ba5d22bd8eca27c91bb405726de3793725df8d41ce02202315574eeefc195b14befd6ceaf39438ca0f1a02d6f5d6bb03e28a9ec734f9c0[ALL] 03e556b59375a83fd24344a0c3f30711301fb5490a4b2b515ad51339cae9579c68",
            "hex": "483045022100ee6ec3354e946b7de4e610ba5d22bd8eca27c91bb405726de3793725df8d41ce02202315574eeefc195b14befd6ceaf39438ca0f1a02d6f5d6bb03e28a9ec734f9c0012103e556b59375a83fd24344a0c3f30711301fb5490a4b2b515ad51339cae9579c68"
          },
          "sequence": 4294967293
        }
      ],
      "vout": [
        {
          "value": 9999.99998532,
          "n": 0,
          "scriptPubKey": {
            "asm": "OP_HASH160 f4a41b5f4e2a9f727b4ec297a1fe36fc40cbc780 OP_EQUAL",
            "hex": "a914f4a41b5f4e2a9f727b4ec297a1fe36fc40cbc78087",
            "reqSigs": 1,
            "type": "scripthash",
            "addresses": [
              "7piCDtnoruroUM43WFTvzACUdiUnzDiEhd"
            ]
          }
        }
      ],
      "hex": "0200000000010ab6f26626da2b317ef51d2fbf0249bafc12fe0bbd11b11597a13443a6ba082f1b010000006a473044022048a1b154db67dfc9a1c71b154e842dbeb3ab775a030ff41150e3018d0c06aea6022043ee6895b8a0599b33b46c13af5671af78f5c0b5c387f3813af7ec5c0499506501210201f7a00d5910089f9bd2cb09451f621ad9e9a57c971aa328b458fb5f8a6d607efdffffff82e8c120751ca1da4136bc0dd4d7d68c96e2f8f585f49075156d05ae4ce9aa3b010000006a473044022038d18b9eabf10c424f29cea47af228399a153d14102cdac1df1a7a769675d02c022004d07b8919f5e0ce061589dc884cc9492a1cc419fe39ec4131af188e5ec34ab601210201f7a00d5910089f9bd2cb09451f621ad9e9a57c971aa328b458fb5f8a6d607efdffffffcf7192fbebfed48fc002ce754fbf3bae86023c04591b37fad5008574896a2cae0100000017160014a93d2aacddede7ee38ddab86cfa1eec69b560ebbfdffffff1928f418a96d75b4a43639669caeb39ac6ebb328d22b85148a49fd98a6ddecbb020000006b483045022100da98d4904ed3138e584f1029980871bf73dbdc4badba749642a1f75a0fdbb88e022041f119a9cbb3bb04cbe4ff05f34656bba60b00ff0d81c992930f5ea1fae620b80121025eee567030cf11dadc38231519a42899ec23bf42072cd8f86a0c69671e8b1931fdffffff9dfb1e676038744c49849998497c0297a2362567b007b439f41f2c0125bd0fe4010000006b483045022100bc37e231a0d203aee91694da88d3a63fbf4466210244b7dfc94fbad8ac5c244f022046ef5a0f7368e00646e570209047ef9764119b9580345bfc90d8a89013d8e45601210201f7a00d5910089f9bd2cb09451f621ad9e9a57c971aa328b458fb5f8a6d607efdffffff4789ee304f10377072b695bfcaa7136a90ab1af5ea45c26c6db57d565aa3ed5a000000006a473044022039108a60c626ed824c59a60ec9515266a681d5a434121706eb48e2a9880c498d02206fa135309bbd954a81a6a7b79de2d82510fb42b0923c157f16c169ab32fc4c98012103fce0764375e7f5655d4adddb4e53d0e82d77c81a1fe3970d42c4713b7bc8b5f6fdffffff101bc0a42ffd95579f93a1bbaf9ec30e2325eb851f5366e99b034a6a1ed5deeb000000006b483045022100ee0615524092e6dbb32b3a80da40dbc93d4801b47dae125f5edc9d3cad4855e302207f9432ece60ef83cda12f4bff21b922cad534236a4291b14d35861b03da153600121029853691e91324e3d1ab9c48d330279c0e48d406d271eda1be31611fc7699115efdffffff7aabc20796c9ef41a91cd918d0521a1fdc71fc3e4315c74127771ea9a61d7768010000006a47304402200e0303f87a43ebaac6c77e31cd85da2d0a2990151c18aa87f12e3fe68bfca6100220394796cac23beb6056a3d5af8c389dbc00a8c9d3ed98f39d5388e86d3de0652201210201f7a00d5910089f9bd2cb09451f621ad9e9a57c971aa328b458fb5f8a6d607efdffffff3aa92b66d6a6b3929cd3c5d9a2126d61f8585437fc37e3c60a49d879645824e5000000006a47304402203828a6abe0ad3fee42b2b057957563bfad173dff33caf01841008914f1b1a64c0220026e8ac3f59eebb48d864eff56beb0e9058906f02781bd0d736a712da5a1f7c601210201f7a00d5910089f9bd2cb09451f621ad9e9a57c971aa328b458fb5f8a6d607efdffffff9edab26fa93bf947c0e076cb812d6dd56f74aa48073dd1db5724fdfe65a8845a000000006b483045022100ee6ec3354e946b7de4e610ba5d22bd8eca27c91bb405726de3793725df8d41ce02202315574eeefc195b14befd6ceaf39438ca0f1a02d6f5d6bb03e28a9ec734f9c0012103e556b59375a83fd24344a0c3f30711301fb5490a4b2b515ad51339cae9579c68fdffffff01440aa5d4e800000017a914f4a41b5f4e2a9f727b4ec297a1fe36fc40cbc7808700000247304402202100eab1aa13ba794faea3bcab03f20fa8cfd683d810e302c0b507aebca26690022068b446ebeeee9f2d02fe6fc572f4b79fe55f58bf89acdc04d03f55f0d539a3db012102972ac2b21371714533ff64704321aee7e27b27cd2505f93a1a72453aa0bab14200000000000000a85c1700",
      "blockhash": "0921e87173c79a3639c1c05a119ede932e7757414a9a58fed34b5508d3d30fde",
      "confirmations": 140315,
      "time": 1613017419,
      "blocktime": 1613017419
    }
  ],
  "time": 1613017419,
  "mediantime": 1613017001,
  "nonce": 0,
  "bits": "1c01053b",
  "difficulty": 250.8704299065421,
  "chainwork": "0000000000000000000000000000000000000000000000000ff6b9dce1e24941",
  "previousblockhash": "34ec9fa933a9114114073e6bf1edc74ad74a5cdf07d4f687d2ba8e39839bf841",
  "nextblockhash": "7dfcd5c1a49a6242e6f3b8d50ceccebf78785ac51d5c36732b221954a689cd0d"
}