{
  "hash": "1277dd29797e7687d0390de275123690d403796022b22873caa8ff3c0e280159",
  "confirmations": 7509,
  "strippedsize": 622,
  "size": 769,
  "weight": 2635,
  "height": 1663808,
  "version": 536870912,
  "versionHex": "20000000",
  "merkleroot": "362cf734297392db83bcd99db0ce2c9e584224a89818b60645e902925383d19f",
  "tx": [
    {
      "txid": "ad0c21f3c7246cc5941756b9b531294438e6e82fcdc4a2995145e360f36aa7a9",
      "hash": "779059c81b268a3735a1c7cecfdc92a6293a732bf2fd82fedf803ce14b56ab49",
      "version": 2,
      "size": 149,
      "vsize": 122,
      "weight": 488,
      "locktime": 0,
      "vin": [
        {
          "coinbase": "034063190101",
          "sequence": 4294967295
        }
      ],
      "vout": [
        {
          "value": 0,
          "n": 0,
          "scriptPubKey": {
            "asm": "",
            "hex": "",
            "type": "nonstandard"
          }
        },
        {
          "value": 0,
          "n": 1,
          "scriptPubKey": {
            "asm": "OP_RETURN aa21a9ed0767296af05cf231fab8422c67478073740b391a97ea7d7e41b348d74d82b5b4",
            "hex": "6a24aa21a9ed0767296af05cf231fab8422c67478073740b391a97ea7d7e41b348d74d82b5b4",
            "type": "nulldata"
          }
        }
      ],
      "hex": "020000000001010000000000000000000000000000000000000000000000000000000000000000ffffffff06034063190101ffffffff020000000000000000000000000000000000266a24aa21a9ed0767296af05cf231fab8422c67478073740b391a97ea7d7e41b348d74d82b5b40120000000000000000000000000000000000000000000000000000000000000000000000000",
      "blockhash": "1277dd29797e7687d0390de275123690d403796022b22873caa8ff3c0e280159",
      "confirmations": 7512,
      "time": 1620914804,
      "blocktime": 1620914804
    },
    {
      "txid": "f167024687c06da88d79edc2c0ec9f8461e508a575fbb9473e2b65edede40450",
      "hash": "9d3f682ab6f191bdca009286ebb3fa7a4a8a9383bd48b932d68aa55cdf27bda1",
      "version": 2,
      "size": 441,
      "vsize": 358,
      "weight": 1431,
      "locktime": 0,
      "vin": [
        {
          "txid": "8fba21b6368b51a616456cbb6a3af30052b5eeee2b4ea008b70d984d85fb1092",
          "vout": 1,
          "scriptSig": {
            "asm": "00146152418418ad9924ad33b0c1fcce2e18733cb419",
            "hex": "1600146152418418ad9924ad33b0c1fcce2e18733cb419"
          },
          "txinwitness": [
            "3045022100cc5b3be22085c9f5a1d190dde99cee90b058f64d4867b78ed6e7f9c64b4f4bb1022004a3d2d88c2a30e1291bcf1d3fa2cb3373f9d4c08049778bc1ca7e87f9d371f901",
            "02376715fff755ba868972ef45e776a71316ae279ed5ee13963913d331c211a5d9"
          ],
          "sequence": 4294967295
        },
        {
          "txid": "2113eba36effc9e2cb60807ac1d999c078105a76d94cff7b37002cfac8a0da6b",
          "vout": 1,
          "scriptSig": {
            "asm": "473044022019010f92af932338fcb6c14a1f1c5330e1083117025cc0979b93b60c49f7b9d6022029a3b55cc77a8d45a0462ae0a6a0928f754cd19c5e7c4c138faba42df14f0b99012103e6cb4fb16876f92809842a4f186301348be8795dda83fea75e063ef8c6dfade2",
            "hex": "4c6a473044022019010f92af932338fcb6c14a1f1c5330e1083117025cc0979b93b60c49f7b9d6022029a3b55cc77a8d45a0462ae0a6a0928f754cd19c5e7c4c138faba42df14f0b99012103e6cb4fb16876f92809842a4f186301348be8795dda83fea75e063ef8c6dfade2"
          },
          "sequence": 4294967295
        }
      ],
      "vout": [
        {
          "value": 0,
          "n": 0,
          "scriptPubKey": {
            "asm": "",
            "hex": "",
            "type": "nonstandard"
          }
        },
        {
          "value": 191265.74088173,
          "n": 1,
          "scriptPubKey": {
            "asm": "OP_HASH160 67bbe94c4206b8d95b0eb770295c7a260779e0b6 OP_EQUAL",
            "hex": "a91467bbe94c4206b8d95b0eb770295c7a260779e0b687",
            "reqSigs": 1,
            "type": "scripthash",
            "addresses": [
              "7bs9TobPv6k9vvZVwYHEVwUQzv2t3MQcWD"
            ]
          }
        },
        {
          "value": 191256.74088173,
          "n": 2,
          "scriptPubKey": {
            "asm": "OP_HASH160 67bbe94c4206b8d95b0eb770295c7a260779e0b6 OP_EQUAL",
            "hex": "a91467bbe94c4206b8d95b0eb770295c7a260779e0b687",
            "reqSigs": 1,
            "type": "scripthash",
            "addresses": [
              "7bs9TobPv6k9vvZVwYHEVwUQzv2t3MQcWD"
            ]
          }
        },
        {
          "value": 9,
          "n": 3,
          "scriptPubKey": {
            "asm": "OP_DUP OP_HASH160 ce2cff42f28f50c14dc63cd2e4b65440cd2c3af6 OP_EQUALVERIFY OP_CHECKSIG",
            "hex": "76a914ce2cff42f28f50c14dc63cd2e4b65440cd2c3af688ac",
            "reqSigs": 1,
            "type": "pubkeyhash",
            "addresses": [
              "XuUzwDzqwYynjGfmMYY9ba3nzt6xTPjsE6"
            ]
          }
        }
      ],
      "hex": "020000000001029210fb854d980db708a04e2beeeeb55200f33a6abb6c4516a6518b36b621ba8f01000000171600146152418418ad9924ad33b0c1fcce2e18733cb419ffffffff6bdaa0c8fa2c00377bff4cd9765a1078c099d9c17a8060cbe2c9ff6ea3eb1321010000006c4c6a473044022019010f92af932338fcb6c14a1f1c5330e1083117025cc0979b93b60c49f7b9d6022029a3b55cc77a8d45a0462ae0a6a0928f754cd19c5e7c4c138faba42df14f0b99012103e6cb4fb16876f92809842a4f186301348be8795dda83fea75e063ef8c6dfade2ffffffff04000000000000000000ed7fa7406511000017a91467bbe94c4206b8d95b0eb770295c7a260779e0b687ed96020b6511000017a91467bbe94c4206b8d95b0eb770295c7a260779e0b68700e9a435000000001976a914ce2cff42f28f50c14dc63cd2e4b65440cd2c3af688ac02483045022100cc5b3be22085c9f5a1d190dde99cee90b058f64d4867b78ed6e7f9c64b4f4bb1022004a3d2d88c2a30e1291bcf1d3fa2cb3373f9d4c08049778bc1ca7e87f9d371f9012102376715fff755ba868972ef45e776a71316ae279ed5ee13963913d331c211a5d90000000000",
      "blockhash": "1277dd29797e7687d0390de275123690d403796022b22873caa8ff3c0e280159",
      "confirmations": 7515,
      "time": 1620914804,
      "blocktime": 1620914804
    }
  ],
  "time": 1620914804,
  "mediantime": 1620914407,
  "nonce": 0,
  "bits": "1c010f69",
  "difficulty": 241.4611188670284,
  "chainwork": "00000000000000000000000000000000000000000000000011ffa43892f000cf",
  "previousblockhash": "450ecdb3ab3353e65877ca2a58e0c2dc1cdc753403b510a2801fd06445d62226",
  "nextblockhash": "c0cf50e3ba78f7fc3e46ff736982abbc74688da1ec30fbc762c06fe1bef50721"
}