{
  "hash": "1ca318b7a26ed67ca7c8c9b5069d653ba224bf86989125d1dfbb0973b7d6a5e0",
  "confirmations": 652632,
  "strippedsize": 512,
  "size": 512,
  "weight": 2048,
  "height": 23000,
  "version": 536870912,
  "versionHex": "20000000",
  "merkleroot": "bbf712d809a897a32fef65f82d62e6e9052e28fd314c66fa3d62edddb25f0e18",
  "tx": [
    {
      "txid": "d868e31f5161d049b8afdabedeefe8ccf8caef15d1f80ef34405e97110feebc6",
      "hash": "d868e31f5161d049b8afdabedeefe8ccf8caef15d1f80ef34405e97110feebc6",
      "version": 1,
      "size": 65,
      "vsize": 65,
      "weight": 260,
      "locktime": 0,
      "vin": [
        {
          "coinbase": "02d8590101",
          "sequence": 4294967295
        }
      ],
      "vout": [
        {
          "value": 0.00000000,
          "n": 0,
          "scriptPubKey": {
            "asm": "",
            "hex": "",
            "type": "nonstandard"
          }
        }
      ],
      "hex": "01000000010000000000000000000000000000000000000000000000000000000000000000ffffffff0502d8590101ffffffff0100000000000000000000000000"
    },
    {
      "txid": "9165692aa53f0db6be61521daf8bece68e005396880376260872352db0c005c1",
      "hash": "9165692aa53f0db6be61521daf8bece68e005396880376260872352db0c005c1",
      "version": 1,
      "size": 268,
      "vsize": 268,
      "weight": 1072,
      "locktime": 0,
      "vin": [
        {
          "txid": "0c0f595a004eab5cf62ea70570f175701d120a0da31c8222d2d99fc60bf96577",
          "vout": 1,
          "scriptSig": {
            "asm": "304402200a44383e48fe2df47423dad95b7dd8f17dd9facfb70c2d279a83418e5e0439eb02202c1863f54c752dcfcf7b1c74384f97a21bfc1e97fc66257a2c7d9d5c2851a260[ALL] 031810683b84cd1306250970702942d435a1a64ca75304830b55c73dea5340c20d",
            "hex": "47304402200a44383e48fe2df47423dad95b7dd8f17dd9facfb70c2d279a83418e5e0439eb02202c1863f54c752dcfcf7b1c74384f97a21bfc1e97fc66257a2c7d9d5c2851a2600121031810683b84cd1306250970702942d435a1a64ca75304830b55c73dea5340c20d"
          },
          "sequence": 4294967295
        }
      ],
      "vout": [
        {
          "value": 0.00000000,
          "n": 0,
          "scriptPubKey": {
            "asm": "",
            "hex": "",
            "type": "nonstandard"
          }
        },
        {
          "value": 7849.84570312,
          "n": 1,
          "scriptPubKey": {
            "asm": "OP_DUP OP_HASH160 5356fa18a159ac621882928d307a54474a53b0f3 OP_EQUALVERIFY OP_CHECKSIG",
            "hex": "76a9145356fa18a159ac621882928d307a54474a53b0f388ac",
            "reqSigs": 1,
            "type": "pubkeyhash",
            "addresses": [
              "XiHW7SR56UPHeXKwcpeVsE4nUfkHv5RqE3"
            ]
          }
        },
        {
          "value": 7827.34570312,
          "n": 2,
          "scriptPubKey": {
            "asm": "OP_DUP OP_HASH160 5356fa18a159ac621882928d307a54474a53b0f3 OP_EQUALVERIFY OP_CHECKSIG",
            "hex": "76a9145356fa18a159ac621882928d307a54474a53b0f388ac",
            "reqSigs": 1,
            "type": "pubkeyhash",
            "addresses": [
              "XiHW7SR56UPHeXKwcpeVsE4nUfkHv5RqE3"
            ]
          }
        },
        {
          "value": 22.50000000,
          "n": 3,
          "scriptPubKey": {
            "asm": "OP_DUP OP_HASH160 6055945235585a7cf8f8c1d9e513f531d61ab555 OP_EQUALVERIFY OP_CHECKSIG",
            "hex": "76a9146055945235585a7cf8f8c1d9e513f531d61ab55588ac",
            "reqSigs": 1,
            "type": "pubkeyhash",
            "addresses": [
              "XjUDDq221NwqRtp85wfvoDrMaaxvUCDRrY"
            ]
          }
        }
      ],
      "hex": "01000000017765f90bc69fd9d222821ca30d0a121d7075f17005a72ef65cab4e005a590f0c010000006a47304402200a44383e48fe2df47423dad95b7dd8f17dd9facfb70c2d279a83418e5e0439eb02202c1863f54c752dcfcf7b1c74384f97a21bfc1e97fc66257a2c7d9d5c2851a2600121031810683b84cd1306250970702942d435a1a64ca75304830b55c73dea5340c20dffffffff04000000000000000000c8f9b9c4b60000001976a9145356fa18a159ac621882928d307a54474a53b0f388ac48b39d3eb60000001976a9145356fa18a159ac621882928d307a54474a53b0f388ac80461c86000000001976a9146055945235585a7cf8f8c1d9e513f531d61ab55588ac00000000"
    }
  ],
  "time": 1521784448,
  "mediantime": 1521784176,
  "nonce": 0,
  "bits": "1c093c4d",
  "difficulty": 27.71855447484639,
  "chainwork": "0000000000000000000000000000000000000000000000000003e06502dbec26",
  "previousblockhash": "c7b95170a8221a782710adf6cb7b3ec43dbb2d90fbafd10d324a43aa720e1ac2",
  "nextblockhash": "3eeb24d4968128b934631b1560a4ae6127b97d74fbfa9f6cfca292024c34c036"
}