{
  "hash": "4144179ee535329b010adbe0d1afedfadcbd39d748617b163a42b528ce31430d",
  "confirmations": 1,
  "strippedsize": 488,
  "size": 524,
  "weight": 1988,
  "height": 1671552,
  "version": 536870912,
  "versionHex": "20000000",
  "merkleroot": "efc91c6a37cd509271fc3893e902ded61a9e25cb70f21eecc34043f4dc2b87d9",
  "tx": [
    {
      "txid": "ded6c6b9602ea312919ca720570946a3d080b91390d726e8242824311c5be3b9",
      "hash": "402b183b40085fbea3666cc5a706ea78b69def95959c7c0dfb2463e3a975f9f9",
      "version": 2,
      "size": 149,
      "vsize": 122,
      "weight": 488,
      "locktime": 0,
      "vin": [
        {
          "coinbase": "038081190101",
          "sequence": 4294967295
        }
      ],
      "vout": [
        {
          "value": 0,
          "n": 0,
          "scriptPubKey": {
            "asm": "",
            "hex": "",
            "type": "nonstandard"
          }
        },
        {
          "value": 0,
          "n": 1,
          "scriptPubKey": {
            "asm": "OP_RETURN aa21a9ed2d2d5d0e7ef8d0befd9331fc34d627afe54c4af77274aaf730d8f4cdb68e4c56",
            "hex": "6a24aa21a9ed2d2d5d0e7ef8d0befd9331fc34d627afe54c4af77274aaf730d8f4cdb68e4c56",
            "type": "nulldata"
          }
        }
      ],
      "hex": "020000000001010000000000000000000000000000000000000000000000000000000000000000ffffffff06038081190101ffffffff020000000000000000000000000000000000266a24aa21a9ed2d2d5d0e7ef8d0befd9331fc34d627afe54c4af77274aaf730d8f4cdb68e4c560120000000000000000000000000000000000000000000000000000000000000000000000000",
      "blockhash": "4144179ee535329b010adbe0d1afedfadcbd39d748617b163a42b528ce31430d",
      "confirmations": 2,
      "time": 1621375480,
      "blocktime": 1621375480
    },
    {
      "txid": "fe14eff7ebef01006ef5ae00fad15d1d284e9f62eeab258b22b1f5b5f598ad75",
      "hash": "fe14eff7ebef01006ef5ae00fad15d1d284e9f62eeab258b22b1f5b5f598ad75",
      "version": 2,
      "size": 196,
      "vsize": 196,
      "weight": 784,
      "locktime": 0,
      "vin": [
        {
          "txid": "9195bdc773984d1b5b56ab91546726057ad3dcdf8d11821471dbfea8dfba66cf",
          "vout": 1,
          "scriptSig": {
            "asm": "",
            "hex": ""
          },
          "sequence": 4294967295
        }
      ],
      "vout": [
        {
          "value": 0,
          "n": 0,
          "scriptPubKey": {
            "asm": "",
            "hex": "",
            "type": "nonstandard"
          }
        },
        {
          "value": 2653.22907932,
          "n": 1,
          "scriptPubKey": {
            "asm": "OP_DUP OP_HASH160 6a0381cdbc49e556ff108110e0d9fda5109030c9 OP_EQUALVERIFY OP_CHECKSIG",
            "hex": "76a9146a0381cdbc49e556ff108110e0d9fda5109030c988ac",
            "reqSigs": 1,
            "type": "pubkeyhash",
            "addresses": [
              "XkMPfG7CdAa4i9zjoxzLsJdtT63f1o1UyK"
            ]
          }
        },
        {
          "value": 2644.31907932,
          "n": 2,
          "scriptPubKey": {
            "asm": "OP_DUP OP_HASH160 6a0381cdbc49e556ff108110e0d9fda5109030c9 OP_EQUALVERIFY OP_CHECKSIG",
            "hex": "76a9146a0381cdbc49e556ff108110e0d9fda5109030c988ac",
            "reqSigs": 1,
            "type": "pubkeyhash",
            "addresses": [
              "XkMPfG7CdAa4i9zjoxzLsJdtT63f1o1UyK"
            ]
          }
        },
        {
          "value": 0.09,
          "n": 3,
          "scriptPubKey": {
            "asm": "OP_DUP OP_HASH160 489c5a720449eb9e7a0d1d11b122b5fd12761e31 OP_EQUALVERIFY OP_CHECKSIG",
            "hex": "76a914489c5a720449eb9e7a0d1d11b122b5fd12761e3188ac",
            "reqSigs": 1,
            "type": "pubkeyhash",
            "addresses": [
              "XhJmngaMHdbJfHA5fXdSLqgi5V5yUnsuQL"
            ]
          }
        },
        {
          "value": 9,
          "n": 4,
          "scriptPubKey": {
            "asm": "OP_DUP OP_HASH160 489913b1cbb6bfb28bbd029a5a15ed0bb1be910f OP_EQUALVERIFY OP_CHECKSIG",
            "hex": "76a914489913b1cbb6bfb28bbd029a5a15ed0bb1be910f88ac",
            "reqSigs": 1,
            "type": "pubkeyhash",
            "addresses": [
              "XhJhs36UX8f3ChxFuCsUrr4aSE95BSNkrx"
            ]
          }
        }
      ],
      "hex": "0200000001cf66badfa8fedb711482118ddfdcd37a0526675491ab565b1b4d9873c7bd95910100000000ffffffff050000000000000000001c497ac63d0000001976a9146a0381cdbc49e556ff108110e0d9fda5109030c988ac5cb45e913d0000001976a9146a0381cdbc49e556ff108110e0d9fda5109030c988ac40548900000000001976a914489c5a720449eb9e7a0d1d11b122b5fd12761e3188ac00e9a435000000001976a914489913b1cbb6bfb28bbd029a5a15ed0bb1be910f88ac00000000",
      "blockhash": "4144179ee535329b010adbe0d1afedfadcbd39d748617b163a42b528ce31430d",
      "confirmations": 3,
      "time": 1621375480,
      "blocktime": 1621375480
    }
  ],
  "time": 1621375480,
  "mediantime": 1621375230,
  "nonce": 0,
  "bits": "1c010729",
  "difficulty": 249.0308598910478,
  "chainwork": "000000000000000000000000000000000000000000000000121d21e7ef07c546",
  "tposcontract": "8bc14086c3567c834af5479f73a00ad2cdcb0b8e3109ec2f05c29c00b8b7eaf0",
  "previousblockhash": "723e03e8aa6e410908df7ddad752d1a04ada11acf3aff852278effb36646fa6c"
}