{
  "hash": "c6c9a39dfe3abc01db2a6049133d9770349dd0a5627e8446b698b3d96c63dc84",
  "confirmations": 775949,
  "strippedsize": 454,
  "size": 490,
  "weight": 1852,
  "height": 898488,
  "version": 536870912,
  "versionHex": "20000000",
  "merkleroot": "f207a569007930c085dddf432155f73b1df454a97b8cdc81134d0d3131755415",
  "tx": [
    {
      "txid": "ec55d3f08accf804ad84d409c8f0941f3167e1fe62470a75101f773c62c3e70e",
      "hash": "d550d02ba008537858a15fd8b1d60395fe839269d26ea21efb682c57792deb8d",
      "version": 2,
      "size": 149,
      "vsize": 122,
      "weight": 488,
      "locktime": 0,
      "vin": [
        {
          "coinbase": "03b8b50d0101",
          "sequence": 4294967295
        }
      ],
      "vout": [
        {
          "value": 0,
          "n": 0,
          "scriptPubKey": {
            "asm": "",
            "hex": "",
            "type": "nonstandard"
          }
        },
        {
          "value": 0,
          "n": 1,
          "scriptPubKey": {
            "asm": "OP_RETURN aa21a9edc75815b7e4d0cf46b62067d8f9f72fe2c6cce637f54268ceda3399f5cf2ba19f",
            "hex": "6a24aa21a9edc75815b7e4d0cf46b62067d8f9f72fe2c6cce637f54268ceda3399f5cf2ba19f",
            "type": "nulldata"
          }
        }
      ],
      "hex": "020000000001010000000000000000000000000000000000000000000000000000000000000000ffffffff0603b8b50d0101ffffffff020000000000000000000000000000000000266a24aa21a9edc75815b7e4d0cf46b62067d8f9f72fe2c6cce637f54268ceda3399f5cf2ba19f0120000000000000000000000000000000000000000000000000000000000000000000000000",
      "blockhash": "c6c9a39dfe3abc01db2a6049133d9770349dd0a5627e8446b698b3d96c63dc84",
      "confirmations": 775949,
      "time": 1575325470,
      "blocktime": 1575325470
    },
    {
      "txid": "677c83e52f8707c45d3b2f82df5c4ecc575b544670d5b2f0d349cf067dc83bb2",
      "hash": "677c83e52f8707c45d3b2f82df5c4ecc575b544670d5b2f0d349cf067dc83bb2",
      "version": 2,
      "size": 162,
      "vsize": 162,
      "weight": 648,
      "locktime": 0,
      "vin": [
        {
          "txid": "33c492af908aa33aa078571f703fc75e82154272cd8e5a8da88ce13ba3b009a5",
          "vout": 1,
          "scriptSig": {
            "asm": "",
            "hex": ""
          },
          "sequence": 4294967295
        }
      ],
      "vout": [
        {
          "value": 0,
          "n": 0,
          "scriptPubKey": {
            "asm": "",
            "hex": "",
            "type": "nonstandard"
          }
        },
        {
          "value": 2951.47213072,
          "n": 1,
          "scriptPubKey": {
            "asm": "OP_DUP OP_HASH160 2fc6c22cc08c7da31a9b4a82fc59ec35adb50603 OP_EQUALVERIFY OP_CHECKSIG",
            "hex": "76a9142fc6c22cc08c7da31a9b4a82fc59ec35adb5060388ac",
            "reqSigs": 1,
            "type": "pubkeyhash",
            "addresses": [
              "Xf3ThFZVPE8MwNF3ZQ2gmUJuNKYFLgcJgf"
            ]
          }
        },
        {
          "value": 0.9,
          "n": 2,
          "scriptPubKey": {
            "asm": "OP_DUP OP_HASH160 425f01700da8a7b37b62da55e5375ab3c10ac850 OP_EQUALVERIFY OP_CHECKSIG",
            "hex": "76a914425f01700da8a7b37b62da55e5375ab3c10ac85088ac",
            "reqSigs": 1,
            "type": "pubkeyhash",
            "addresses": [
              "XgjnF28CLXnWQYGJMMzRzQrJdUPihG2e8G"
            ]
          }
        },
        {
          "value": 7000000,
          "n": 3,
          "scriptPubKey": {
            "asm": "OP_DUP OP_HASH160 930db3d92489c7e4c8783e843cfc60d54d6a1035 OP_EQUALVERIFY OP_CHECKSIG",
            "hex": "76a914930db3d92489c7e4c8783e843cfc60d54d6a103588ac",
            "reqSigs": 1,
            "type": "pubkeyhash",
            "addresses": [
              "Xp6PaXBQrN6L8sVFHQYVW5rBnKApecD6vu"
            ]
          }
        }
      ],
      "hex": "0200000001a509b0a33be18ca88d5a8ecd724215825ec73f701f5778a03aa38a90af92c4330100000000ffffffff04000000000000000000101125b8440000001976a9142fc6c22cc08c7da31a9b4a82fc59ec35adb5060388ac804a5d05000000001976a914425f01700da8a7b37b62da55e5375ab3c10ac85088ac00c05773a57c02001976a914930db3d92489c7e4c8783e843cfc60d54d6a103588ac00000000",
      "blockhash": "c6c9a39dfe3abc01db2a6049133d9770349dd0a5627e8446b698b3d96c63dc84",
      "confirmations": 775950,
      "time": 1575325470,
      "blocktime": 1575325470
    }
  ],
  "time": 1575325470,
  "mediantime": 1575325276,
  "nonce": 0,
  "bits": "1c019076",
  "difficulty": 163.6489201896252,
  "chainwork": "00000000000000000000000000000000000000000000000006f0ed0e8446b75d",
  "tposcontract": "b5ea4dc6d87ada2beee36a36fe4c663a2e499c64fe08cb2d12b88b3014304f72",
  "previousblockhash": "8f9b5d0d14c753b1d3f4ed7e2d951813fb7646988affdc004f8d1ea72092a0ce",
  "nextblockhash": "84613020585b11e61c569d9ab9c48045f2ff15fdd966c5deeb23f8e36e6970d5"
}