{
  "hash": "f0f1fbc98821947b4e869bb234647fcd31385f04f5f7dc9d136d8e6be47ecc19",
  "confirmations": 17,
  "strippedsize": 526,
  "size": 562,
  "weight": 2140,
  "height": 1671361,
  "version": 536870912,
  "versionHex": "20000000",
  "merkleroot": "d58b0699d02f423bbbe2df4f09d82419abadf39b167a4978297f05442e36fcc8",
  "tx": [
    {
      "txid": "90dbaa18031ace8199e409ce3878874c1446ea8aeefa3f0bc3224134c6c0aa49",
      "hash": "84826492046d049f45933ad5460ec4713316d5b60d02a977fedc07be4d30e145",
      "version": 2,
      "size": 149,
      "vsize": 122,
      "weight": 488,
      "locktime": 0,
      "vin": [
        {
          "coinbase": "03c180190101",
          "sequence": 4294967295
        }
      ],
      "vout": [
        {
          "value": 0,
          "n": 0,
          "scriptPubKey": {
            "asm": "",
            "hex": "",
            "type": "nonstandard"
          }
        },
        {
          "value": 0,
          "n": 1,
          "scriptPubKey": {
            "asm": "OP_RETURN aa21a9edfeb999a12f0145faed9a493a805839db3b779d07a2f65071f2b509b05e1afc55",
            "hex": "6a24aa21a9edfeb999a12f0145faed9a493a805839db3b779d07a2f65071f2b509b05e1afc55",
            "type": "nulldata"
          }
        }
      ],
      "hex": "020000000001010000000000000000000000000000000000000000000000000000000000000000ffffffff0603c180190101ffffffff020000000000000000000000000000000000266a24aa21a9edfeb999a12f0145faed9a493a805839db3b779d07a2f65071f2b509b05e1afc550120000000000000000000000000000000000000000000000000000000000000000000000000",
      "blockhash": "f0f1fbc98821947b4e869bb234647fcd31385f04f5f7dc9d136d8e6be47ecc19",
      "confirmations": 17,
      "time": 1621364229,
      "blocktime": 1621364229
    },
    {
      "txid": "38ed6b7226aead3ebf15e706f2788459b3763f48fc96e9ea4a96cec18256f526",
      "hash": "38ed6b7226aead3ebf15e706f2788459b3763f48fc96e9ea4a96cec18256f526",
      "version": 2,
      "size": 234,
      "vsize": 234,
      "weight": 936,
      "locktime": 0,
      "vin": [
        {
          "txid": "d8de60f9d59054062401ed6f9fcbf54a66741b10e5078c373cc8b4e333ccc96d",
          "vout": 1,
          "scriptSig": {
            "asm": "304402206311538aebcf8bd1f01ce8915109672a8297dd867c9438502e0645534f2eda80022020403c78d73d5996effb0cf4699fc0cc07206fd3dbac903e8bf14a0ac880040f[ALL] 02c499d4c53c437c4ab46aac31bf1907ef3eec5048fe2b0c7f72fb57117ae1005c",
            "hex": "47304402206311538aebcf8bd1f01ce8915109672a8297dd867c9438502e0645534f2eda80022020403c78d73d5996effb0cf4699fc0cc07206fd3dbac903e8bf14a0ac880040f012102c499d4c53c437c4ab46aac31bf1907ef3eec5048fe2b0c7f72fb57117ae1005c"
          },
          "sequence": 4294967295
        }
      ],
      "vout": [
        {
          "value": 0,
          "n": 0,
          "scriptPubKey": {
            "asm": "",
            "hex": "",
            "type": "nonstandard"
          }
        },
        {
          "value": 2121,
          "n": 1,
          "scriptPubKey": {
            "asm": "OP_DUP OP_HASH160 50409006f31b9f55e622abfa12a9df7cd41f983c OP_EQUALVERIFY OP_CHECKSIG",
            "hex": "76a91450409006f31b9f55e622abfa12a9df7cd41f983c88ac",
            "reqSigs": 1,
            "type": "pubkeyhash",
            "addresses": [
              "Xi1BEVHFRYg1QQfrNJF8L9yXvREAADxCLk"
            ]
          }
        },
        {
          "value": 9,
          "n": 2,
          "scriptPubKey": {
            "asm": "OP_DUP OP_HASH160 50fba559f97c1e5a0d7496d97576a113f1925a69 OP_EQUALVERIFY OP_CHECKSIG",
            "hex": "76a91450fba559f97c1e5a0d7496d97576a113f1925a6988ac",
            "reqSigs": 1,
            "type": "pubkeyhash",
            "addresses": [
              "Xi53MGFpPYZN5rFeKqGk3WSuNk7CGfQ4cj"
            ]
          }
        }
      ],
      "hex": "02000000016dc9cc33e3b4c83c378c07e5101b74664af5cb9f6fed0124065490d5f960ded8010000006a47304402206311538aebcf8bd1f01ce8915109672a8297dd867c9438502e0645534f2eda80022020403c78d73d5996effb0cf4699fc0cc07206fd3dbac903e8bf14a0ac880040f012102c499d4c53c437c4ab46aac31bf1907ef3eec5048fe2b0c7f72fb57117ae1005cffffffff0300000000000000000000292562310000001976a91450409006f31b9f55e622abfa12a9df7cd41f983c88ac00e9a435000000001976a91450fba559f97c1e5a0d7496d97576a113f1925a6988ac00000000",
      "blockhash": "f0f1fbc98821947b4e869bb234647fcd31385f04f5f7dc9d136d8e6be47ecc19",
      "confirmations": 18,
      "time": 1621364229,
      "blocktime": 1621364229
    }
  ],
  "time": 1621364229,
  "mediantime": 1621364000,
  "nonce": 0,
  "bits": "1c0114b5",
  "difficulty": 236.8389401019241,
  "chainwork": "000000000000000000000000000000000000000000000000121c701870d35ca3",
  "previousblockhash": "b54457f656c2c8f20bce6fddedd98d1c263a21f77a175f44fecf07ac8f3fb0cf",
  "nextblockhash": "bc5b3f59eb569ad066bd1a04d16420523b90f50bb22750d39357f5e41eed21ce"
}