{
  "hex": "01000000010000000000000000000000000000000000000000000000000000000000000000ffffffff03510101ffffffff010000000000000000232103e8c52f2c5155771492907095753a43ce776e1fa7c5e769a67a9f3db4467ec029ac00000000",
  "txid": "024aba1d535cfe5dd3ea465d46a828a57b00e1df012d7a2d158e0f7484173f7c",
  "size": 98,
  "version": 1,
  "locktime": 0,
  "vin": [
    {
      "coinbase": "510101",
      "sequence": 4294967295
    }
  ],
  "vout": [
    {
      "value": 0.00000000,
      "valueSat": 0,
      "n": 0,
      "scriptPubKey": {
        "asm": "03e8c52f2c5155771492907095753a43ce776e1fa7c5e769a67a9f3db4467ec029 OP_CHECKSIG",
        "hex": "2103e8c52f2c5155771492907095753a43ce776e1fa7c5e769a67a9f3db4467ec029ac",
        "reqSigs": 1,
        "type": "pubkey",
        "addresses": [
          "XdJnCKYNwzCz8ATv8Eu75gonaHyfr9qXg9"
        ]
      }
    }
  ],
  "blockhash": "000003fb382f6892ae96594b81aa916a8923c70701de4e7054aac556c7271ef7",
  "height": 1,
  "confirmations": 33908,
  "time": 1520276270,
  "blocktime": 1520276270
}