{
  "hex": "01000000013866bae248913ad4939d927ddb8dc250e00046f43a747f619ec7875a8a286018010000006a4730440220135daeb816d7badca27fdf4d5edce94a6f21cb61d1e5ff188f3d0bbbe142d47302206d67ef9b428e6c3d7241be1d208bab29296445990813ec55e54527b6ecba4fca012103624fbfb0079e85bbc9aaeba6f48581326ad01194b3c54ce22852a27b1d2892d1ffffffff030000000000000000004842cd35a51a00001976a9143cc9ede1da2d7351aaebaf6a25d2657e0b05a71688ac4842cd35a51a00001976a9143cc9ede1da2d7351aaebaf6a25d2657e0b05a71688ac00000000",
  "txid": "0b761343c7be39116d5429953e0cfbf51bfe83400ab27d61084222451045116c",
  "size": 234,
  "version": 1,
  "locktime": 0,
  "vin": [
    {
      "txid": "1860288a5a87c79e617f743af44600e050c28ddb7d929d93d43a9148e2ba6638",
      "vout": 1,
      "scriptSig": {
        "asm": "30440220135daeb816d7badca27fdf4d5edce94a6f21cb61d1e5ff188f3d0bbbe142d47302206d67ef9b428e6c3d7241be1d208bab29296445990813ec55e54527b6ecba4fca[ALL] 03624fbfb0079e85bbc9aaeba6f48581326ad01194b3c54ce22852a27b1d2892d1",
        "hex": "4730440220135daeb816d7badca27fdf4d5edce94a6f21cb61d1e5ff188f3d0bbbe142d47302206d67ef9b428e6c3d7241be1d208bab29296445990813ec55e54527b6ecba4fca012103624fbfb0079e85bbc9aaeba6f48581326ad01194b3c54ce22852a27b1d2892d1"
      },
      "value": 585937.49140625,
      "valueSat": 58593749140625,
      "address": "XgEGH3y7RfeKEdn2hkYEvBnrnmGBr7zvjL",
      "sequence": 4294967295
    }
  ],
  "vout": [
    {
      "value": 0.00000000,
      "valueSat": 0,
      "n": 0,
      "scriptPubKey": {
        "asm": "",
        "hex": "",
        "type": "nonstandard"
      }
    },
    {
      "value": 292968.74570312,
      "valueSat": 29296874570312,
      "n": 1,
      "scriptPubKey": {
        "asm": "OP_DUP OP_HASH160 3cc9ede1da2d7351aaebaf6a25d2657e0b05a716 OP_EQUALVERIFY OP_CHECKSIG",
        "hex": "76a9143cc9ede1da2d7351aaebaf6a25d2657e0b05a71688ac",
        "reqSigs": 1,
        "type": "pubkeyhash",
        "addresses": [
          "XgEGH3y7RfeKEdn2hkYEvBnrnmGBr7zvjL"
        ]
      },
      "spentTxId": "d16825f4cd83a297946fa18b77948e9e4be9b7707ee5cb5ece9d8c90eb952941",
      "spentIndex": 0,
      "spentHeight": 1086
    },
    {
      "value": 292968.74570312,
      "valueSat": 29296874570312,
      "n": 2,
      "scriptPubKey": {
        "asm": "OP_DUP OP_HASH160 3cc9ede1da2d7351aaebaf6a25d2657e0b05a716 OP_EQUALVERIFY OP_CHECKSIG",
        "hex": "76a9143cc9ede1da2d7351aaebaf6a25d2657e0b05a71688ac",
        "reqSigs": 1,
        "type": "pubkeyhash",
        "addresses": [
          "XgEGH3y7RfeKEdn2hkYEvBnrnmGBr7zvjL"
        ]
      },
      "spentTxId": "4aa087c2a0ca449395a239f77065819b4e1e83245b82d62a0edc6817ff571870",
      "spentIndex": 0,
      "spentHeight": 1352
    }
  ],
  "blockhash": "25762bf01143f7fe34912c926e0b95528b082c6323de35516de0fc321f5d8058",
  "height": 1000,
  "confirmations": 32959,
  "time": 1520327156,
  "blocktime": 1520327156
}