{
  "hex": "0100000001ba6523da653a4b2a2390c9a51922c37b92313ed606b86525c3ae3da9e28db139020000006a4730440220628b6d6829634b5f49abd50f4a25e8fc4fa6465e0b17c807f5bf1fe04c42d7a202203d05594a5c97244479771609fb370b4c4ca87d130cb630826c930b555902ee490121031810683b84cd1306250970702942d435a1a64ca75304830b55c73dea5340c20dffffffff0400000000000000000091663b7d6c0100001976a9145356fa18a159ac621882928d307a54474a53b0f388ac11201ff76b0100001976a9145356fa18a159ac621882928d307a54474a53b0f388ac80461c86000000001976a914328b5ebc85625004e37ecb6de1ae45f11e4d19e688ac00000000",
  "txid": "0c0f595a004eab5cf62ea70570f175701d120a0da31c8222d2d99fc60bf96577",
  "size": 268,
  "version": 1,
  "locktime": 0,
  "vin": [
    {
      "txid": "39b18de2a93daec32565b806d63e31927bc32219a5c990232a4b3a65da2365ba",
      "vout": 2,
      "scriptSig": {
        "asm": "30440220628b6d6829634b5f49abd50f4a25e8fc4fa6465e0b17c807f5bf1fe04c42d7a202203d05594a5c97244479771609fb370b4c4ca87d130cb630826c930b555902ee49[ALL] 031810683b84cd1306250970702942d435a1a64ca75304830b55c73dea5340c20d",
        "hex": "4730440220628b6d6829634b5f49abd50f4a25e8fc4fa6465e0b17c807f5bf1fe04c42d7a202203d05594a5c97244479771609fb370b4c4ca87d130cb630826c930b555902ee490121031810683b84cd1306250970702942d435a1a64ca75304830b55c73dea5340c20d"
      },
      "value": 31264.38281250,
      "valueSat": 3126438281250,
      "address": "XiHW7SR56UPHeXKwcpeVsE4nUfkHv5RqE3",
      "sequence": 4294967295
    }
  ],
  "vout": [
    {
      "value": 0.00000000,
      "valueSat": 0,
      "n": 0,
      "scriptPubKey": {
        "asm": "",
        "hex": "",
        "type": "nonstandard"
      }
    },
    {
      "value": 15654.69140625,
      "valueSat": 1565469140625,
      "n": 1,
      "scriptPubKey": {
        "asm": "OP_DUP OP_HASH160 5356fa18a159ac621882928d307a54474a53b0f3 OP_EQUALVERIFY OP_CHECKSIG",
        "hex": "76a9145356fa18a159ac621882928d307a54474a53b0f388ac",
        "reqSigs": 1,
        "type": "pubkeyhash",
        "addresses": [
          "XiHW7SR56UPHeXKwcpeVsE4nUfkHv5RqE3"
        ]
      },
      "spentTxId": "9165692aa53f0db6be61521daf8bece68e005396880376260872352db0c005c1",
      "spentIndex": 0,
      "spentHeight": 23000
    },
    {
      "value": 15632.19140625,
      "valueSat": 1563219140625,
      "n": 2,
      "scriptPubKey": {
        "asm": "OP_DUP OP_HASH160 5356fa18a159ac621882928d307a54474a53b0f3 OP_EQUALVERIFY OP_CHECKSIG",
        "hex": "76a9145356fa18a159ac621882928d307a54474a53b0f388ac",
        "reqSigs": 1,
        "type": "pubkeyhash",
        "addresses": [
          "XiHW7SR56UPHeXKwcpeVsE4nUfkHv5RqE3"
        ]
      },
      "spentTxId": "b9c446be69eb353086eab9e72bdddc4f7a38ab0201cdb44685db6185c0e565d2",
      "spentIndex": 0,
      "spentHeight": 22473
    },
    {
      "value": 22.50000000,
      "valueSat": 2250000000,
      "n": 3,
      "scriptPubKey": {
        "asm": "OP_DUP OP_HASH160 328b5ebc85625004e37ecb6de1ae45f11e4d19e6 OP_EQUALVERIFY OP_CHECKSIG",
        "hex": "76a914328b5ebc85625004e37ecb6de1ae45f11e4d19e688ac",
        "reqSigs": 1,
        "type": "pubkeyhash",
        "addresses": [
          "XfJ6aSsHsXpLWMXM7QbC2M9SxedyJTmFXR"
        ]
      },
      "spentTxId": "ca4a4e6a1d45b65d31fcd83d1f1189b77f54ccbe8c1f411498601c31ff61bbee",
      "spentIndex": 12,
      "spentHeight": 22885
    }
  ],
  "blockhash": "e2df117061eb6ed4d2832616dd7a5f07b01ad3d148c9d7f9a1628d339d6caedb",
  "height": 21620,
  "confirmations": 12357,
  "time": 1521700630,
  "blocktime": 1521700630
}