{
  "txid": "100e0b7b5bf835afc6459fb6fe2ed51a68bd5b5b01e5c08f937f8b15879eeca6",
  "hash": "100e0b7b5bf835afc6459fb6fe2ed51a68bd5b5b01e5c08f937f8b15879eeca6",
  "version": 1,
  "size": 235,
  "vsize": 235,
  "weight": 940,
  "locktime": 0,
  "vin": [
    {
      "txid": "135fb9e9d96586d97fcd8e79cef1bd253bb49d00131355b5c8c1c70f9c757dd2",
      "vout": 2,
      "scriptSig": {
        "asm": "304502210099e54963723e0db2fd4209ecb0d8d7bd71b0da4ec2fa59b32ccfabb6b7d3490f022030561a6d3d7e6e11b467392336db7bb83f37b48ef1944570af1c88d54133d511[ALL] 03624fbfb0079e85bbc9aaeba6f48581326ad01194b3c54ce22852a27b1d2892d1",
        "hex": "48304502210099e54963723e0db2fd4209ecb0d8d7bd71b0da4ec2fa59b32ccfabb6b7d3490f022030561a6d3d7e6e11b467392336db7bb83f37b48ef1944570af1c88d54133d511012103624fbfb0079e85bbc9aaeba6f48581326ad01194b3c54ce22852a27b1d2892d1"
      },
      "sequence": 4294967295
    }
  ],
  "vout": [
    {
      "value": 0,
      "n": 0,
      "scriptPubKey": {
        "asm": "",
        "hex": "",
        "type": "nonstandard"
      }
    },
    {
      "value": 73242.18642578,
      "n": 1,
      "scriptPubKey": {
        "asm": "OP_DUP OP_HASH160 3cc9ede1da2d7351aaebaf6a25d2657e0b05a716 OP_EQUALVERIFY OP_CHECKSIG",
        "hex": "76a9143cc9ede1da2d7351aaebaf6a25d2657e0b05a71688ac",
        "reqSigs": 1,
        "type": "pubkeyhash",
        "addresses": [
          "XgEGH3y7RfeKEdn2hkYEvBnrnmGBr7zvjL"
        ]
      }
    },
    {
      "value": 73242.18642578,
      "n": 2,
      "scriptPubKey": {
        "asm": "OP_DUP OP_HASH160 3cc9ede1da2d7351aaebaf6a25d2657e0b05a716 OP_EQUALVERIFY OP_CHECKSIG",
        "hex": "76a9143cc9ede1da2d7351aaebaf6a25d2657e0b05a71688ac",
        "reqSigs": 1,
        "type": "pubkeyhash",
        "addresses": [
          "XgEGH3y7RfeKEdn2hkYEvBnrnmGBr7zvjL"
        ]
      }
    }
  ],
  "hex": "0100000001d27d759c0fc7c1c8b5551313009db43b25bdf1ce798ecd7fd98665d9e9b95f13020000006b48304502210099e54963723e0db2fd4209ecb0d8d7bd71b0da4ec2fa59b32ccfabb6b7d3490f022030561a6d3d7e6e11b467392336db7bb83f37b48ef1944570af1c88d54133d511012103624fbfb0079e85bbc9aaeba6f48581326ad01194b3c54ce22852a27b1d2892d1ffffffff030000000000000000009250734da90600001976a9143cc9ede1da2d7351aaebaf6a25d2657e0b05a71688ac9250734da90600001976a9143cc9ede1da2d7351aaebaf6a25d2657e0b05a71688ac00000000",
  "blockhash": "28fb72e618e737b086143eefaf6d859117ecf354e98347da8be7c382c3ddddce",
  "confirmations": 588069,
  "time": 1520366729,
  "blocktime": 1520366729
}