{
  "hex": "01000000011f831073b4349eae0824afadf82afad994ee889979ff69f6cda6b3c05e7f15ef020000006a4730440220427bdecddf4dd207aaa226cd4a39d14612b36a1cd7b153c75d60b125baf1bb2f0220761682b959b5df3377564564b4bb2ffe9d2d15f2e7c8f257948916f47f38788b012103624fbfb0079e85bbc9aaeba6f48581326ad01194b3c54ce22852a27b1d2892d1ffffffff0300000000000000000091849a6b4a3500001976a9143cc9ede1da2d7351aaebaf6a25d2657e0b05a71688ac91849a6b4a3500001976a9143cc9ede1da2d7351aaebaf6a25d2657e0b05a71688ac00000000",
  "txid": "1860288a5a87c79e617f743af44600e050c28ddb7d929d93d43a9148e2ba6638",
  "size": 234,
  "version": 1,
  "locktime": 0,
  "vin": [
    {
      "txid": "ef157f5ec0b3a6cdf669ff799988ee94d9fa2af8adaf2408ae9e34b47310831f",
      "vout": 2,
      "scriptSig": {
        "asm": "30440220427bdecddf4dd207aaa226cd4a39d14612b36a1cd7b153c75d60b125baf1bb2f0220761682b959b5df3377564564b4bb2ffe9d2d15f2e7c8f257948916f47f38788b[ALL] 03624fbfb0079e85bbc9aaeba6f48581326ad01194b3c54ce22852a27b1d2892d1",
        "hex": "4730440220427bdecddf4dd207aaa226cd4a39d14612b36a1cd7b153c75d60b125baf1bb2f0220761682b959b5df3377564564b4bb2ffe9d2d15f2e7c8f257948916f47f38788b012103624fbfb0079e85bbc9aaeba6f48581326ad01194b3c54ce22852a27b1d2892d1"
      },
      "value": 1171874.98281250,
      "valueSat": 117187498281250,
      "address": "XgEGH3y7RfeKEdn2hkYEvBnrnmGBr7zvjL",
      "sequence": 4294967295
    }
  ],
  "vout": [
    {
      "value": 0.00000000,
      "valueSat": 0,
      "n": 0,
      "scriptPubKey": {
        "asm": "",
        "hex": "",
        "type": "nonstandard"
      }
    },
    {
      "value": 585937.49140625,
      "valueSat": 58593749140625,
      "n": 1,
      "scriptPubKey": {
        "asm": "OP_DUP OP_HASH160 3cc9ede1da2d7351aaebaf6a25d2657e0b05a716 OP_EQUALVERIFY OP_CHECKSIG",
        "hex": "76a9143cc9ede1da2d7351aaebaf6a25d2657e0b05a71688ac",
        "reqSigs": 1,
        "type": "pubkeyhash",
        "addresses": [
          "XgEGH3y7RfeKEdn2hkYEvBnrnmGBr7zvjL"
        ]
      },
      "spentTxId": "0b761343c7be39116d5429953e0cfbf51bfe83400ab27d61084222451045116c",
      "spentIndex": 0,
      "spentHeight": 1000
    },
    {
      "value": 585937.49140625,
      "valueSat": 58593749140625,
      "n": 2,
      "scriptPubKey": {
        "asm": "OP_DUP OP_HASH160 3cc9ede1da2d7351aaebaf6a25d2657e0b05a716 OP_EQUALVERIFY OP_CHECKSIG",
        "hex": "76a9143cc9ede1da2d7351aaebaf6a25d2657e0b05a71688ac",
        "reqSigs": 1,
        "type": "pubkeyhash",
        "addresses": [
          "XgEGH3y7RfeKEdn2hkYEvBnrnmGBr7zvjL"
        ]
      },
      "spentTxId": "9248c417d64f816714a13c07d31fb0f40e6dc014102771d7d72fc5b5a50df9e2",
      "spentIndex": 0,
      "spentHeight": 962
    }
  ],
  "blockhash": "632e6ad5017ccf80ca37a0183f427e5102947a1ea54ae6ad95f42f28340c08fb",
  "height": 874,
  "confirmations": 33085,
  "time": 1520321705,
  "blocktime": 1520321705
}