{
  "txid": "56e1844d9d01a4586e903e85bf29c35af2b9e32c5fc792dd098840219fe6354a",
  "hash": "56e1844d9d01a4586e903e85bf29c35af2b9e32c5fc792dd098840219fe6354a",
  "version": 1,
  "size": 235,
  "vsize": 235,
  "weight": 940,
  "locktime": 0,
  "vin": [
    {
      "txid": "815382b900ea1aa08df29d7caa7235714c23bddfcc7f5c1429790bf4ef855381",
      "vout": 2,
      "scriptSig": {
        "asm": "3045022100fb79c4a782e839cac2e1ee305c362032ac02cedcbe0fad91e6e3557c6e79f12402205fc8e3983a5289654ff5c5f5704568bd00bb972c6124a277c51db45c8924a2c0[ALL] 03624fbfb0079e85bbc9aaeba6f48581326ad01194b3c54ce22852a27b1d2892d1",
        "hex": "483045022100fb79c4a782e839cac2e1ee305c362032ac02cedcbe0fad91e6e3557c6e79f12402205fc8e3983a5289654ff5c5f5704568bd00bb972c6124a277c51db45c8924a2c0012103624fbfb0079e85bbc9aaeba6f48581326ad01194b3c54ce22852a27b1d2892d1"
      },
      "sequence": 4294967295
    }
  ],
  "vout": [
    {
      "value": 0,
      "n": 0,
      "scriptPubKey": {
        "asm": "",
        "hex": "",
        "type": "nonstandard"
      }
    },
    {
      "value": 73242.18642578,
      "n": 1,
      "scriptPubKey": {
        "asm": "OP_DUP OP_HASH160 3cc9ede1da2d7351aaebaf6a25d2657e0b05a716 OP_EQUALVERIFY OP_CHECKSIG",
        "hex": "76a9143cc9ede1da2d7351aaebaf6a25d2657e0b05a71688ac",
        "reqSigs": 1,
        "type": "pubkeyhash",
        "addresses": [
          "XgEGH3y7RfeKEdn2hkYEvBnrnmGBr7zvjL"
        ]
      }
    },
    {
      "value": 73242.18642578,
      "n": 2,
      "scriptPubKey": {
        "asm": "OP_DUP OP_HASH160 3cc9ede1da2d7351aaebaf6a25d2657e0b05a716 OP_EQUALVERIFY OP_CHECKSIG",
        "hex": "76a9143cc9ede1da2d7351aaebaf6a25d2657e0b05a71688ac",
        "reqSigs": 1,
        "type": "pubkeyhash",
        "addresses": [
          "XgEGH3y7RfeKEdn2hkYEvBnrnmGBr7zvjL"
        ]
      }
    }
  ],
  "hex": "0100000001815385eff40b7929145c7fccdfbd234c713572aa7c9df28da01aea00b9825381020000006b483045022100fb79c4a782e839cac2e1ee305c362032ac02cedcbe0fad91e6e3557c6e79f12402205fc8e3983a5289654ff5c5f5704568bd00bb972c6124a277c51db45c8924a2c0012103624fbfb0079e85bbc9aaeba6f48581326ad01194b3c54ce22852a27b1d2892d1ffffffff030000000000000000009250734da90600001976a9143cc9ede1da2d7351aaebaf6a25d2657e0b05a71688ac9250734da90600001976a9143cc9ede1da2d7351aaebaf6a25d2657e0b05a71688ac00000000",
  "blockhash": "b7a006c1b8bbf858f42dc7d7906151c5f074e1297f78eb4afa08ddd05f2daf24",
  "confirmations": 587762,
  "time": 1520384997,
  "blocktime": 1520384997
}