{
  "txid": "7943aeb6eee0f92406930b4a1b34a8801477c2bf0d94fa7f2e7a43d61a9cd60c",
  "hash": "7943aeb6eee0f92406930b4a1b34a8801477c2bf0d94fa7f2e7a43d61a9cd60c",
  "version": 1,
  "size": 234,
  "vsize": 234,
  "weight": 936,
  "locktime": 0,
  "vin": [
    {
      "txid": "1a68bd141ff69bf579f3c128433dd77da98a75e39b37760558226cb2add78741",
      "vout": 1,
      "scriptSig": {
        "asm": "304402201aee4cbc775a3b1354fe6456ac9f0688e0d73a6b3520f9f110c627a94955e07f0220101b3a44d24e6b6b05112011fca6bd8803239809659d5970c9f65e69c4f0bb93[ALL] 03624fbfb0079e85bbc9aaeba6f48581326ad01194b3c54ce22852a27b1d2892d1",
        "hex": "47304402201aee4cbc775a3b1354fe6456ac9f0688e0d73a6b3520f9f110c627a94955e07f0220101b3a44d24e6b6b05112011fca6bd8803239809659d5970c9f65e69c4f0bb93012103624fbfb0079e85bbc9aaeba6f48581326ad01194b3c54ce22852a27b1d2892d1"
      },
      "sequence": 4294967295
    }
  ],
  "vout": [
    {
      "value": 0,
      "n": 0,
      "scriptPubKey": {
        "asm": "",
        "hex": "",
        "type": "nonstandard"
      }
    },
    {
      "value": 73242.18642578,
      "n": 1,
      "scriptPubKey": {
        "asm": "OP_DUP OP_HASH160 3cc9ede1da2d7351aaebaf6a25d2657e0b05a716 OP_EQUALVERIFY OP_CHECKSIG",
        "hex": "76a9143cc9ede1da2d7351aaebaf6a25d2657e0b05a71688ac",
        "reqSigs": 1,
        "type": "pubkeyhash",
        "addresses": [
          "XgEGH3y7RfeKEdn2hkYEvBnrnmGBr7zvjL"
        ]
      }
    },
    {
      "value": 73242.18642578,
      "n": 2,
      "scriptPubKey": {
        "asm": "OP_DUP OP_HASH160 3cc9ede1da2d7351aaebaf6a25d2657e0b05a716 OP_EQUALVERIFY OP_CHECKSIG",
        "hex": "76a9143cc9ede1da2d7351aaebaf6a25d2657e0b05a71688ac",
        "reqSigs": 1,
        "type": "pubkeyhash",
        "addresses": [
          "XgEGH3y7RfeKEdn2hkYEvBnrnmGBr7zvjL"
        ]
      }
    }
  ],
  "hex": "01000000014187d7adb26c22580576379be3758aa97dd73d4328c1f379f59bf61f14bd681a010000006a47304402201aee4cbc775a3b1354fe6456ac9f0688e0d73a6b3520f9f110c627a94955e07f0220101b3a44d24e6b6b05112011fca6bd8803239809659d5970c9f65e69c4f0bb93012103624fbfb0079e85bbc9aaeba6f48581326ad01194b3c54ce22852a27b1d2892d1ffffffff030000000000000000009250734da90600001976a9143cc9ede1da2d7351aaebaf6a25d2657e0b05a71688ac9250734da90600001976a9143cc9ede1da2d7351aaebaf6a25d2657e0b05a71688ac00000000",
  "blockhash": "5efbab10c6c38003cb27db443b51b00c00483c2db603a22c047ed699b3c804e1",
  "confirmations": 588053,
  "time": 1520367738,
  "blocktime": 1520367738
}