{
  "hex": "0100000001e4351d959235468eb25b4c32b129e2d2a2fdf09fd72e7172f46822e6e21e6279000000006a4730440220717ffda2fc31e25849b7b6216d777c50135ae2c24f81ea74c63230c00b34772702203a35a8a3a15493b5de5d68d3586fb090f9bed63bb20078b2ee868a61d3c9cb9b012102cf95793cb0145551c9a6572e3eb2c3bcf524298b4f217065b771e06925e30291feffffff030000000000000000496a22587535556b67524c385952716f57367545573853784d4c446b4a77626a4656666765225862474670737568763641483367703364783565517241657850356b455368396259016300e1f505000000001976a914c9ba3c497107845ea80dcf64951ced030556384e88accd01164e020000001976a914690b8f4edf066edb2fa3385f0d3e39771d27b6d088ac12370000",
  "txid": "99c51e4fe89466faa734d6207a7ef6115fa1dd33f7156b006fafc6bb85a79eb8",
  "size": 307,
  "version": 1,
  "locktime": 14098,
  "vin": [
    {
      "txid": "79621ee2e62268f472712ed79ff0fda2d2e229b1324c5bb28e463592951d35e4",
      "vout": 0,
      "scriptSig": {
        "asm": "30440220717ffda2fc31e25849b7b6216d777c50135ae2c24f81ea74c63230c00b34772702203a35a8a3a15493b5de5d68d3586fb090f9bed63bb20078b2ee868a61d3c9cb9b[ALL] 02cf95793cb0145551c9a6572e3eb2c3bcf524298b4f217065b771e06925e30291",
        "hex": "4730440220717ffda2fc31e25849b7b6216d777c50135ae2c24f81ea74c63230c00b34772702203a35a8a3a15493b5de5d68d3586fb090f9bed63bb20078b2ee868a61d3c9cb9b012102cf95793cb0145551c9a6572e3eb2c3bcf524298b4f217065b771e06925e30291"
      },
      "value": 100.00000000,
      "valueSat": 10000000000,
      "address": "Xu5UkgRL8YRqoW6uEW8SxMLDkJwbjFVfge",
      "sequence": 4294967294
    }
  ],
  "vout": [
    {
      "value": 0.00000000,
      "valueSat": 0,
      "n": 0,
      "scriptPubKey": {
        "asm": "OP_RETURN 587535556b67524c385952716f57367545573853784d4c446b4a77626a4656666765 5862474670737568763641483367703364783565517241657850356b455368396259 99",
        "hex": "6a22587535556b67524c385952716f57367545573853784d4c446b4a77626a4656666765225862474670737568763641483367703364783565517241657850356b4553683962590163",
        "type": "nulldata"
      }
    },
    {
      "value": 1.00000000,
      "valueSat": 100000000,
      "n": 1,
      "scriptPubKey": {
        "asm": "OP_DUP OP_HASH160 c9ba3c497107845ea80dcf64951ced030556384e OP_EQUALVERIFY OP_CHECKSIG",
        "hex": "76a914c9ba3c497107845ea80dcf64951ced030556384e88ac",
        "reqSigs": 1,
        "type": "pubkeyhash",
        "addresses": [
          "Xu5UkgRL8YRqoW6uEW8SxMLDkJwbjFVfge"
        ]
      }
    },
    {
      "value": 98.99999693,
      "valueSat": 9899999693,
      "n": 2,
      "scriptPubKey": {
        "asm": "OP_DUP OP_HASH160 690b8f4edf066edb2fa3385f0d3e39771d27b6d0 OP_EQUALVERIFY OP_CHECKSIG",
        "hex": "76a914690b8f4edf066edb2fa3385f0d3e39771d27b6d088ac",
        "reqSigs": 1,
        "type": "pubkeyhash",
        "addresses": [
          "XkGGdarLNe8CtrCLg15QkcrgSm4td8vPoz"
        ]
      },
      "spentTxId": "1183105915752a7559453775a1e663317bebb9fb35f0880129a78933f2fb2fa1",
      "spentIndex": 0,
      "spentHeight": 18357
    }
  ],
  "blockhash": "ad92f0dcea2fdaa357aac6eab00695cf07b487e34113598909f625c24629c981",
  "height": 14099,
  "confirmations": 23566,
  "time": 1521230973,
  "blocktime": 1521230973
}