{
  "txid": "06eee51317a76a76c67499c8f782819745b58d28cdb4d8357ef7f7e6d79cc513",
  "hash": "06eee51317a76a76c67499c8f782819745b58d28cdb4d8357ef7f7e6d79cc513",
  "version": 1,
  "size": 226,
  "vsize": 226,
  "weight": 904,
  "locktime": 0,
  "vin": [
    {
      "txid": "df3b6ebcfead10c9c21d11fb68f93e7afe2bb6b15aedb1ebdce41d2634559220",
      "vout": 1,
      "scriptSig": {
        "asm": "3045022100f50198f5ae66211a4f485190abe4dc7accdabe3bc214ebc9ea7069b97097d46e0220316a70a03014887086e335fc1b48358d46cd6bdc9af3b57c109c94af76fc9151[ALL] 0316cff587a01a2736d5e12e53551b18d73780b83c3bfb4fcf209c869b11b6415e",
        "hex": "483045022100f50198f5ae66211a4f485190abe4dc7accdabe3bc214ebc9ea7069b97097d46e0220316a70a03014887086e335fc1b48358d46cd6bdc9af3b57c109c94af76fc915101210316cff587a01a2736d5e12e53551b18d73780b83c3bfb4fcf209c869b11b6415e"
      },
      "sequence": 4294967295
    }
  ],
  "vout": [
    {
      "value": 0.00500000,
      "n": 0,
      "scriptPubKey": {
        "asm": "OP_DUP OP_HASH160 50333046115eaa0ac9e0216565f945070e445739 OP_EQUALVERIFY OP_CHECKSIG",
        "hex": "76a91450333046115eaa0ac9e0216565f945070e44573988ac",
        "reqSigs": 1,
        "type": "pubkeyhash",
        "addresses": [
          "mnq1g3YFxzaBc6GiNJLqByLQf3otJQFm8H"
        ]
      }
    },
    {
      "value": 4.49870894,
      "n": 1,
      "scriptPubKey": {
        "asm": "OP_DUP OP_HASH160 c01a7ca16b47be50cbdbc60724f701d52d751566 OP_EQUALVERIFY OP_CHECKSIG",
        "hex": "76a914c01a7ca16b47be50cbdbc60724f701d52d75156688ac",
        "reqSigs": 1,
        "type": "pubkeyhash",
        "addresses": [
          "my2hmDuD9XjmtQWFu9HyyNAsE5WGSDBKpQ"
        ]
      }
    }
  ],
  "hex": "010000000120925534261de4dcebb1ed5ab1b62bfe7a3ef968fb111dc2c910adfebc6e3bdf010000006b483045022100f50198f5ae66211a4f485190abe4dc7accdabe3bc214ebc9ea7069b97097d46e0220316a70a03014887086e335fc1b48358d46cd6bdc9af3b57c109c94af76fc915101210316cff587a01a2736d5e12e53551b18d73780b83c3bfb4fcf209c869b11b6415effffffff0220a10700000000001976a91450333046115eaa0ac9e0216565f945070e44573988ac2e7cd01a000000001976a914c01a7ca16b47be50cbdbc60724f701d52d75156688ac00000000",
  "blockhash": "000000000000015d6077a411a8f5cc95caf775ccf11c54e27df75ce58d187313",
  "confirmations": 644920,
  "time": 1472857006,
  "blocktime": 1472857006
}
