{
  "txid": "0a510f49749aaaa2638048132eafea959dd8e47e79332dbcb2a14189870e3145",
  "hash": "0a510f49749aaaa2638048132eafea959dd8e47e79332dbcb2a14189870e3145",
  "version": 1,
  "size": 224,
  "vsize": 224,
  "weight": 896,
  "locktime": 926148,
  "vin": [
    {
      "txid": "3f51d5cb5ec0fb6d50fc9545ffca8a87aebff629786e0ef8fc2b2aa1015556ee",
      "vout": 1,
      "scriptSig": {
        "asm": "3045022100ace7ab8ea157d33ce61f7952b1c59963fbe4ec71e28b9da4f988178852f8e8690220633e4e5488e5a90b1558b8fa4c55709baad0021f496f120c109b6059482f1f45[ALL] 02ba06a7e1dc9710523bb19298c126e95086bd86e6a70ea259bdc03a9426eabeec",
        "hex": "483045022100ace7ab8ea157d33ce61f7952b1c59963fbe4ec71e28b9da4f988178852f8e8690220633e4e5488e5a90b1558b8fa4c55709baad0021f496f120c109b6059482f1f45012102ba06a7e1dc9710523bb19298c126e95086bd86e6a70ea259bdc03a9426eabeec"
      },
      "sequence": 4294967294
    }
  ],
  "vout": [
    {
      "value": 1.65452140,
      "n": 0,
      "scriptPubKey": {
        "asm": "OP_DUP OP_HASH160 ac4c878cb776338d6eebd95d35a5abcd8a6bb378 OP_EQUALVERIFY OP_CHECKSIG",
        "hex": "76a914ac4c878cb776338d6eebd95d35a5abcd8a6bb37888ac",
        "reqSigs": 1,
        "type": "pubkeyhash",
        "addresses": [
          "mwDzCQoCXQryGthPmBLsMFwcFv7tnYe2n9"
        ]
      }
    },
    {
      "value": 0.20021300,
      "n": 1,
      "scriptPubKey": {
        "asm": "OP_HASH160 feb8a29635c56d9cd913122f90678756bf238876 OP_EQUAL",
        "hex": "a914feb8a29635c56d9cd913122f90678756bf23887687",
        "reqSigs": 1,
        "type": "scripthash",
        "addresses": [
          "2NGU4ogScHEHEpReUzi9RB2ha58KAFnkFyk"
        ]
      }
    }
  ],
  "hex": "0100000001ee565501a12a2bfcf80e6e7829f6bfae878acaff4595fc506dfbc05ecbd5513f010000006b483045022100ace7ab8ea157d33ce61f7952b1c59963fbe4ec71e28b9da4f988178852f8e8690220633e4e5488e5a90b1558b8fa4c55709baad0021f496f120c109b6059482f1f45012102ba06a7e1dc9710523bb19298c126e95086bd86e6a70ea259bdc03a9426eabeecfeffffff026c99dc09000000001976a914ac4c878cb776338d6eebd95d35a5abcd8a6bb37888ac348031010000000017a914feb8a29635c56d9cd913122f90678756bf23887687c4210e00",
  "blockhash": "00000000000f29afbf5445e3199da11c16cadb835fcf9c8043fefc16056d0835",
  "confirmations": 645216,
  "time": 1472682352,
  "blocktime": 1472682352
}
