{
  "txid": "1ec748398ab3cf3790345d3e729a039736c6dc1deb7d80baf04dcf11c73dc75d",
  "hash": "1ec748398ab3cf3790345d3e729a039736c6dc1deb7d80baf04dcf11c73dc75d",
  "version": 1,
  "size": 109,
  "vsize": 109,
  "weight": 436,
  "locktime": 0,
  "vin": [
    {
      "coinbase": "0300c102024608062f503253482f",
      "sequence": 4294967295
    }
  ],
  "vout": [
    {
      "value": 50.00120000,
      "n": 0,
      "scriptPubKey": {
        "asm": "02e769e60137a4df6b0df8ebd387cca44c4c57ae74cc0114a8e8317c8f3bfd85e9 OP_CHECKSIG",
        "hex": "2102e769e60137a4df6b0df8ebd387cca44c4c57ae74cc0114a8e8317c8f3bfd85e9ac",
        "reqSigs": 1,
        "type": "pubkey",
        "addresses": [
          "n437TsuqkhnAP9xJLz8cheuLT4Bbhsi2rQ"
        ]
      }
    }
  ],
  "hex": "01000000010000000000000000000000000000000000000000000000000000000000000000ffffffff0e0300c102024608062f503253482fffffffff01c0c6072a01000000232102e769e60137a4df6b0df8ebd387cca44c4c57ae74cc0114a8e8317c8f3bfd85e9ac00000000",
  "blockhash": "00000000fd3ceb2404ff07a785c7fdcc76619edc8ed61bd25134eaa22084366a",
  "confirmations": 27447,
  "time": 1391850896,
  "blocktime": 1391850896
}
