{
  "txid": "1f371c2c0e0d6813de3aa2e9d1d53573f96114fcedd5361848397b2b72c363a5",
  "hash": "1f371c2c0e0d6813de3aa2e9d1d53573f96114fcedd5361848397b2b72c363a5",
  "version": 1,
  "size": 376,
  "vsize": 376,
  "weight": 1504,
  "locktime": 0,
  "vin": [
    {
      "txid": "38e8705059a16ff4b2732f63ba03527020ec47270545c9c18a03ccef2675604b",
      "vout": 0,
      "scriptSig": {
        "asm": "304502202882bc141690336af29ef0ae7b9a54ec19f52bb9dcca5a297fab1e9af5e1a5d8022100d5f29f9ecb9466b06346182741896c7b4e8e4eae202840caa9874ecc2070a4f1[ALL] 035d09cbe37219e3a9d29c8316459ce637d834b1e5d481eb91a05ba353b357ffbd",
        "hex": "48304502202882bc141690336af29ef0ae7b9a54ec19f52bb9dcca5a297fab1e9af5e1a5d8022100d5f29f9ecb9466b06346182741896c7b4e8e4eae202840caa9874ecc2070a4f10121035d09cbe37219e3a9d29c8316459ce637d834b1e5d481eb91a05ba353b357ffbd"
      },
      "sequence": 4294967295
    }
  ],
  "vout": [
    {
      "value": 0.05000000,
      "n": 0,
      "scriptPubKey": {
        "asm": "1 03ef52804ac7a809abbd7d34209e1f5f8209f8bddad0a5bd2569d617f7fa3c3e48 1 OP_CHECKMULTISIG",
        "hex": "512103ef52804ac7a809abbd7d34209e1f5f8209f8bddad0a5bd2569d617f7fa3c3e4851ae",
        "reqSigs": 1,
        "type": "multisig",
        "addresses": [
          "mut3XGS6bmGJqs7E8fFGvtcfFNcYkihNWV"
        ]
      }
    },
    {
      "value": 0.05000000,
      "n": 1,
      "scriptPubKey": {
        "asm": "1 03ef52804ac7a809abbd7d34209e1f5f8209f8bddad0a5bd2569d617f7fa3c3e48 1 OP_CHECKMULTISIG",
        "hex": "512103ef52804ac7a809abbd7d34209e1f5f8209f8bddad0a5bd2569d617f7fa3c3e4851ae",
        "reqSigs": 1,
        "type": "multisig",
        "addresses": [
          "mut3XGS6bmGJqs7E8fFGvtcfFNcYkihNWV"
        ]
      }
    },
    {
      "value": 0.05000000,
      "n": 2,
      "scriptPubKey": {
        "asm": "1 03ef52804ac7a809abbd7d34209e1f5f8209f8bddad0a5bd2569d617f7fa3c3e48 1 OP_CHECKMULTISIG",
        "hex": "512103ef52804ac7a809abbd7d34209e1f5f8209f8bddad0a5bd2569d617f7fa3c3e4851ae",
        "reqSigs": 1,
        "type": "multisig",
        "addresses": [
          "mut3XGS6bmGJqs7E8fFGvtcfFNcYkihNWV"
        ]
      }
    },
    {
      "value": 0.19840000,
      "n": 3,
      "scriptPubKey": {
        "asm": "OP_DUP OP_HASH160 f4fa1cc7de742d135ea82c17adf0bb9cf5f4fb83 OP_EQUALVERIFY OP_CHECKSIG",
        "hex": "76a914f4fa1cc7de742d135ea82c17adf0bb9cf5f4fb8388ac",
        "reqSigs": 1,
        "type": "pubkeyhash",
        "addresses": [
          "n3rGnybT4HdoCUhcByDubvTBA7CEWfWoyg"
        ]
      }
    },
    {
      "value": 0.05000000,
      "n": 4,
      "scriptPubKey": {
        "asm": "1 03ef52804ac7a809abbd7d34209e1f5f8209f8bddad0a5bd2569d617f7fa3c3e48 1 OP_CHECKMULTISIG",
        "hex": "512103ef52804ac7a809abbd7d34209e1f5f8209f8bddad0a5bd2569d617f7fa3c3e4851ae",
        "reqSigs": 1,
        "type": "multisig",
        "addresses": [
          "mut3XGS6bmGJqs7E8fFGvtcfFNcYkihNWV"
        ]
      }
    }
  ],
  "hex": "01000000014b607526efcc038ac1c945052747ec20705203ba632f73b2f46fa1595070e838000000006b48304502202882bc141690336af29ef0ae7b9a54ec19f52bb9dcca5a297fab1e9af5e1a5d8022100d5f29f9ecb9466b06346182741896c7b4e8e4eae202840caa9874ecc2070a4f10121035d09cbe37219e3a9d29c8316459ce637d834b1e5d481eb91a05ba353b357ffbdffffffff05404b4c000000000025512103ef52804ac7a809abbd7d34209e1f5f8209f8bddad0a5bd2569d617f7fa3c3e4851ae404b4c000000000025512103ef52804ac7a809abbd7d34209e1f5f8209f8bddad0a5bd2569d617f7fa3c3e4851ae404b4c000000000025512103ef52804ac7a809abbd7d34209e1f5f8209f8bddad0a5bd2569d617f7fa3c3e4851ae00bc2e01000000001976a914f4fa1cc7de742d135ea82c17adf0bb9cf5f4fb8388ac404b4c000000000025512103ef52804ac7a809abbd7d34209e1f5f8209f8bddad0a5bd2569d617f7fa3c3e4851ae00000000",
  "blockhash": "0000000001d8f780ab08784c87641c927708b80d9f6f7ddce646542a5db2c573",
  "confirmations": 242518,
  "time": 1358707042,
  "blocktime": 1358707042
}
