{
  "txid": "226351667e09bd4b4b3aa76caf6df5836615d25f365025a51e7a0d63585fa203",
  "hash": "226351667e09bd4b4b3aa76caf6df5836615d25f365025a51e7a0d63585fa203",
  "version": 1,
  "size": 373,
  "vsize": 373,
  "weight": 1492,
  "locktime": 0,
  "vin": [
    {
      "txid": "56d46626e4d83d862c56019d3e6b57a6d84ed83baf12d61447911ab064a27dba",
      "vout": 1,
      "scriptSig": {
        "asm": "304402204a33532929d1f96f93eb4533ba48ec2d2078ba635edc85fb22f1f0418b41dcda02203796c3067bb9a1771eb7ee189d4459a87f5e437389c80f48ca6432b58976fec4[ALL] 03f7a897e4dbecab2264b21917f90664ea8256189ea725d28740cf7ba5d85b5763",
        "hex": "47304402204a33532929d1f96f93eb4533ba48ec2d2078ba635edc85fb22f1f0418b41dcda02203796c3067bb9a1771eb7ee189d4459a87f5e437389c80f48ca6432b58976fec4012103f7a897e4dbecab2264b21917f90664ea8256189ea725d28740cf7ba5d85b5763"
      },
      "sequence": 4294967295
    },
    {
      "txid": "56d46626e4d83d862c56019d3e6b57a6d84ed83baf12d61447911ab064a27dba",
      "vout": 0,
      "scriptSig": {
        "asm": "3045022100a2d79b9d09ebce0c0562be11c892e08a10389e4df114f68f71657fa7e6b8e5ef02207147b597d5d53283a9da0a9acc491d20f430d9d09ea3c78f4b26433760e67ab6[ALL] 03f7a897e4dbecab2264b21917f90664ea8256189ea725d28740cf7ba5d85b5763",
        "hex": "483045022100a2d79b9d09ebce0c0562be11c892e08a10389e4df114f68f71657fa7e6b8e5ef02207147b597d5d53283a9da0a9acc491d20f430d9d09ea3c78f4b26433760e67ab6012103f7a897e4dbecab2264b21917f90664ea8256189ea725d28740cf7ba5d85b5763"
      },
      "sequence": 4294967295
    }
  ],
  "vout": [
    {
      "value": 1.00000000,
      "n": 0,
      "scriptPubKey": {
        "asm": "OP_DUP OP_HASH160 913bcc2be49cb534c20474c4dee1e9c4c317e7eb OP_EQUALVERIFY OP_CHECKSIG",
        "hex": "76a914913bcc2be49cb534c20474c4dee1e9c4c317e7eb88ac",
        "reqSigs": 1,
        "type": "pubkeyhash",
        "addresses": [
          "mtksug9EwqzUeKK8Auv4CwkE4mPpcAowLB"
        ]
      }
    },
    {
      "value": 0.16559999,
      "n": 1,
      "scriptPubKey": {
        "asm": "OP_DUP OP_HASH160 913bcc2be49cb534c20474c4dee1e9c4c317e7eb OP_EQUALVERIFY OP_CHECKSIG",
        "hex": "76a914913bcc2be49cb534c20474c4dee1e9c4c317e7eb88ac",
        "reqSigs": 1,
        "type": "pubkeyhash",
        "addresses": [
          "mtksug9EwqzUeKK8Auv4CwkE4mPpcAowLB"
        ]
      }
    }
  ],
  "hex": "0100000002ba7da264b01a914714d612af3bd84ed8a6576b3e9d01562c863dd8e42666d456010000006a47304402204a33532929d1f96f93eb4533ba48ec2d2078ba635edc85fb22f1f0418b41dcda02203796c3067bb9a1771eb7ee189d4459a87f5e437389c80f48ca6432b58976fec4012103f7a897e4dbecab2264b21917f90664ea8256189ea725d28740cf7ba5d85b5763ffffffffba7da264b01a914714d612af3bd84ed8a6576b3e9d01562c863dd8e42666d456000000006b483045022100a2d79b9d09ebce0c0562be11c892e08a10389e4df114f68f71657fa7e6b8e5ef02207147b597d5d53283a9da0a9acc491d20f430d9d09ea3c78f4b26433760e67ab6012103f7a897e4dbecab2264b21917f90664ea8256189ea725d28740cf7ba5d85b5763ffffffff0200e1f505000000001976a914913bcc2be49cb534c20474c4dee1e9c4c317e7eb88ac7faffc00000000001976a914913bcc2be49cb534c20474c4dee1e9c4c317e7eb88ac00000000",
  "blockhash": "0000000000000060c29e4129750e5b84cd9136fbc754015f33a279966e5b7e92",
  "confirmations": 644952,
  "time": 1472840946,
  "blocktime": 1472840946
}
