{
  "txid": "28934e7f3b8ae2b0a0d75463a5313aa3ccea5522e226eee58e4f46ff9f2b98db",
  "hash": "28934e7f3b8ae2b0a0d75463a5313aa3ccea5522e226eee58e4f46ff9f2b98db",
  "version": 1,
  "size": 374,
  "vsize": 374,
  "weight": 1496,
  "locktime": 0,
  "vin": [
    {
      "txid": "830fadd1c80d9fcbee9c5398e5ee5acad3c125a273c836de02a622342ea63961",
      "vout": 1,
      "scriptSig": {
        "asm": "3045022100ad9f32b4a0a2ddc19b5a74eba78123e57616f1b3cfd72ce68c03ea35a3dda1f002200dbd22aa6da17213df5e70dfc3b2611d40f70c98ed9626aa5e2cde9d97461f0a[ALL] 03ddb295d2f1e8319187738fb4b230fdd9aa29d0e01647f69f6d770b9ab24eea90",
        "hex": "483045022100ad9f32b4a0a2ddc19b5a74eba78123e57616f1b3cfd72ce68c03ea35a3dda1f002200dbd22aa6da17213df5e70dfc3b2611d40f70c98ed9626aa5e2cde9d97461f0a012103ddb295d2f1e8319187738fb4b230fdd9aa29d0e01647f69f6d770b9ab24eea90"
      },
      "sequence": 4294967295
    },
    {
      "txid": "aeee59002c3622a5e1858c946d8cb2c2d51450525619670d0420f07cc8823c98",
      "vout": 1,
      "scriptSig": {
        "asm": "30450221009ca544274c786d30a5d5d25e17759201ea16d3aedddf0b9e9721246f7ef6b32e02202cfa5564b6e87dfd9fd98957820e4d4e6238baeb0f65fe305d91506bb13f5f4f[ALL] 03c99113deac0d5d044e3ac0346abc02501542af8c8d3759f1382c72ff84e704f7",
        "hex": "4830450221009ca544274c786d30a5d5d25e17759201ea16d3aedddf0b9e9721246f7ef6b32e02202cfa5564b6e87dfd9fd98957820e4d4e6238baeb0f65fe305d91506bb13f5f4f012103c99113deac0d5d044e3ac0346abc02501542af8c8d3759f1382c72ff84e704f7"
      },
      "sequence": 4294967295
    }
  ],
  "vout": [
    {
      "value": 0.03000000,
      "n": 0,
      "scriptPubKey": {
        "asm": "OP_DUP OP_HASH160 ae19d27efe12f5a886dc79af37ad6805db6f922d OP_EQUALVERIFY OP_CHECKSIG",
        "hex": "76a914ae19d27efe12f5a886dc79af37ad6805db6f922d88ac",
        "reqSigs": 1,
        "type": "pubkeyhash",
        "addresses": [
          "mwPWobQBf7cVqfhJfAtMeEPGxxSrhC6NxU"
        ]
      }
    },
    {
      "value": 0.02150000,
      "n": 1,
      "scriptPubKey": {
        "asm": "OP_DUP OP_HASH160 3b8d051d37a07ea1042067e93efe63dbf73920b9 OP_EQUALVERIFY OP_CHECKSIG",
        "hex": "76a9143b8d051d37a07ea1042067e93efe63dbf73920b988ac",
        "reqSigs": 1,
        "type": "pubkeyhash",
        "addresses": [
          "mkwq6cSLfHbPZwixx6L2nPkK7y6GWyqa6A"
        ]
      }
    }
  ],
  "hex": "01000000026139a62e3422a602de36c873a225c1d3ca5aeee598539ceecb9f0dc8d1ad0f83010000006b483045022100ad9f32b4a0a2ddc19b5a74eba78123e57616f1b3cfd72ce68c03ea35a3dda1f002200dbd22aa6da17213df5e70dfc3b2611d40f70c98ed9626aa5e2cde9d97461f0a012103ddb295d2f1e8319187738fb4b230fdd9aa29d0e01647f69f6d770b9ab24eea90ffffffff983c82c87cf020040d671956525014d5c2b28c6d948c85e1a522362c0059eeae010000006b4830450221009ca544274c786d30a5d5d25e17759201ea16d3aedddf0b9e9721246f7ef6b32e02202cfa5564b6e87dfd9fd98957820e4d4e6238baeb0f65fe305d91506bb13f5f4f012103c99113deac0d5d044e3ac0346abc02501542af8c8d3759f1382c72ff84e704f7ffffffff02c0c62d00000000001976a914ae19d27efe12f5a886dc79af37ad6805db6f922d88ac70ce2000000000001976a9143b8d051d37a07ea1042067e93efe63dbf73920b988ac00000000",
  "blockhash": "00000000fd3ceb2404ff07a785c7fdcc76619edc8ed61bd25134eaa22084366a",
  "confirmations": 27493,
  "time": 1391850896,
  "blocktime": 1391850896
}
