{
  "txid": "2b9baddbd2861c663978a98c6c3c7648e1cd5c41b451f4a35b7851dd4786d9d3",
  "hash": "3356a1abf6e1fdf9858a704c794aea3c4dfa97848b4b5390530204c7382fc6fc",
  "version": 1,
  "size": 265,
  "vsize": 238,
  "weight": 952,
  "locktime": 0,
  "vin": [
    {
      "coinbase": "0315230e0004ae03ca57043e3d1e1d0c8796bf579aef0c0000000000122f4e696e6a61506f6f6c2f5345475749542f",
      "sequence": 4294967295
    }
  ],
  "vout": [
    {
      "value": 3.12551300,
      "n": 0,
      "scriptPubKey": {
        "asm": "OP_DUP OP_HASH160 876fbb82ec05caa6af7a3b5e5a983aae6c6cc6d6 OP_EQUALVERIFY OP_CHECKSIG",
        "hex": "76a914876fbb82ec05caa6af7a3b5e5a983aae6c6cc6d688ac",
        "reqSigs": 1,
        "type": "pubkeyhash",
        "addresses": [
          "mss5NFyX96ix4erFMamR1gK3SsvUSMWcjE"
        ]
      }
    },
    {
      "value": 0.00000000,
      "n": 1,
      "scriptPubKey": {
        "asm": "OP_RETURN aa21a9ed5c748e121c0fe146d973a4ac26fa4a68b0549d46ee22d25f50a5e46fe1b377ee",
        "hex": "6a24aa21a9ed5c748e121c0fe146d973a4ac26fa4a68b0549d46ee22d25f50a5e46fe1b377ee",
        "type": "nulldata"
      }
    },
    {
      "value": 0.00000000,
      "n": 2,
      "scriptPubKey": {
        "asm": "2 3 [error]",
        "hex": "52534b424c4f434b3acd16772ad61a3c5f00287480b720f6035d5e54c9efc71be94bb5e3727f109090",
        "type": "nonstandard"
      }
    }
  ],
  "hex": "010000000001010000000000000000000000000000000000000000000000000000000000000000ffffffff2f0315230e0004ae03ca57043e3d1e1d0c8796bf579aef0c0000000000122f4e696e6a61506f6f6c2f5345475749542fffffffff038427a112000000001976a914876fbb82ec05caa6af7a3b5e5a983aae6c6cc6d688ac0000000000000000266a24aa21a9ed5c748e121c0fe146d973a4ac26fa4a68b0549d46ee22d25f50a5e46fe1b377ee00000000000000002952534b424c4f434b3acd16772ad61a3c5f00287480b720f6035d5e54c9efc71be94bb5e3727f1090900120000000000000000000000000000000000000000000000000000000000000000000000000",
  "blockhash": "000000000000015d6077a411a8f5cc95caf775ccf11c54e27df75ce58d187313",
  "confirmations": 644920,
  "time": 1472857006,
  "blocktime": 1472857006
}
