{
  "txid": "2c21d40599523d6d24ed1cfe06346d0080362dc1d13f86d4a7f06931c73ce0e0",
  "hash": "0e18b1460f8c2008c9709107ef0b06c2f1dca5381b047f79554f03aa60c101a8",
  "version": 2,
  "size": 234,
  "vsize": 120,
  "weight": 480,
  "locktime": 0,
  "vin": [
    {
      "txid": "c52ca2fa069190af53b20a905de80debd58db8942419e7f54fba0639467809d2",
      "vout": 1,
      "scriptSig": {
        "asm": "",
        "hex": ""
      },
      "txinwitness": [
        "304402207d7ca96134f2bcfdd6b536536fdd39ad17793632016936f777ebb32c22943fda02206014d2fb8a6aa58279797f861042ba604ebd2f8f61e5bddbd9d3be5a245047b201",
        "",
        "632103eeaeba7ce5dc2470221e9517fb498e8d6bd4e73b85b8be655196972eb9ccd5566754b2752103a40b74d43df244799d041f32ce1ad515a6cd99501701540e38750d883ae21d3a68ac"
      ],
      "sequence": 4
    }
  ],
  "vout": [
    {
      "value": 0.16742215,
      "n": 0,
      "scriptPubKey": {
        "asm": "0 46c29eabe8208a33aa1023c741fa79aa92e881ff",
        "hex": "001446c29eabe8208a33aa1023c741fa79aa92e881ff",
        "reqSigs": 1,
        "type": "witness_v0_keyhash",
        "addresses": [
          "tb1qgmpfa2lgyz9r82ssy0r5r7ne42fw3q0l4cqtdg"
        ]
      }
    }
  ],
  "hex": "02000000000101d20978463906ba4ff5e7192494b88dd5eb0de85d900ab253af909106faa22cc5010000000004000000014777ff000000000016001446c29eabe8208a33aa1023c741fa79aa92e881ff0347304402207d7ca96134f2bcfdd6b536536fdd39ad17793632016936f777ebb32c22943fda02206014d2fb8a6aa58279797f861042ba604ebd2f8f61e5bddbd9d3be5a245047b201004b632103eeaeba7ce5dc2470221e9517fb498e8d6bd4e73b85b8be655196972eb9ccd5566754b2752103a40b74d43df244799d041f32ce1ad515a6cd99501701540e38750d883ae21d3a68ac00000000",
  "blockhash": "000000006f27ddfe1dd680044a34548f41bed47eba9e6f0b310da21423bc5f33",
  "confirmations": 309125,
  "time": 1517700447,
  "blocktime": 1517700447
}
