{
  "txid": "32a52be869fc148b6104244859c879f1319cfd86e89e6f7fc1ffaaf518fa14be",
  "hash": "32a52be869fc148b6104244859c879f1319cfd86e89e6f7fc1ffaaf518fa14be",
  "version": 1,
  "size": 665,
  "vsize": 665,
  "weight": 2660,
  "locktime": 0,
  "vin": [
    {
      "txid": "f56da6d0bb5807561c29093066edd1d505c2fa4ae89bb895c4318481d360fd3f",
      "vout": 1,
      "scriptSig": {
        "asm": "3045022100f344607de9df42049688dcae8ff1db34c0c7cd25ec05516e30d2bc8f12ac9b2f022060b648f6a21745ea6d9782e17bcc4277b5808326488a1f40d41e125879723d3a[ALL] 03f7a897e4dbecab2264b21917f90664ea8256189ea725d28740cf7ba5d85b5763",
        "hex": "483045022100f344607de9df42049688dcae8ff1db34c0c7cd25ec05516e30d2bc8f12ac9b2f022060b648f6a21745ea6d9782e17bcc4277b5808326488a1f40d41e125879723d3a012103f7a897e4dbecab2264b21917f90664ea8256189ea725d28740cf7ba5d85b5763"
      },
      "sequence": 4294967295
    },
    {
      "txid": "926ba916aa1487be7e500477e57cccf2ed27ce65baf11e73840fe3cc019437a5",
      "vout": 1,
      "scriptSig": {
        "asm": "3044022020c37a63bf4d7f564c2192528709b6a38ab8271bd96898c6c2e335e5208661580220435c6f1ad4d9305d2c0a818b2feb5e45d443f2f162c0f61953a14d097fd07064[ALL] 03f7a897e4dbecab2264b21917f90664ea8256189ea725d28740cf7ba5d85b5763",
        "hex": "473044022020c37a63bf4d7f564c2192528709b6a38ab8271bd96898c6c2e335e5208661580220435c6f1ad4d9305d2c0a818b2feb5e45d443f2f162c0f61953a14d097fd07064012103f7a897e4dbecab2264b21917f90664ea8256189ea725d28740cf7ba5d85b5763"
      },
      "sequence": 4294967295
    },
    {
      "txid": "ce43f8403c00606c24004bcaff1291091a7395085184312cf15f2393e131e770",
      "vout": 0,
      "scriptSig": {
        "asm": "3044022053760f74c29a879e30a17b5f03a5bb057a5751a39f86fa6ecdedc36a1b7db04c022041d41c9b95f00d2d10a0373322a9025dba66c942196bc9d8adeb0e12d3024728[ALL] 03f7a897e4dbecab2264b21917f90664ea8256189ea725d28740cf7ba5d85b5763",
        "hex": "473044022053760f74c29a879e30a17b5f03a5bb057a5751a39f86fa6ecdedc36a1b7db04c022041d41c9b95f00d2d10a0373322a9025dba66c942196bc9d8adeb0e12d3024728012103f7a897e4dbecab2264b21917f90664ea8256189ea725d28740cf7ba5d85b5763"
      },
      "sequence": 4294967295
    },
    {
      "txid": "6f9ff0ce05a22b70346c0357f285c98f401a3ffe18fc858e9c37503e1ba7b766",
      "vout": 0,
      "scriptSig": {
        "asm": "30440220499bf9e2db3db6e930228d0661395f65431acae466634d098612fd80b08459ee022040e069fc9e3c60009f521cef54c38aadbd1251aee37940e6018aadb10f194d6a[ALL] 03f7a897e4dbecab2264b21917f90664ea8256189ea725d28740cf7ba5d85b5763",
        "hex": "4730440220499bf9e2db3db6e930228d0661395f65431acae466634d098612fd80b08459ee022040e069fc9e3c60009f521cef54c38aadbd1251aee37940e6018aadb10f194d6a012103f7a897e4dbecab2264b21917f90664ea8256189ea725d28740cf7ba5d85b5763"
      },
      "sequence": 4294967295
    }
  ],
  "vout": [
    {
      "value": 1.00000000,
      "n": 0,
      "scriptPubKey": {
        "asm": "OP_HASH160 8fc37ad460fdfbd2b44fe446f6e3071a4f64faa6 OP_EQUAL",
        "hex": "a9148fc37ad460fdfbd2b44fe446f6e3071a4f64faa687",
        "reqSigs": 1,
        "type": "scripthash",
        "addresses": [
          "2N6MNntc1ypmkYroY8qU6HUYnBQTnDqcUNR"
        ]
      }
    },
    {
      "value": 1.92889999,
      "n": 1,
      "scriptPubKey": {
        "asm": "OP_DUP OP_HASH160 913bcc2be49cb534c20474c4dee1e9c4c317e7eb OP_EQUALVERIFY OP_CHECKSIG",
        "hex": "76a914913bcc2be49cb534c20474c4dee1e9c4c317e7eb88ac",
        "reqSigs": 1,
        "type": "pubkeyhash",
        "addresses": [
          "mtksug9EwqzUeKK8Auv4CwkE4mPpcAowLB"
        ]
      }
    }
  ],
  "hex": "01000000043ffd60d3818431c495b89be84afac205d5d1ed663009291c560758bbd0a66df5010000006b483045022100f344607de9df42049688dcae8ff1db34c0c7cd25ec05516e30d2bc8f12ac9b2f022060b648f6a21745ea6d9782e17bcc4277b5808326488a1f40d41e125879723d3a012103f7a897e4dbecab2264b21917f90664ea8256189ea725d28740cf7ba5d85b5763ffffffffa5379401cce30f84731ef1ba65ce27edf2cc7ce57704507ebe8714aa16a96b92010000006a473044022020c37a63bf4d7f564c2192528709b6a38ab8271bd96898c6c2e335e5208661580220435c6f1ad4d9305d2c0a818b2feb5e45d443f2f162c0f61953a14d097fd07064012103f7a897e4dbecab2264b21917f90664ea8256189ea725d28740cf7ba5d85b5763ffffffff70e731e193235ff12c3184510895731a099112ffca4b00246c60003c40f843ce000000006a473044022053760f74c29a879e30a17b5f03a5bb057a5751a39f86fa6ecdedc36a1b7db04c022041d41c9b95f00d2d10a0373322a9025dba66c942196bc9d8adeb0e12d3024728012103f7a897e4dbecab2264b21917f90664ea8256189ea725d28740cf7ba5d85b5763ffffffff66b7a71b3e50379c8e85fc18fe3f1a408fc985f257036c34702ba205cef09f6f000000006a4730440220499bf9e2db3db6e930228d0661395f65431acae466634d098612fd80b08459ee022040e069fc9e3c60009f521cef54c38aadbd1251aee37940e6018aadb10f194d6a012103f7a897e4dbecab2264b21917f90664ea8256189ea725d28740cf7ba5d85b5763ffffffff0200e1f5050000000017a9148fc37ad460fdfbd2b44fe446f6e3071a4f64faa6878f447f0b000000001976a914913bcc2be49cb534c20474c4dee1e9c4c317e7eb88ac00000000",
  "blockhash": "000000000000015d6077a411a8f5cc95caf775ccf11c54e27df75ce58d187313",
  "confirmations": 644920,
  "time": 1472857006,
  "blocktime": 1472857006
}
