{
  "txid": "4cd1404b266feff0c17f0c5511c32bac3222247595bd28215e213d8367b204c9",
  "hash": "4cd1404b266feff0c17f0c5511c32bac3222247595bd28215e213d8367b204c9",
  "version": 1,
  "size": 166,
  "vsize": 166,
  "weight": 664,
  "locktime": 0,
  "vin": [
    {
      "txid": "acd547b4d0fc3ef264c029ba2917f0aae4c7f0786e0f028145d14b17f853bc34",
      "vout": 0,
      "scriptSig": {
        "asm": "304402206d6f84d50210650083bd4b00013f57067c97f0efaef5da8364d1cc0784c80de8022003eee45ab96193033a9db3512f358849aa7285888cf5a089b1d84d174cd6f4c1[ALL]",
        "hex": "47304402206d6f84d50210650083bd4b00013f57067c97f0efaef5da8364d1cc0784c80de8022003eee45ab96193033a9db3512f358849aa7285888cf5a089b1d84d174cd6f4c101"
      },
      "sequence": 4294967295
    }
  ],
  "vout": [
    {
      "value": 16.46000000,
      "n": 0,
      "scriptPubKey": {
        "asm": "OP_DUP OP_HASH160 263f2a70a7278dfb2ea8c06c841db97c52797c87 OP_EQUALVERIFY OP_CHECKSIG",
        "hex": "76a914263f2a70a7278dfb2ea8c06c841db97c52797c8788ac",
        "reqSigs": 1,
        "type": "pubkeyhash",
        "addresses": [
          "mj1BeBLTKkZkEeyj6SZtUaxLykBhonzBKh"
        ]
      }
    },
    {
      "value": 33.54000000,
      "n": 1,
      "scriptPubKey": {
        "asm": "",
        "hex": "",
        "type": "nonstandard"
      }
    }
  ],
  "hex": "010000000134bc53f8174bd14581020f6e78f0c7e4aaf01729ba29c064f23efcd0b447d5ac000000004847304402206d6f84d50210650083bd4b00013f57067c97f0efaef5da8364d1cc0784c80de8022003eee45ab96193033a9db3512f358849aa7285888cf5a089b1d84d174cd6f4c101ffffffff0280f71b62000000001976a914263f2a70a7278dfb2ea8c06c841db97c52797c8788ac80fae9c7000000000000000000",
  "blockhash": "00000000941f43c216ce3294be6869e4062afd51745d79ceae6fb95cde9124b9",
  "confirmations": 214975,
  "time": 1390068225,
  "blocktime": 1390068225
}
