{
  "txid": "5f0be77c5bba162290f74d01770dab8fb3b9c0a6fb9f02079de9505b6a1b2b35",
  "hash": "5f0be77c5bba162290f74d01770dab8fb3b9c0a6fb9f02079de9505b6a1b2b35",
  "version": 1,
  "size": 373,
  "vsize": 373,
  "weight": 1492,
  "locktime": 0,
  "vin": [
    {
      "txid": "dcf1e7987bd0e56aef07061d105c4d540c7d7f022ca8c4750c3f93d98c6e56be",
      "vout": 0,
      "scriptSig": {
        "asm": "3045022036a8cdfd5ea7ebc06c2bfb6e4f942bbf9a1caeded41680d11a3a9f5d8284abad022100cacb92a5be3f39e8bc14db1710910ef7b395fa1e18f45d41c28d914fcdde33be[ALL] 02bf59abf110b5131fae0a3ce1ec379329b4c896a6ae5d443edb68529cc2bc7816",
        "hex": "483045022036a8cdfd5ea7ebc06c2bfb6e4f942bbf9a1caeded41680d11a3a9f5d8284abad022100cacb92a5be3f39e8bc14db1710910ef7b395fa1e18f45d41c28d914fcdde33be012102bf59abf110b5131fae0a3ce1ec379329b4c896a6ae5d443edb68529cc2bc7816"
      },
      "sequence": 4294967295
    },
    {
      "txid": "90fc0d2cbfa6252df32f085516eefe156a4547488722e93fb2ce765b6467cf96",
      "vout": 0,
      "scriptSig": {
        "asm": "304402203471ca2001784a5ac0abab583581f2613523da47ec5f53df833c117b5abd81500220618a2847723d57324f2984678db556dbca1a72230fc7e39df04c2239942ba942[ALL] 02925c9794fd7bb9f8b29e207d5fc491b1150135a21f505041858889fa4edf436f",
        "hex": "47304402203471ca2001784a5ac0abab583581f2613523da47ec5f53df833c117b5abd81500220618a2847723d57324f2984678db556dbca1a72230fc7e39df04c2239942ba942012102925c9794fd7bb9f8b29e207d5fc491b1150135a21f505041858889fa4edf436f"
      },
      "sequence": 4294967295
    }
  ],
  "vout": [
    {
      "value": 0.01016940,
      "n": 0,
      "scriptPubKey": {
        "asm": "OP_DUP OP_HASH160 797fb8777d7991d8284d88bfd421ce520f0f8431 OP_EQUALVERIFY OP_CHECKSIG",
        "hex": "76a914797fb8777d7991d8284d88bfd421ce520f0f843188ac",
        "reqSigs": 1,
        "type": "pubkeyhash",
        "addresses": [
          "mrbP4SrJgn9ZuJXb8kyzB8Tw79BH5td9kR"
        ]
      }
    },
    {
      "value": 10.00000000,
      "n": 1,
      "scriptPubKey": {
        "asm": "OP_DUP OP_HASH160 6d10f3f592699265d10b106eda37c3ce793f7a85 OP_EQUALVERIFY OP_CHECKSIG",
        "hex": "76a9146d10f3f592699265d10b106eda37c3ce793f7a8588ac",
        "reqSigs": 1,
        "type": "pubkeyhash",
        "addresses": [
          "mqTeFsmynRPY75GtXv58ngvP9H8nTcNGUQ"
        ]
      }
    }
  ],
  "hex": "0100000002be566e8cd9933f0c75c4a82c027f7d0c544d5c101d0607ef6ae5d07b98e7f1dc000000006b483045022036a8cdfd5ea7ebc06c2bfb6e4f942bbf9a1caeded41680d11a3a9f5d8284abad022100cacb92a5be3f39e8bc14db1710910ef7b395fa1e18f45d41c28d914fcdde33be012102bf59abf110b5131fae0a3ce1ec379329b4c896a6ae5d443edb68529cc2bc7816ffffffff96cf67645b76ceb23fe922874847456a15feee1655082ff32d25a6bf2c0dfc90000000006a47304402203471ca2001784a5ac0abab583581f2613523da47ec5f53df833c117b5abd81500220618a2847723d57324f2984678db556dbca1a72230fc7e39df04c2239942ba942012102925c9794fd7bb9f8b29e207d5fc491b1150135a21f505041858889fa4edf436fffffffff026c840f00000000001976a914797fb8777d7991d8284d88bfd421ce520f0f843188ac00ca9a3b000000001976a9146d10f3f592699265d10b106eda37c3ce793f7a8588ac00000000",
  "blockhash": "00000000fd3ceb2404ff07a785c7fdcc76619edc8ed61bd25134eaa22084366a",
  "confirmations": 27551,
  "time": 1391850896,
  "blocktime": 1391850896
}
