{
  "txid": "62a972ba5593255dd4662d470dfb0a075cfac6302a70ceb44d07c9c04a6b9a28",
  "hash": "62a972ba5593255dd4662d470dfb0a075cfac6302a70ceb44d07c9c04a6b9a28",
  "version": 1,
  "size": 180,
  "vsize": 180,
  "weight": 720,
  "locktime": 0,
  "vin": [
    {
      "txid": "4852fe372ff7534c16713b3146bbc1e86379c70bea4d5c02fb1fa0112980a081",
      "vout": 1,
      "scriptSig": {
        "asm": "1",
        "hex": "51"
      },
      "sequence": 4294967295
    },
    {
      "txid": "4cd1404b266feff0c17f0c5511c32bac3222247595bd28215e213d8367b204c9",
      "vout": 1,
      "scriptSig": {
        "asm": "1",
        "hex": "51"
      },
      "sequence": 4294967295
    },
    {
      "txid": "75f7d5e99912875e88d667afb48021b0b74916539c518618a8db4966661509df",
      "vout": 0,
      "scriptSig": {
        "asm": "1",
        "hex": "51"
      },
      "sequence": 4294967295
    }
  ],
  "vout": [
    {
      "value": 34.14000000,
      "n": 0,
      "scriptPubKey": {
        "asm": "03bb52138972c48a132fc1f637858c5189607dd0f7fe40c4f20f6ad65f2d389ba4 OP_CHECKSIG",
        "hex": "2103bb52138972c48a132fc1f637858c5189607dd0f7fe40c4f20f6ad65f2d389ba4ac",
        "reqSigs": 1,
        "type": "pubkey",
        "addresses": [
          "muzjB2si6iYS5Nrf71YfGVap7jfBxuTPr2"
        ]
      }
    }
  ],
  "hex": "010000000381a0802911a01ffb025c4dea0bc77963e8c1bb46313b71164c53f72f37fe5248010000000151ffffffffc904b267833d215e2128bd9575242232ac2bc311550c7fc1f0ef6f264b40d14c010000000151ffffffffdf0915666649dba81886519c531649b7b02180b4af67d6885e871299e9d5f775000000000151ffffffff0180817dcb00000000232103bb52138972c48a132fc1f637858c5189607dd0f7fe40c4f20f6ad65f2d389ba4ac00000000",
  "blockhash": "00000000fd3ceb2404ff07a785c7fdcc76619edc8ed61bd25134eaa22084366a",
  "confirmations": 27447,
  "time": 1391850896,
  "blocktime": 1391850896
}
