{
  "txid": "6f9ff0ce05a22b70346c0357f285c98f401a3ffe18fc858e9c37503e1ba7b766",
  "hash": "6f9ff0ce05a22b70346c0357f285c98f401a3ffe18fc858e9c37503e1ba7b766",
  "version": 1,
  "size": 225,
  "vsize": 225,
  "weight": 900,
  "locktime": 0,
  "vin": [
    {
      "txid": "3343db9d019f22e47613ed763d197040e6953460e7fe9e57c016df32b4cfd71b",
      "vout": 1,
      "scriptSig": {
        "asm": "3044022058dd39019df64e0e54e13b19edf1539cc1eb064f532326c0ac8e90afac02a79f022015a6355e2e43a201053e017e903fb877018bd675ee694b8f3e48a357a54987d0[ALL] 037cc791eacc664941b9e70346a2812a410c989e0f36c96d8919c800832d884d23",
        "hex": "473044022058dd39019df64e0e54e13b19edf1539cc1eb064f532326c0ac8e90afac02a79f022015a6355e2e43a201053e017e903fb877018bd675ee694b8f3e48a357a54987d00121037cc791eacc664941b9e70346a2812a410c989e0f36c96d8919c800832d884d23"
      },
      "sequence": 4294967295
    }
  ],
  "vout": [
    {
      "value": 2.60000000,
      "n": 0,
      "scriptPubKey": {
        "asm": "OP_DUP OP_HASH160 913bcc2be49cb534c20474c4dee1e9c4c317e7eb OP_EQUALVERIFY OP_CHECKSIG",
        "hex": "76a914913bcc2be49cb534c20474c4dee1e9c4c317e7eb88ac",
        "reqSigs": 1,
        "type": "pubkeyhash",
        "addresses": [
          "mtksug9EwqzUeKK8Auv4CwkE4mPpcAowLB"
        ]
      }
    },
    {
      "value": 47.32756434,
      "n": 1,
      "scriptPubKey": {
        "asm": "OP_DUP OP_HASH160 721386b921c73e94d7af7f5db1695f91d1804710 OP_EQUALVERIFY OP_CHECKSIG",
        "hex": "76a914721386b921c73e94d7af7f5db1695f91d180471088ac",
        "reqSigs": 1,
        "type": "pubkeyhash",
        "addresses": [
          "mqv8idZZJisHaswwXRCRLQBXrXFCgh2tZN"
        ]
      }
    }
  ],
  "hex": "01000000011bd7cfb432df16c0579efee7603495e64070193d76ed1376e4229f019ddb4333010000006a473044022058dd39019df64e0e54e13b19edf1539cc1eb064f532326c0ac8e90afac02a79f022015a6355e2e43a201053e017e903fb877018bd675ee694b8f3e48a357a54987d00121037cc791eacc664941b9e70346a2812a410c989e0f36c96d8919c800832d884d23ffffffff0200497f0f000000001976a914913bcc2be49cb534c20474c4dee1e9c4c317e7eb88acd221181a010000001976a914721386b921c73e94d7af7f5db1695f91d180471088ac00000000",
  "blockhash": "000000000000001c88c9a404bc17c49cf2d59557d93f7f834932c063c875ad38",
  "confirmations": 645085,
  "time": 1472762986,
  "blocktime": 1472762986
}
