{
  "txid": "72825c94f6d3d6bb0560b0a9cc679c4a3490ac8887cfd68066a00e282d6d4a1e",
  "hash": "72825c94f6d3d6bb0560b0a9cc679c4a3490ac8887cfd68066a00e282d6d4a1e",
  "version": 1,
  "size": 548,
  "vsize": 548,
  "weight": 2192,
  "locktime": 0,
  "vin": [
    {
      "txid": "a5dd61326cbecca8300314980736fcf9a0ecef372b752a68e4aef423484a011a",
      "vout": 1,
      "scriptSig": {
        "asm": "0 30450220133d31efed127de04640b68d473640fd3fcd19e0c774cd2b024ce5f303d3764b022100ee9e2eb51436d7a2152dda0d53270f0c92cd64b777d2b07cdda3b99a661ac939[ALL]",
        "hex": "004830450220133d31efed127de04640b68d473640fd3fcd19e0c774cd2b024ce5f303d3764b022100ee9e2eb51436d7a2152dda0d53270f0c92cd64b777d2b07cdda3b99a661ac93901"
      },
      "sequence": 4294967295
    },
    {
      "txid": "1f371c2c0e0d6813de3aa2e9d1d53573f96114fcedd5361848397b2b72c363a5",
      "vout": 0,
      "scriptSig": {
        "asm": "0 304502206b9039c94ea116021c37ed2db7567ec99a2c43ac1ad518a83aef093f2b104dd2022100f7348bed92c7e451d327f25f84f6f06b8dda8cfb9aa5d67cc90194a9b8ff488f[ALL]",
        "hex": "0048304502206b9039c94ea116021c37ed2db7567ec99a2c43ac1ad518a83aef093f2b104dd2022100f7348bed92c7e451d327f25f84f6f06b8dda8cfb9aa5d67cc90194a9b8ff488f01"
      },
      "sequence": 4294967295
    },
    {
      "txid": "1f371c2c0e0d6813de3aa2e9d1d53573f96114fcedd5361848397b2b72c363a5",
      "vout": 2,
      "scriptSig": {
        "asm": "0 30440220779bc6feaef419934fef9df74d57bb2b014fa3709771d488f633de6e485d379c02204d4ed705c227eac0e977d59b4d83012ec524111ed1265746bdb297f976cddda6[ALL]",
        "hex": "004730440220779bc6feaef419934fef9df74d57bb2b014fa3709771d488f633de6e485d379c02204d4ed705c227eac0e977d59b4d83012ec524111ed1265746bdb297f976cddda601"
      },
      "sequence": 4294967295
    }
  ],
  "vout": [
    {
      "value": 0.04950000,
      "n": 0,
      "scriptPubKey": {
        "asm": "OP_DUP OP_HASH160 b73bfbe6cd7d619cb405aee9255f5f5f29578620 OP_EQUALVERIFY OP_CHECKSIG",
        "hex": "76a914b73bfbe6cd7d619cb405aee9255f5f5f2957862088ac",
        "reqSigs": 1,
        "type": "pubkeyhash",
        "addresses": [
          "mxDoovJB52SWDQVRZQiuZrb7SVRLVs9Ehz"
        ]
      }
    },
    {
      "value": 0.05000000,
      "n": 1,
      "scriptPubKey": {
        "asm": "2 02a7ae1e0971fc1689bd66d2a7296da3a1662fd21a53c9e38979e0f090a375c12d 022adb62335f41eb4e27056ac37d462cda5ad783fa8e0e526ed79c752475db285d 2 OP_CHECKMULTISIG",
        "hex": "522102a7ae1e0971fc1689bd66d2a7296da3a1662fd21a53c9e38979e0f090a375c12d21022adb62335f41eb4e27056ac37d462cda5ad783fa8e0e526ed79c752475db285d52ae",
        "reqSigs": 2,
        "type": "multisig",
        "addresses": [
          "n4gwVJAbx7rEyYUh7cHa5nVB7wPadkppMe",
          "mjzG1cRYMMTPv5D3NRtJ44mbDFSPrZf6oN"
        ]
      }
    },
    {
      "value": 0.05000000,
      "n": 2,
      "scriptPubKey": {
        "asm": "2 0279be667ef9dcbbac55a06295ce870b07029bfcdb2dce28d959f2815b16f81798 022adb62335f41eb4e27056ac37d462cda5ad783fa8e0e526ed79c752475db285d 2 OP_CHECKMULTISIG",
        "hex": "52210279be667ef9dcbbac55a06295ce870b07029bfcdb2dce28d959f2815b16f8179821022adb62335f41eb4e27056ac37d462cda5ad783fa8e0e526ed79c752475db285d52ae",
        "reqSigs": 2,
        "type": "multisig",
        "addresses": [
          "mrCDrCybB6J1vRfbwM5hemdJz73FwDBC8r",
          "mjzG1cRYMMTPv5D3NRtJ44mbDFSPrZf6oN"
        ]
      }
    }
  ],
  "hex": "01000000031a014a4823f4aee4682a752b37efeca0f9fc360798140330a8ccbe6c3261dda5010000004a004830450220133d31efed127de04640b68d473640fd3fcd19e0c774cd2b024ce5f303d3764b022100ee9e2eb51436d7a2152dda0d53270f0c92cd64b777d2b07cdda3b99a661ac93901ffffffffa563c3722b7b39481836d5edfc1461f97335d5d1e9a23ade13680d0e2c1c371f000000004a0048304502206b9039c94ea116021c37ed2db7567ec99a2c43ac1ad518a83aef093f2b104dd2022100f7348bed92c7e451d327f25f84f6f06b8dda8cfb9aa5d67cc90194a9b8ff488f01ffffffffa563c3722b7b39481836d5edfc1461f97335d5d1e9a23ade13680d0e2c1c371f0200000049004730440220779bc6feaef419934fef9df74d57bb2b014fa3709771d488f633de6e485d379c02204d4ed705c227eac0e977d59b4d83012ec524111ed1265746bdb297f976cddda601ffffffff03f0874b00000000001976a914b73bfbe6cd7d619cb405aee9255f5f5f2957862088ac404b4c000000000047522102a7ae1e0971fc1689bd66d2a7296da3a1662fd21a53c9e38979e0f090a375c12d21022adb62335f41eb4e27056ac37d462cda5ad783fa8e0e526ed79c752475db285d52ae404b4c00000000004752210279be667ef9dcbbac55a06295ce870b07029bfcdb2dce28d959f2815b16f8179821022adb62335f41eb4e27056ac37d462cda5ad783fa8e0e526ed79c752475db285d52ae00000000",
  "blockhash": "00000000729ec06f8412175c8a4105c32d6e748b037feb219baacb473b458cd8",
  "confirmations": 236421,
  "time": 1358708429,
  "blocktime": 1358708429
}
