{
  "txid": "7402a5a24a6a302e2a3ad9808aa2a776b824ae13a23fc09c860fa2aeabfb4bd9",
  "hash": "4da3003a98f8ea2a99b1cb24eccb6c02840182956c26153b0551679155465ddf",
  "version": 1,
  "size": 203,
  "vsize": 176,
  "weight": 704,
  "locktime": 0,
  "vin": [
    {
      "coinbase": "0352471300fe5f45765afe94690a000963676d696e6572343208000000000000000000",
      "sequence": 4294967295
    }
  ],
  "vout": [
    {
      "value": 0.78127940,
      "n": 0,
      "scriptPubKey": {
        "asm": "OP_DUP OP_HASH160 f2c25ac3d59f3d674b1d1d0a25c27339aaac0ba6 OP_EQUALVERIFY OP_CHECKSIG",
        "hex": "76a914f2c25ac3d59f3d674b1d1d0a25c27339aaac0ba688ac",
        "reqSigs": 1,
        "type": "pubkeyhash",
        "addresses": [
          "n3eYeU6HhzAXnqgyuezFsRytcaqZTr5ijN"
        ]
      }
    },
    {
      "value": 0.00000000,
      "n": 1,
      "scriptPubKey": {
        "asm": "OP_RETURN aa21a9edcb26cb3052426b9ebb4d19c819ef87c19677bbf3a7c46ef0855bd1b2abe83491",
        "hex": "6a24aa21a9edcb26cb3052426b9ebb4d19c819ef87c19677bbf3a7c46ef0855bd1b2abe83491",
        "type": "nulldata"
      }
    }
  ],
  "hex": "010000000001010000000000000000000000000000000000000000000000000000000000000000ffffffff230352471300fe5f45765afe94690a000963676d696e6572343208000000000000000000ffffffff024423a804000000001976a914f2c25ac3d59f3d674b1d1d0a25c27339aaac0ba688ac0000000000000000266a24aa21a9edcb26cb3052426b9ebb4d19c819ef87c19677bbf3a7c46ef0855bd1b2abe834910120000000000000000000000000000000000000000000000000000000000000000000000000",
  "blockhash": "000000006f27ddfe1dd680044a34548f41bed47eba9e6f0b310da21423bc5f33",
  "confirmations": 309125,
  "time": 1517700447,
  "blocktime": 1517700447
}
