{
  "txid": "75f7d5e99912875e88d667afb48021b0b74916539c518618a8db4966661509df",
  "hash": "75f7d5e99912875e88d667afb48021b0b74916539c518618a8db4966661509df",
  "version": 1,
  "size": 166,
  "vsize": 166,
  "weight": 664,
  "locktime": 0,
  "vin": [
    {
      "txid": "304f75ff04181b49ca46dc542650150b98432380500eef234dac4b87127b5774",
      "vout": 0,
      "scriptSig": {
        "asm": "30440220431c4a909a65739e5e2e9c712941e40cebbe4884c22be6c454d4cc223b699bec02203800fef5dfd72dc111023dc6ccd8e1efb71bb136a2fadd36579921d5f7242585[ALL] 027172652c54d597c5fdba0e7354bdcc29c24df5b4555591508d89e291d0c9dfa5",
        "hex": "4730440220431c4a909a65739e5e2e9c712941e40cebbe4884c22be6c454d4cc223b699bec02203800fef5dfd72dc111023dc6ccd8e1efb71bb136a2fadd36579921d5f72425850121027172652c54d597c5fdba0e7354bdcc29c24df5b4555591508d89e291d0c9dfa5"
      },
      "sequence": 0
    }
  ],
  "vout": [
    {
      "value": 0.10000000,
      "n": 0,
      "scriptPubKey": {
        "asm": "",
        "hex": "",
        "type": "nonstandard"
      }
    }
  ],
  "hex": "010000000174577b12874bac4d23ef0e50802343980b15502654dc46ca491b1804ff754f30000000006a4730440220431c4a909a65739e5e2e9c712941e40cebbe4884c22be6c454d4cc223b699bec02203800fef5dfd72dc111023dc6ccd8e1efb71bb136a2fadd36579921d5f72425850121027172652c54d597c5fdba0e7354bdcc29c24df5b4555591508d89e291d0c9dfa5000000000180969800000000000000000000",
  "blockhash": "0000000000cde745799f47adf72a5ad340221024625b163b0605a9af5a037c96",
  "confirmations": 311188,
  "time": 1369577381,
  "blocktime": 1369577381
}
