{
  "txid": "830fadd1c80d9fcbee9c5398e5ee5acad3c125a273c836de02a622342ea63961",
  "hash": "830fadd1c80d9fcbee9c5398e5ee5acad3c125a273c836de02a622342ea63961",
  "version": 1,
  "size": 373,
  "vsize": 373,
  "weight": 1492,
  "locktime": 0,
  "vin": [
    {
      "txid": "dc70e8e2864579200c8d796d1ce8d85d025b71f45d9389f73c7aac1fe1747cf1",
      "vout": 0,
      "scriptSig": {
        "asm": "304502202a18384a77ca2abb13e7fe54f2b59925cc1eb3f20b1e7473bab975053794722e022100bed7514bc0d91304b8afe3b5d9e5460dc421ee4d714f6de5fa4e5d8a86208aa1[ALL] 0372496592381594b56b05dfbd0a5891f78032d9855cf485578da5c8862c4e5980",
        "hex": "48304502202a18384a77ca2abb13e7fe54f2b59925cc1eb3f20b1e7473bab975053794722e022100bed7514bc0d91304b8afe3b5d9e5460dc421ee4d714f6de5fa4e5d8a86208aa101210372496592381594b56b05dfbd0a5891f78032d9855cf485578da5c8862c4e5980"
      },
      "sequence": 4294967295
    },
    {
      "txid": "21d6db01e770c977c5e4449a1d99ad83097f7ecad977e005fca63bf2ba42724e",
      "vout": 1,
      "scriptSig": {
        "asm": "30440220037c9772b0460b2418ebbdce317e35105dbbe276ff02e179514c20da3185a908022031d8246dc42d0cbebab7bd415fb03b67b9aa868fb90f405d898d71f38b6fbec0[ALL] 0368dbadcc7ba361b405dd03c4c27735659346dec028c29949fa5ea332daea01ca",
        "hex": "4730440220037c9772b0460b2418ebbdce317e35105dbbe276ff02e179514c20da3185a908022031d8246dc42d0cbebab7bd415fb03b67b9aa868fb90f405d898d71f38b6fbec001210368dbadcc7ba361b405dd03c4c27735659346dec028c29949fa5ea332daea01ca"
      },
      "sequence": 4294967295
    }
  ],
  "vout": [
    {
      "value": 0.02850000,
      "n": 0,
      "scriptPubKey": {
        "asm": "OP_DUP OP_HASH160 74e328ded1c970a5974d4397ad008c7fe3f66563 OP_EQUALVERIFY OP_CHECKSIG",
        "hex": "76a91474e328ded1c970a5974d4397ad008c7fe3f6656388ac",
        "reqSigs": 1,
        "type": "pubkeyhash",
        "addresses": [
          "mrAzodpAzBdbn5SVUQHDFCskGgGYt5fsnX"
        ]
      }
    },
    {
      "value": 0.04000000,
      "n": 1,
      "scriptPubKey": {
        "asm": "OP_DUP OP_HASH160 33a1941fd9a37b9821d376f5a51bd4b52fa50e28 OP_EQUALVERIFY OP_CHECKSIG",
        "hex": "76a91433a1941fd9a37b9821d376f5a51bd4b52fa50e2888ac",
        "reqSigs": 1,
        "type": "pubkeyhash",
        "addresses": [
          "mkDxKWtMJbDwBJ6iDs8Rfz4TtY2bwW9TDt"
        ]
      }
    }
  ],
  "hex": "0100000002f17c74e11fac7a3cf789935df4715b025dd8e81c6d798d0c20794586e2e870dc000000006b48304502202a18384a77ca2abb13e7fe54f2b59925cc1eb3f20b1e7473bab975053794722e022100bed7514bc0d91304b8afe3b5d9e5460dc421ee4d714f6de5fa4e5d8a86208aa101210372496592381594b56b05dfbd0a5891f78032d9855cf485578da5c8862c4e5980ffffffff4e7242baf23ba6fc05e077d9ca7e7f0983ad991d9a44e4c577c970e701dbd621010000006a4730440220037c9772b0460b2418ebbdce317e35105dbbe276ff02e179514c20da3185a908022031d8246dc42d0cbebab7bd415fb03b67b9aa868fb90f405d898d71f38b6fbec001210368dbadcc7ba361b405dd03c4c27735659346dec028c29949fa5ea332daea01caffffffff02d07c2b00000000001976a91474e328ded1c970a5974d4397ad008c7fe3f6656388ac00093d00000000001976a91433a1941fd9a37b9821d376f5a51bd4b52fa50e2888ac00000000",
  "blockhash": "0000000058214dd8191667416c4796adee9f273eb5ec3bbba109c2d6cef9720f",
  "confirmations": 230098,
  "time": 1391814484,
  "blocktime": 1391814484
}
