{
  "txid": "88b760ee751176d80b0808e7e72916a63684688f9ed6374c2368f300c1f84dd0",
  "hash": "88b760ee751176d80b0808e7e72916a63684688f9ed6374c2368f300c1f84dd0",
  "version": 1,
  "size": 227,
  "vsize": 227,
  "weight": 908,
  "locktime": 0,
  "vin": [
    {
      "txid": "b4c804843976c89d813fc09b4d111b30944e5efc74af5260d682ba4f438ba38d",
      "vout": 1,
      "scriptSig": {
        "asm": "3046022100fe738b7580dc5fb5168e51fc61b5aed211125eb71068031009a22d9bbad752c5022100be5086baa384d40bcab0fa586e4f728397388d86e18b66cc417dc4f7fa4f9878[ALL] 03f233299455134caa2687bdf15cb0becdfb03bd0ff2ff38e65ec6b7834295c34f",
        "hex": "493046022100fe738b7580dc5fb5168e51fc61b5aed211125eb71068031009a22d9bbad752c5022100be5086baa384d40bcab0fa586e4f728397388d86e18b66cc417dc4f7fa4f9878012103f233299455134caa2687bdf15cb0becdfb03bd0ff2ff38e65ec6b7834295c34f"
      },
      "sequence": 4294967295
    }
  ],
  "vout": [
    {
      "value": 0.01358894,
      "n": 0,
      "scriptPubKey": {
        "asm": "OP_DUP OP_HASH160 7779b7fba1c1e06b717069b80ca170e8b04458a4 OP_EQUALVERIFY OP_CHECKSIG",
        "hex": "76a9147779b7fba1c1e06b717069b80ca170e8b04458a488ac",
        "reqSigs": 1,
        "type": "pubkeyhash",
        "addresses": [
          "mrQgX3X2HdnAy9vZLsWyrF2i9W7SKrCTRQ"
        ]
      }
    },
    {
      "value": 2.64534424,
      "n": 1,
      "scriptPubKey": {
        "asm": "OP_DUP OP_HASH160 2a0307cd925dbb66b534c4db33003dd18c570157 OP_EQUALVERIFY OP_CHECKSIG",
        "hex": "76a9142a0307cd925dbb66b534c4db33003dd18c57015788ac",
        "reqSigs": 1,
        "type": "pubkeyhash",
        "addresses": [
          "mjM6Jfx8UgdoqSRFxixDxYXV8hi9fgJMA6"
        ]
      }
    }
  ],
  "hex": "01000000018da38b434fba82d66052af74fc5e4e94301b114d9bc03f819dc876398404c8b4010000006c493046022100fe738b7580dc5fb5168e51fc61b5aed211125eb71068031009a22d9bbad752c5022100be5086baa384d40bcab0fa586e4f728397388d86e18b66cc417dc4f7fa4f9878012103f233299455134caa2687bdf15cb0becdfb03bd0ff2ff38e65ec6b7834295c34fffffffff022ebc1400000000001976a9147779b7fba1c1e06b717069b80ca170e8b04458a488ac9879c40f000000001976a9142a0307cd925dbb66b534c4db33003dd18c57015788ac00000000",
  "blockhash": "00000000fd3ceb2404ff07a785c7fdcc76619edc8ed61bd25134eaa22084366a",
  "confirmations": 27491,
  "time": 1391850896,
  "blocktime": 1391850896
}
