{
  "txid": "90fc0d2cbfa6252df32f085516eefe156a4547488722e93fb2ce765b6467cf96",
  "hash": "90fc0d2cbfa6252df32f085516eefe156a4547488722e93fb2ce765b6467cf96",
  "version": 1,
  "size": 374,
  "vsize": 374,
  "weight": 1496,
  "locktime": 0,
  "vin": [
    {
      "txid": "f6bdf08afa2a762aef84c8bd5fb3fb711f90f8c6006d8b260ad405f19afd1648",
      "vout": 1,
      "scriptSig": {
        "asm": "304502207e525ddc99fb43583aff0b22f555941a06558f7e2ee48f43064f6525db884214022100a6e070a717bcefc659aa661f2cb30787a78b2098bc22ecf6b711975c93f22257[ALL] 027a989a546e309831cecbb5a461e257a2ecf355ecf7432482802a3591d3c02417",
        "hex": "48304502207e525ddc99fb43583aff0b22f555941a06558f7e2ee48f43064f6525db884214022100a6e070a717bcefc659aa661f2cb30787a78b2098bc22ecf6b711975c93f222570121027a989a546e309831cecbb5a461e257a2ecf355ecf7432482802a3591d3c02417"
      },
      "sequence": 4294967295
    },
    {
      "txid": "c5c2f7dd09f65fbab181af18c8838d6a54c589b8b5aadd35f19095fc64f0342c",
      "vout": 0,
      "scriptSig": {
        "asm": "3045022100ae1bc065aebb939acedcb71e4070a511d36247a9f0a4f018cc611aaa42282f3f022018e5a80ca636ade1e79ee7d6d91cbbeb32ffffcba3309d36432c8be165c81437[ALL] 02cf2a470c3ab840ab7307f074aaa0ce34315bfa2183cd39b15b1c993ea3c3aa0a",
        "hex": "483045022100ae1bc065aebb939acedcb71e4070a511d36247a9f0a4f018cc611aaa42282f3f022018e5a80ca636ade1e79ee7d6d91cbbeb32ffffcba3309d36432c8be165c81437012102cf2a470c3ab840ab7307f074aaa0ce34315bfa2183cd39b15b1c993ea3c3aa0a"
      },
      "sequence": 4294967295
    }
  ],
  "vout": [
    {
      "value": 0.01036940,
      "n": 0,
      "scriptPubKey": {
        "asm": "OP_DUP OP_HASH160 f6039952bc2b307aeec5371bfb96b66078ec17f6 OP_EQUALVERIFY OP_CHECKSIG",
        "hex": "76a914f6039952bc2b307aeec5371bfb96b66078ec17f688ac",
        "reqSigs": 1,
        "type": "pubkeyhash",
        "addresses": [
          "n3wkqJShKbD6L4LfUrvLx2LCp6hoYNmVY3"
        ]
      }
    },
    {
      "value": 0.01000000,
      "n": 1,
      "scriptPubKey": {
        "asm": "OP_DUP OP_HASH160 be52509fab47f816332fc2d100204bdca6f49b0e OP_EQUALVERIFY OP_CHECKSIG",
        "hex": "76a914be52509fab47f816332fc2d100204bdca6f49b0e88ac",
        "reqSigs": 1,
        "type": "pubkeyhash",
        "addresses": [
          "mxsHHqtx4qJgkpYv6yTKo7PoL4GzJyM6J2"
        ]
      }
    }
  ],
  "hex": "01000000024816fd9af105d40a268b6d00c6f8901f71fbb35fbdc884ef2a762afa8af0bdf6010000006b48304502207e525ddc99fb43583aff0b22f555941a06558f7e2ee48f43064f6525db884214022100a6e070a717bcefc659aa661f2cb30787a78b2098bc22ecf6b711975c93f222570121027a989a546e309831cecbb5a461e257a2ecf355ecf7432482802a3591d3c02417ffffffff2c34f064fc9590f135ddaab5b889c5546a8d83c818af81b1ba5ff609ddf7c2c5000000006b483045022100ae1bc065aebb939acedcb71e4070a511d36247a9f0a4f018cc611aaa42282f3f022018e5a80ca636ade1e79ee7d6d91cbbeb32ffffcba3309d36432c8be165c81437012102cf2a470c3ab840ab7307f074aaa0ce34315bfa2183cd39b15b1c993ea3c3aa0affffffff028cd20f00000000001976a914f6039952bc2b307aeec5371bfb96b66078ec17f688ac40420f00000000001976a914be52509fab47f816332fc2d100204bdca6f49b0e88ac00000000",
  "blockhash": "0000000035dc27682d57bc98f245450f48a03abb809ceb671c262fc8fe9a0e3c",
  "confirmations": 246409,
  "time": 1391833306,
  "blocktime": 1391833306
}
