{
  "txid": "926ba916aa1487be7e500477e57cccf2ed27ce65baf11e73840fe3cc019437a5",
  "hash": "926ba916aa1487be7e500477e57cccf2ed27ce65baf11e73840fe3cc019437a5",
  "version": 1,
  "size": 520,
  "vsize": 520,
  "weight": 2080,
  "locktime": 0,
  "vin": [
    {
      "txid": "e2bddcf5de666b5ca888465fe1d0d8d4dc50f1c76a65f1efad7c9a86235e39ff",
      "vout": 0,
      "scriptSig": {
        "asm": "304402207ffe44e5437a31fad2a92b1b033ec2c5d2aa1666271b5b95b13b33358f4f410302205b7ffed9591a74ba39184ece8293385e742f71f731582ee527757663a7d41d30[ALL] 033ab1d45ea93afd526276b2a32740678e4fad03c1188a78e502eb0186cf8e1d39",
        "hex": "47304402207ffe44e5437a31fad2a92b1b033ec2c5d2aa1666271b5b95b13b33358f4f410302205b7ffed9591a74ba39184ece8293385e742f71f731582ee527757663a7d41d300121033ab1d45ea93afd526276b2a32740678e4fad03c1188a78e502eb0186cf8e1d39"
      },
      "sequence": 4294967295
    },
    {
      "txid": "5293a9383b33c676b6a86a97fe9d656ae72197c0719e1b6c7ded20a1a6fde3c2",
      "vout": 0,
      "scriptSig": {
        "asm": "30440220639fb86f45c3f7145716ea2160d2dbe189afcca5634a40b3e1e12b99ef31c2f10220291267122c98d243cede5c0002e74489604aa38ebadc6f5d263c62f09e8c71c9[ALL] 03beaa3fa5614017f3dbc39c9e587b0669c876e4e25454e910b1e2aad2769fff29",
        "hex": "4730440220639fb86f45c3f7145716ea2160d2dbe189afcca5634a40b3e1e12b99ef31c2f10220291267122c98d243cede5c0002e74489604aa38ebadc6f5d263c62f09e8c71c9012103beaa3fa5614017f3dbc39c9e587b0669c876e4e25454e910b1e2aad2769fff29"
      },
      "sequence": 4294967295
    },
    {
      "txid": "78f51f00eedf5b6a7c98091b9a406a188a96a39911902d37523d2373fabca4e3",
      "vout": 0,
      "scriptSig": {
        "asm": "30450221008c70dead71563ebd63b3451df25279406f29206d67a1c2832aeae03d7dad4d8702203b6bd9aa02e38886b60f20d5e6ea3b0d741025e1f2a2a58b2a58de1cc43bdf72[ALL] 03beaa3fa5614017f3dbc39c9e587b0669c876e4e25454e910b1e2aad2769fff29",
        "hex": "4830450221008c70dead71563ebd63b3451df25279406f29206d67a1c2832aeae03d7dad4d8702203b6bd9aa02e38886b60f20d5e6ea3b0d741025e1f2a2a58b2a58de1cc43bdf72012103beaa3fa5614017f3dbc39c9e587b0669c876e4e25454e910b1e2aad2769fff29"
      },
      "sequence": 4294967295
    }
  ],
  "vout": [
    {
      "value": 0.00005744,
      "n": 0,
      "scriptPubKey": {
        "asm": "OP_DUP OP_HASH160 b19fbc63ce7e40c6fd563873b8fefb71596b8044 OP_EQUALVERIFY OP_CHECKSIG",
        "hex": "76a914b19fbc63ce7e40c6fd563873b8fefb71596b804488ac",
        "reqSigs": 1,
        "type": "pubkeyhash",
        "addresses": [
          "mwi9FepA5F3ah4JSZbN8mDAuQ4KShpsx6i"
        ]
      }
    },
    {
      "value": 0.00100000,
      "n": 1,
      "scriptPubKey": {
        "asm": "OP_DUP OP_HASH160 913bcc2be49cb534c20474c4dee1e9c4c317e7eb OP_EQUALVERIFY OP_CHECKSIG",
        "hex": "76a914913bcc2be49cb534c20474c4dee1e9c4c317e7eb88ac",
        "reqSigs": 1,
        "type": "pubkeyhash",
        "addresses": [
          "mtksug9EwqzUeKK8Auv4CwkE4mPpcAowLB"
        ]
      }
    }
  ],
  "hex": "0100000003ff395e23869a7cadeff1656ac7f150dcd4d8d0e15f4688a85c6b66def5dcbde2000000006a47304402207ffe44e5437a31fad2a92b1b033ec2c5d2aa1666271b5b95b13b33358f4f410302205b7ffed9591a74ba39184ece8293385e742f71f731582ee527757663a7d41d300121033ab1d45ea93afd526276b2a32740678e4fad03c1188a78e502eb0186cf8e1d39ffffffffc2e3fda6a120ed7d6c1b9e71c09721e76a659dfe976aa8b676c6333b38a99352000000006a4730440220639fb86f45c3f7145716ea2160d2dbe189afcca5634a40b3e1e12b99ef31c2f10220291267122c98d243cede5c0002e74489604aa38ebadc6f5d263c62f09e8c71c9012103beaa3fa5614017f3dbc39c9e587b0669c876e4e25454e910b1e2aad2769fff29ffffffffe3a4bcfa73233d52372d901199a3968a186a409a1b09987c6a5bdfee001ff578000000006b4830450221008c70dead71563ebd63b3451df25279406f29206d67a1c2832aeae03d7dad4d8702203b6bd9aa02e38886b60f20d5e6ea3b0d741025e1f2a2a58b2a58de1cc43bdf72012103beaa3fa5614017f3dbc39c9e587b0669c876e4e25454e910b1e2aad2769fff29ffffffff0270160000000000001976a914b19fbc63ce7e40c6fd563873b8fefb71596b804488aca0860100000000001976a914913bcc2be49cb534c20474c4dee1e9c4c317e7eb88ac00000000",
  "blockhash": "000000000000001c88c9a404bc17c49cf2d59557d93f7f834932c063c875ad38",
  "confirmations": 645085,
  "time": 1472762986,
  "blocktime": 1472762986
}
