{
  "txid": "a6850257a577363382bebab9f239b0f6822a5e231c14eea575e881b809d65668",
  "hash": "a6850257a577363382bebab9f239b0f6822a5e231c14eea575e881b809d65668",
  "version": 1,
  "size": 616,
  "vsize": 616,
  "weight": 2464,
  "locktime": 0,
  "vin": [
    {
      "txid": "72825c94f6d3d6bb0560b0a9cc679c4a3490ac8887cfd68066a00e282d6d4a1e",
      "vout": 0,
      "scriptSig": {
        "asm": "3045022100d658031d2bd7065695c08f67d3fa3de5a779cf85fff74fc19d78df098edbaca402200d30a089f28fda3981da36f2887df240977342156cc4989e12eea274f66a0a6c[ALL] 0216df02d6f08075729d6b31f09f5717b59bb2b34e21e3776d74c88657cc5ba090",
        "hex": "483045022100d658031d2bd7065695c08f67d3fa3de5a779cf85fff74fc19d78df098edbaca402200d30a089f28fda3981da36f2887df240977342156cc4989e12eea274f66a0a6c01210216df02d6f08075729d6b31f09f5717b59bb2b34e21e3776d74c88657cc5ba090"
      },
      "sequence": 4294967295
    },
    {
      "txid": "b35d9ebb02063751cd03ad5a390ace15ba84d0fd20f590cdd6979c343e73a823",
      "vout": 0,
      "scriptSig": {
        "asm": "3046022100b6d66bcd8340e9e69bec0e88e3df9813ad1682ccbff5d4d53017ff20bfb977be022100aa9636f8c2b8b2a45e9a30233e74eb303412e3ad0e11bf26ae6254e24fc618d3[ALL] 03585fcf93341acc01c15494c0041230c470b5fbc292b5636e00de607faefa488c",
        "hex": "493046022100b6d66bcd8340e9e69bec0e88e3df9813ad1682ccbff5d4d53017ff20bfb977be022100aa9636f8c2b8b2a45e9a30233e74eb303412e3ad0e11bf26ae6254e24fc618d3012103585fcf93341acc01c15494c0041230c470b5fbc292b5636e00de607faefa488c"
      },
      "sequence": 4294967295
    },
    {
      "txid": "b35d9ebb02063751cd03ad5a390ace15ba84d0fd20f590cdd6979c343e73a823",
      "vout": 2,
      "scriptSig": {
        "asm": "0 3045022100a3328f6c0aa49aebffe4bcdbc0cbd7d33ebe68420a504c30bf0540d63d6b79550220016a0690fb2e811cd19afa36bbd379c244e7069b393d651c1f78850b3e7c0bb0[ALL]",
        "hex": "00483045022100a3328f6c0aa49aebffe4bcdbc0cbd7d33ebe68420a504c30bf0540d63d6b79550220016a0690fb2e811cd19afa36bbd379c244e7069b393d651c1f78850b3e7c0bb001"
      },
      "sequence": 4294967295
    }
  ],
  "vout": [
    {
      "value": 0.04070000,
      "n": 0,
      "scriptPubKey": {
        "asm": "OP_DUP OP_HASH160 9144761ebaccd5b4bbdc2a35453585b5637b2f85 OP_EQUALVERIFY OP_CHECKSIG",
        "hex": "76a9149144761ebaccd5b4bbdc2a35453585b5637b2f8588ac",
        "reqSigs": 1,
        "type": "pubkeyhash",
        "addresses": [
          "mtm4HejMz8y77yXF9AjEVSrA5XtxLocSDN"
        ]
      }
    },
    {
      "value": 0.05000000,
      "n": 1,
      "scriptPubKey": {
        "asm": "2 03f1848b40621c5d48471d9784c8174ca060555891ace6d2b03c58eece946b1a91 020ee5d32b54d429c152fdc7b1db84f2074b0564d35400d89d11870f9273ec140c 2 OP_CHECKMULTISIG",
        "hex": "522103f1848b40621c5d48471d9784c8174ca060555891ace6d2b03c58eece946b1a9121020ee5d32b54d429c152fdc7b1db84f2074b0564d35400d89d11870f9273ec140c52ae",
        "reqSigs": 2,
        "type": "multisig",
        "addresses": [
          "msnrnSpZLBGWG6txAPsq2ans8Knu9BsiBT",
          "mh8bgk1dgkYyZs7n4uAPU31EKBFR2frxuL"
        ]
      }
    },
    {
      "value": 0.05000000,
      "n": 2,
      "scriptPubKey": {
        "asm": "2 02bff5b3a9b8f7d2bfc17eca252ec7b3fcd07d781df11eb50212dc361656282eb4 020ee5d32b54d429c152fdc7b1db84f2074b0564d35400d89d11870f9273ec140c 2 OP_CHECKMULTISIG",
        "hex": "522102bff5b3a9b8f7d2bfc17eca252ec7b3fcd07d781df11eb50212dc361656282eb421020ee5d32b54d429c152fdc7b1db84f2074b0564d35400d89d11870f9273ec140c52ae",
        "reqSigs": 2,
        "type": "multisig",
        "addresses": [
          "mtojrY1Qy4W495UaQBUdDzjoUVUDz4nX55",
          "mh8bgk1dgkYyZs7n4uAPU31EKBFR2frxuL"
        ]
      }
    }
  ],
  "hex": "01000000031e4a6d2d280ea06680d6cf8788ac90344a9c67cca9b06005bbd6d3f6945c8272000000006b483045022100d658031d2bd7065695c08f67d3fa3de5a779cf85fff74fc19d78df098edbaca402200d30a089f28fda3981da36f2887df240977342156cc4989e12eea274f66a0a6c01210216df02d6f08075729d6b31f09f5717b59bb2b34e21e3776d74c88657cc5ba090ffffffff23a8733e349c97d6cd90f520fdd084ba15ce0a395aad03cd51370602bb9e5db3000000006c493046022100b6d66bcd8340e9e69bec0e88e3df9813ad1682ccbff5d4d53017ff20bfb977be022100aa9636f8c2b8b2a45e9a30233e74eb303412e3ad0e11bf26ae6254e24fc618d3012103585fcf93341acc01c15494c0041230c470b5fbc292b5636e00de607faefa488cffffffff23a8733e349c97d6cd90f520fdd084ba15ce0a395aad03cd51370602bb9e5db3020000004a00483045022100a3328f6c0aa49aebffe4bcdbc0cbd7d33ebe68420a504c30bf0540d63d6b79550220016a0690fb2e811cd19afa36bbd379c244e7069b393d651c1f78850b3e7c0bb001ffffffff03701a3e00000000001976a9149144761ebaccd5b4bbdc2a35453585b5637b2f8588ac404b4c000000000047522103f1848b40621c5d48471d9784c8174ca060555891ace6d2b03c58eece946b1a9121020ee5d32b54d429c152fdc7b1db84f2074b0564d35400d89d11870f9273ec140c52ae404b4c000000000047522102bff5b3a9b8f7d2bfc17eca252ec7b3fcd07d781df11eb50212dc361656282eb421020ee5d32b54d429c152fdc7b1db84f2074b0564d35400d89d11870f9273ec140c52ae00000000",
  "blockhash": "00000000bcff77199ee7f6f5389d8c5ed8f937b397fda4c1657b96344ee06a0e",
  "confirmations": 241669,
  "time": 1358784679,
  "blocktime": 1358784679
}
