{
  "txid": "aeee59002c3622a5e1858c946d8cb2c2d51450525619670d0420f07cc8823c98",
  "hash": "aeee59002c3622a5e1858c946d8cb2c2d51450525619670d0420f07cc8823c98",
  "version": 1,
  "size": 227,
  "vsize": 227,
  "weight": 908,
  "locktime": 0,
  "vin": [
    {
      "txid": "830fadd1c80d9fcbee9c5398e5ee5acad3c125a273c836de02a622342ea63961",
      "vout": 0,
      "scriptSig": {
        "asm": "3046022100a927793bc55fea251fa632ecd75a91728ce09015062bdc8ba59b7e0b9648fed4022100c3dc4b4bd7822beeb7cd785735157ee6acf6fb0759b227e5f312f8b813c2349d[ALL] 03292818afd59ed17a4f3ec220ca16a5c274444c2864f9725f4774639efdfb053f",
        "hex": "493046022100a927793bc55fea251fa632ecd75a91728ce09015062bdc8ba59b7e0b9648fed4022100c3dc4b4bd7822beeb7cd785735157ee6acf6fb0759b227e5f312f8b813c2349d012103292818afd59ed17a4f3ec220ca16a5c274444c2864f9725f4774639efdfb053f"
      },
      "sequence": 4294967295
    }
  ],
  "vout": [
    {
      "value": 0.01500000,
      "n": 0,
      "scriptPubKey": {
        "asm": "OP_DUP OP_HASH160 25798ecd563c6fb1a1537c23e4cb98b4f6c26a57 OP_EQUALVERIFY OP_CHECKSIG",
        "hex": "76a91425798ecd563c6fb1a1537c23e4cb98b4f6c26a5788ac",
        "reqSigs": 1,
        "type": "pubkeyhash",
        "addresses": [
          "miw6v8unJbDRiNecwoAx5Asc1siFf8gs9p"
        ]
      }
    },
    {
      "value": 0.01250000,
      "n": 1,
      "scriptPubKey": {
        "asm": "OP_DUP OP_HASH160 e4374e8155d0865742ca12b8d4d14d41b57d682f OP_EQUALVERIFY OP_CHECKSIG",
        "hex": "76a914e4374e8155d0865742ca12b8d4d14d41b57d682f88ac",
        "reqSigs": 1,
        "type": "pubkeyhash",
        "addresses": [
          "n2KecZkhbSyyCCLyNbLNoK1x4HfXfqEm7R"
        ]
      }
    }
  ],
  "hex": "01000000016139a62e3422a602de36c873a225c1d3ca5aeee598539ceecb9f0dc8d1ad0f83000000006c493046022100a927793bc55fea251fa632ecd75a91728ce09015062bdc8ba59b7e0b9648fed4022100c3dc4b4bd7822beeb7cd785735157ee6acf6fb0759b227e5f312f8b813c2349d012103292818afd59ed17a4f3ec220ca16a5c274444c2864f9725f4774639efdfb053fffffffff0260e31600000000001976a91425798ecd563c6fb1a1537c23e4cb98b4f6c26a5788acd0121300000000001976a914e4374e8155d0865742ca12b8d4d14d41b57d682f88ac00000000",
  "blockhash": "0000000010d57e391f34a00573fd46ec99ce88383978145de0677bb3b92eff56",
  "confirmations": 235459,
  "time": 1391814865,
  "blocktime": 1391814865
}
