{
  "txid": "b35d9ebb02063751cd03ad5a390ace15ba84d0fd20f590cdd6979c343e73a823",
  "hash": "b35d9ebb02063751cd03ad5a390ace15ba84d0fd20f590cdd6979c343e73a823",
  "version": 1,
  "size": 516,
  "vsize": 516,
  "weight": 2064,
  "locktime": 0,
  "vin": [
    {
      "txid": "a5dd61326cbecca8300314980736fcf9a0ecef372b752a68e4aef423484a011a",
      "vout": 0,
      "scriptSig": {
        "asm": "3046022100e107e79d6805895acef5871767118c5d353d6de9b0180ddd0e2f0df8ee494b1e022100fc6fe46f37d5614173b21a618122de271da536733b22fdacfd5c7f948bf9ee56[ALL] 03b5c73bd6d03fd676252e83d2695834da52fe6b87d1d8177dd7b52a21e0cc2cc8",
        "hex": "493046022100e107e79d6805895acef5871767118c5d353d6de9b0180ddd0e2f0df8ee494b1e022100fc6fe46f37d5614173b21a618122de271da536733b22fdacfd5c7f948bf9ee56012103b5c73bd6d03fd676252e83d2695834da52fe6b87d1d8177dd7b52a21e0cc2cc8"
      },
      "sequence": 4294967295
    },
    {
      "txid": "1f371c2c0e0d6813de3aa2e9d1d53573f96114fcedd5361848397b2b72c363a5",
      "vout": 1,
      "scriptSig": {
        "asm": "0 3046022100cd8f2c3dc3b6ea2d687856eac2e809338e1733abd9dc3e90c05ab0cc8c733afd022100f9fcf249a86bad56326bbb6126e0d754eba064026e43f7e678b5d21d2cd2c622[ALL]",
        "hex": "00493046022100cd8f2c3dc3b6ea2d687856eac2e809338e1733abd9dc3e90c05ab0cc8c733afd022100f9fcf249a86bad56326bbb6126e0d754eba064026e43f7e678b5d21d2cd2c62201"
      },
      "sequence": 4294967295
    },
    {
      "txid": "1f371c2c0e0d6813de3aa2e9d1d53573f96114fcedd5361848397b2b72c363a5",
      "vout": 4,
      "scriptSig": {
        "asm": "0 3045022063ced742ad5ce9f53b20146fd6961b81af19c06b96877ca24602279ae7f38eb8022100eb2c7fb8b6233a9437304fb587b1df15ea7a8acdb5a8e7742ff0bbeb0e76b61e[ALL]",
        "hex": "00483045022063ced742ad5ce9f53b20146fd6961b81af19c06b96877ca24602279ae7f38eb8022100eb2c7fb8b6233a9437304fb587b1df15ea7a8acdb5a8e7742ff0bbeb0e76b61e01"
      },
      "sequence": 4294967295
    }
  ],
  "vout": [
    {
      "value": 0.04170000,
      "n": 0,
      "scriptPubKey": {
        "asm": "OP_DUP OP_HASH160 080ff2d88b2abd580a7f27c259d117e28140bcf3 OP_EQUALVERIFY OP_CHECKSIG",
        "hex": "76a914080ff2d88b2abd580a7f27c259d117e28140bcf388ac",
        "reqSigs": 1,
        "type": "pubkeyhash",
        "addresses": [
          "mgFaoibXzQH443vd4RL2JgzAWptSabL1Ga"
        ]
      }
    },
    {
      "value": 0.05000000,
      "n": 1,
      "scriptPubKey": {
        "asm": "1 03b9d1d0e2b4355ec3cdef7c11a5c0beff9e8b8d8372ab4b4e0aaf30e801730019 1 OP_CHECKMULTISIG",
        "hex": "512103b9d1d0e2b4355ec3cdef7c11a5c0beff9e8b8d8372ab4b4e0aaf30e80173001951ae",
        "reqSigs": 1,
        "type": "multisig",
        "addresses": [
          "mw2SC3phki6kDAgZvSr3AmvxHtzxaXibCD"
        ]
      }
    },
    {
      "value": 0.05000000,
      "n": 2,
      "scriptPubKey": {
        "asm": "1 03b9d1d0e2b4355ec3cdef7c11a5c0beff9e8b8d8372ab4b4e0aaf30e801730019 1 OP_CHECKMULTISIG",
        "hex": "512103b9d1d0e2b4355ec3cdef7c11a5c0beff9e8b8d8372ab4b4e0aaf30e80173001951ae",
        "reqSigs": 1,
        "type": "multisig",
        "addresses": [
          "mw2SC3phki6kDAgZvSr3AmvxHtzxaXibCD"
        ]
      }
    }
  ],
  "hex": "01000000031a014a4823f4aee4682a752b37efeca0f9fc360798140330a8ccbe6c3261dda5000000006c493046022100e107e79d6805895acef5871767118c5d353d6de9b0180ddd0e2f0df8ee494b1e022100fc6fe46f37d5614173b21a618122de271da536733b22fdacfd5c7f948bf9ee56012103b5c73bd6d03fd676252e83d2695834da52fe6b87d1d8177dd7b52a21e0cc2cc8ffffffffa563c3722b7b39481836d5edfc1461f97335d5d1e9a23ade13680d0e2c1c371f010000004b00493046022100cd8f2c3dc3b6ea2d687856eac2e809338e1733abd9dc3e90c05ab0cc8c733afd022100f9fcf249a86bad56326bbb6126e0d754eba064026e43f7e678b5d21d2cd2c62201ffffffffa563c3722b7b39481836d5edfc1461f97335d5d1e9a23ade13680d0e2c1c371f040000004a00483045022063ced742ad5ce9f53b20146fd6961b81af19c06b96877ca24602279ae7f38eb8022100eb2c7fb8b6233a9437304fb587b1df15ea7a8acdb5a8e7742ff0bbeb0e76b61e01ffffffff0310a13f00000000001976a914080ff2d88b2abd580a7f27c259d117e28140bcf388ac404b4c000000000025512103b9d1d0e2b4355ec3cdef7c11a5c0beff9e8b8d8372ab4b4e0aaf30e80173001951ae404b4c000000000025512103b9d1d0e2b4355ec3cdef7c11a5c0beff9e8b8d8372ab4b4e0aaf30e80173001951ae00000000",
  "blockhash": "00000000729ec06f8412175c8a4105c32d6e748b037feb219baacb473b458cd8",
  "confirmations": 241746,
  "time": 1358708429,
  "blocktime": 1358708429
}
