{
  "txid": "b4c804843976c89d813fc09b4d111b30944e5efc74af5260d682ba4f438ba38d",
  "hash": "b4c804843976c89d813fc09b4d111b30944e5efc74af5260d682ba4f438ba38d",
  "version": 1,
  "size": 225,
  "vsize": 225,
  "weight": 900,
  "locktime": 0,
  "vin": [
    {
      "txid": "decb16b2550f6016032344cfbd4ee69084da17a9c9837efe29a89e880ceaee42",
      "vout": 1,
      "scriptSig": {
        "asm": "30440220189480d4b2b5a1cc05160e0c929f5f5d5f3702d04a50923e4e149872dc344b63022020d3c38ac5c87200cbf5859471dfa7d5f86382c546775298cc9539b719aeb4c2[ALL] 020dc7ee8ab321b08e2914b9ee437b022ee869cfecb4f530040447eac01f2e0619",
        "hex": "4730440220189480d4b2b5a1cc05160e0c929f5f5d5f3702d04a50923e4e149872dc344b63022020d3c38ac5c87200cbf5859471dfa7d5f86382c546775298cc9539b719aeb4c20121020dc7ee8ab321b08e2914b9ee437b022ee869cfecb4f530040447eac01f2e0619"
      },
      "sequence": 4294967295
    }
  ],
  "vout": [
    {
      "value": 0.01358894,
      "n": 0,
      "scriptPubKey": {
        "asm": "OP_DUP OP_HASH160 9193c6c5550e7f8ed8bd9f0ca555e650d4fe44f4 OP_EQUALVERIFY OP_CHECKSIG",
        "hex": "76a9149193c6c5550e7f8ed8bd9f0ca555e650d4fe44f488ac",
        "reqSigs": 1,
        "type": "pubkeyhash",
        "addresses": [
          "mtnhJZGH22e8y8HmZAPWcwBGSiWnziXMVo"
        ]
      }
    },
    {
      "value": 2.65903318,
      "n": 1,
      "scriptPubKey": {
        "asm": "OP_DUP OP_HASH160 2903b138c24be9e070b3e73ec495d77a204615e7 OP_EQUALVERIFY OP_CHECKSIG",
        "hex": "76a9142903b138c24be9e070b3e73ec495d77a204615e788ac",
        "reqSigs": 1,
        "type": "pubkeyhash",
        "addresses": [
          "mjFpRTnbbTaqGhqrGMW4pWBW6abq2eH8k6"
        ]
      }
    }
  ],
  "hex": "010000000142eeea0c889ea829fe7e83c9a917da8490e64ebdcf44230316600f55b216cbde010000006a4730440220189480d4b2b5a1cc05160e0c929f5f5d5f3702d04a50923e4e149872dc344b63022020d3c38ac5c87200cbf5859471dfa7d5f86382c546775298cc9539b719aeb4c20121020dc7ee8ab321b08e2914b9ee437b022ee869cfecb4f530040447eac01f2e0619ffffffff022ebc1400000000001976a9149193c6c5550e7f8ed8bd9f0ca555e650d4fe44f488acd65cd90f000000001976a9142903b138c24be9e070b3e73ec495d77a204615e788ac00000000",
  "blockhash": "00000000f8e77db69902032e631918230f8d34dddb8029b8489bd2befb5b96d2",
  "confirmations": 220295,
  "time": 1391839266,
  "blocktime": 1391839266
}
