{
  "txid": "c52ca2fa069190af53b20a905de80debd58db8942419e7f54fba0639467809d2",
  "hash": "1b5d951fb8b604868df6e701aa14901f35c2f05496156746be0543cdcc75ae66",
  "version": 2,
  "size": 345,
  "vsize": 180,
  "weight": 720,
  "locktime": 541217665,
  "vin": [
    {
      "txid": "07f00fd307019968da2f6de7c5335db339d3c9154e29da7935f183ee30ca30ed",
      "vout": 0,
      "scriptSig": {
        "asm": "",
        "hex": ""
      },
      "txinwitness": [
        "",
        "30440220503890e657773607fb05c9ef4c4e73b0ab847497ee67b3b8cefb3688a73333180220066db0ca943a5932f309ac9d4f191300711a5fc206d7c3babd85f025eac30bca01",
        "3044022055f05c3072dfd389104af1f5ccd56fb5433efc602694f1f384aab703c77ac78002203c1133981d66dc48183e72a19cc0974b93002d35ad7d6ee4278d46b4e96f871a01",
        "522102989711912d88acf5a4a18081104f99c2f8680a7de23f829f28db31fdb45b7a7a2102f0406fa1b49a9bb10c191fd83e2359867ecdace5ea990ce63d11478ed5877f1852ae"
      ],
      "sequence": 2159064941
    }
  ],
  "vout": [
    {
      "value": 0.00002870,
      "n": 0,
      "scriptPubKey": {
        "asm": "0 8154619cb0e7513fcdb1eb90cc9f86f3793b9d8e",
        "hex": "00148154619cb0e7513fcdb1eb90cc9f86f3793b9d8e",
        "reqSigs": 1,
        "type": "witness_v0_keyhash",
        "addresses": [
          "tb1qs92xr89suagnlnd3awgve8ux7dunh8vwe2zleh"
        ]
      }
    },
    {
      "value": 0.16745155,
      "n": 1,
      "scriptPubKey": {
        "asm": "0 27a5000c7917f785d8fc6e5a55adfca8717ecb973ebb7743849ff956d896a7ed",
        "hex": "002027a5000c7917f785d8fc6e5a55adfca8717ecb973ebb7743849ff956d896a7ed",
        "reqSigs": 1,
        "type": "witness_v0_scripthash",
        "addresses": [
          "tb1qy7jsqrrezlmctk8uded9tt0u4pchajuh86ahwsuynlu4dkyk5lksu2c9yz"
        ]
      }
    }
  ],
  "hex": "02000000000101ed30ca30ee83f13579da294e15c9d339b35d33c5e76d2fda68990107d30ff00700000000006db7b08002360b0000000000001600148154619cb0e7513fcdb1eb90cc9f86f3793b9d8ec382ff000000000022002027a5000c7917f785d8fc6e5a55adfca8717ecb973ebb7743849ff956d896a7ed04004730440220503890e657773607fb05c9ef4c4e73b0ab847497ee67b3b8cefb3688a73333180220066db0ca943a5932f309ac9d4f191300711a5fc206d7c3babd85f025eac30bca01473044022055f05c3072dfd389104af1f5ccd56fb5433efc602694f1f384aab703c77ac78002203c1133981d66dc48183e72a19cc0974b93002d35ad7d6ee4278d46b4e96f871a0147522102989711912d88acf5a4a18081104f99c2f8680a7de23f829f28db31fdb45b7a7a2102f0406fa1b49a9bb10c191fd83e2359867ecdace5ea990ce63d11478ed5877f1852ae81534220",
  "blockhash": "000000000002c0e3d90b1cbf86b3d178edb03b0099e64924ef0c3cc8510bec7b",
  "confirmations": 309137,
  "time": 1517700432,
  "blocktime": 1517700432
}
