{
  "txid": "c8a022a001dee15f3af76546675fac3b4d9a84d966d0dfa927bc6dec14bbce70",
  "hash": "c8a022a001dee15f3af76546675fac3b4d9a84d966d0dfa927bc6dec14bbce70",
  "version": 2,
  "size": 84,
  "vsize": 84,
  "weight": 336,
  "locktime": 0,
  "vin": [
    {
      "coinbase": "034d94154d696e6572476174653030310d000000f238f401",
      "sequence": 4294967295
    }
  ],
  "vout": [
    {
      "value": 0.78125000,
      "n": 0,
      "scriptPubKey": {
        "asm": "",
        "hex": "",
        "type": "nonstandard"
      }
    }
  ],
  "hex": "02000000010000000000000000000000000000000000000000000000000000000000000000ffffffff18034d94154d696e6572476174653030310d000000f238f401ffffffff01c817a804000000000000000000",
  "blockhash": "0000000000000027b2b3b3381f114f674f481544ff2be37ae3788d7e078383b1",
  "confirmations": 158346,
  "time": 1537801553,
  "blocktime": 1537801553
}
