{
  "txid": "ce43f8403c00606c24004bcaff1291091a7395085184312cf15f2393e131e770",
  "hash": "ce43f8403c00606c24004bcaff1291091a7395085184312cf15f2393e131e770",
  "version": 1,
  "size": 225,
  "vsize": 225,
  "weight": 900,
  "locktime": 0,
  "vin": [
    {
      "txid": "5b3554b424591993683f9a11513a8e0383271e9c846227775eef96d7615eef55",
      "vout": 1,
      "scriptSig": {
        "asm": "30440220522cbbd4a9a89325854b60959780bb7424a5b0e83915ca070b4db3bf73c1566702201fd8f2c2ed4cfbc880daefdb0028532149236cb8cad15d33880b6a084822c0a1[ALL] 038c617df5ad4bb4386b0a3ef2a078efde3a4aa7c28cea0f40cf930ebfccde2ca7",
        "hex": "4730440220522cbbd4a9a89325854b60959780bb7424a5b0e83915ca070b4db3bf73c1566702201fd8f2c2ed4cfbc880daefdb0028532149236cb8cad15d33880b6a084822c0a10121038c617df5ad4bb4386b0a3ef2a078efde3a4aa7c28cea0f40cf930ebfccde2ca7"
      },
      "sequence": 4294967295
    }
  ],
  "vout": [
    {
      "value": 0.16250000,
      "n": 0,
      "scriptPubKey": {
        "asm": "OP_DUP OP_HASH160 913bcc2be49cb534c20474c4dee1e9c4c317e7eb OP_EQUALVERIFY OP_CHECKSIG",
        "hex": "76a914913bcc2be49cb534c20474c4dee1e9c4c317e7eb88ac",
        "reqSigs": 1,
        "type": "pubkeyhash",
        "addresses": [
          "mtksug9EwqzUeKK8Auv4CwkE4mPpcAowLB"
        ]
      }
    },
    {
      "value": 49.42090235,
      "n": 1,
      "scriptPubKey": {
        "asm": "OP_DUP OP_HASH160 2d1b5d0c4e95afd2f33d9d73c0a614a64c190196 OP_EQUALVERIFY OP_CHECKSIG",
        "hex": "76a9142d1b5d0c4e95afd2f33d9d73c0a614a64c19019688ac",
        "reqSigs": 1,
        "type": "pubkeyhash",
        "addresses": [
          "mjdTUw6iSiqdn5EjX2qr6Kyaok1sV4rgxA"
        ]
      }
    }
  ],
  "hex": "010000000155ef5e61d796ef5e772762849c1e2783038e3a51119a3f6893195924b454355b010000006a4730440220522cbbd4a9a89325854b60959780bb7424a5b0e83915ca070b4db3bf73c1566702201fd8f2c2ed4cfbc880daefdb0028532149236cb8cad15d33880b6a084822c0a10121038c617df5ad4bb4386b0a3ef2a078efde3a4aa7c28cea0f40cf930ebfccde2ca7ffffffff0290f4f700000000001976a914913bcc2be49cb534c20474c4dee1e9c4c317e7eb88acfb4f9226010000001976a9142d1b5d0c4e95afd2f33d9d73c0a614a64c19019688ac00000000",
  "blockhash": "000000000000001c88c9a404bc17c49cf2d59557d93f7f834932c063c875ad38",
  "confirmations": 645085,
  "time": 1472762986,
  "blocktime": 1472762986
}
