{
  "txid": "d06d86bacf88f1f316d4470080b7869f1c298b850e7b219124ae131c0475abb0",
  "hash": "49c37eab32d83f31fafd15815ab047ef91a3a4bb86c9d25a28dbf4afdc156670",
  "version": 1,
  "size": 375,
  "vsize": 184,
  "weight": 735,
  "locktime": 0,
  "vin": [
    {
      "txid": "0a510f49749aaaa2638048132eafea959dd8e47e79332dbcb2a14189870e3145",
      "vout": 1,
      "scriptSig": {
        "asm": "0020b6744de4f6ec63cc92f7c220cdefeeb1b1bed2b66c8e5706d80ec247d37e65a1",
        "hex": "220020b6744de4f6ec63cc92f7c220cdefeeb1b1bed2b66c8e5706d80ec247d37e65a1"
      },
      "txinwitness": [
        "",
        "3044022001dd489a5d4e2fbd8a3ade27177f6b49296ba7695c40dbbe650ea83f106415fd02200b23a0602d8ff1bdf79dee118205fc7e9b40672bf31563e5741feb53fb86388501",
        "3045022100f88f040e90cc5dc6c6189d04718376ac19ed996bf9e4a3c29c3718d90ffd27180220761711f16c9e3a44f71aab55cbc0634907a1fa8bb635d971a9a01d368727bea101",
        "522103b3623117e988b76aaabe3d63f56a4fc88b228a71e64c4cc551d1204822fe85cb2103dd823066e096f72ed617a41d3ca56717db335b1ea47a1b4c5c9dbdd0963acba621033d7c89bd9da29fa8d44db7906a9778b53121f72191184a9fee785c39180e4be153ae"
      ],
      "sequence": 4294967295
    }
  ],
  "vout": [
    {
      "value": 0.20000000,
      "n": 0,
      "scriptPubKey": {
        "asm": "OP_DUP OP_HASH160 3ebc40e411ed3c76f86711507ab9523008903972 OP_EQUALVERIFY OP_CHECKSIG",
        "hex": "76a9143ebc40e411ed3c76f86711507ab952300890397288ac",
        "reqSigs": 1,
        "type": "pubkeyhash",
        "addresses": [
          "mmEfi2cW9Vizeau3E6zzmRvbmzJXNrmW9Z"
        ]
      }
    }
  ],
  "hex": "0100000000010145310e878941a1b2bc2d33797ee4d89d95eaaf2e13488063a2aa9a74490f510a0100000023220020b6744de4f6ec63cc92f7c220cdefeeb1b1bed2b66c8e5706d80ec247d37e65a1ffffffff01002d3101000000001976a9143ebc40e411ed3c76f86711507ab952300890397288ac0400473044022001dd489a5d4e2fbd8a3ade27177f6b49296ba7695c40dbbe650ea83f106415fd02200b23a0602d8ff1bdf79dee118205fc7e9b40672bf31563e5741feb53fb86388501483045022100f88f040e90cc5dc6c6189d04718376ac19ed996bf9e4a3c29c3718d90ffd27180220761711f16c9e3a44f71aab55cbc0634907a1fa8bb635d971a9a01d368727bea10169522103b3623117e988b76aaabe3d63f56a4fc88b228a71e64c4cc551d1204822fe85cb2103dd823066e096f72ed617a41d3ca56717db335b1ea47a1b4c5c9dbdd0963acba621033d7c89bd9da29fa8d44db7906a9778b53121f72191184a9fee785c39180e4be153ae00000000",
  "blockhash": "000000000000015d6077a411a8f5cc95caf775ccf11c54e27df75ce58d187313",
  "confirmations": 644920,
  "time": 1472857006,
  "blocktime": 1472857006
}
