{
  "txid": "dcf1e7987bd0e56aef07061d105c4d540c7d7f022ca8c4750c3f93d98c6e56be",
  "hash": "dcf1e7987bd0e56aef07061d105c4d540c7d7f022ca8c4750c3f93d98c6e56be",
  "version": 1,
  "size": 227,
  "vsize": 227,
  "weight": 908,
  "locktime": 0,
  "vin": [
    {
      "txid": "f27c846522216acb3e310e1093271c5e422233c783450a3a6e559e28f02a3971",
      "vout": 1,
      "scriptSig": {
        "asm": "3046022100f6fba122a4d085795f3e40df9ade9af1ce7965a7bfabfc2641136b9a3b3fbfe2022100a56e0e3edc6e1a829d3a65a490c9dd5344f2c6ed3cee0daaad8d383992c6e816[ALL] 032d590edf077da055e43e5e83d3e70e679287cb1871c4e4b365d899c73afb5069",
        "hex": "493046022100f6fba122a4d085795f3e40df9ade9af1ce7965a7bfabfc2641136b9a3b3fbfe2022100a56e0e3edc6e1a829d3a65a490c9dd5344f2c6ed3cee0daaad8d383992c6e8160121032d590edf077da055e43e5e83d3e70e679287cb1871c4e4b365d899c73afb5069"
      },
      "sequence": 4294967295
    }
  ],
  "vout": [
    {
      "value": 9.99990000,
      "n": 0,
      "scriptPubKey": {
        "asm": "OP_DUP OP_HASH160 001fa7459a6cfc64bdc178ba7e7a21603bb2568f OP_EQUALVERIFY OP_CHECKSIG",
        "hex": "76a914001fa7459a6cfc64bdc178ba7e7a21603bb2568f88ac",
        "reqSigs": 1,
        "type": "pubkeyhash",
        "addresses": [
          "mfXcDNV1r9SPmNVziJoNG4CXFjx5Gn1BTi"
        ]
      }
    },
    {
      "value": 10.00000000,
      "n": 1,
      "scriptPubKey": {
        "asm": "OP_DUP OP_HASH160 6d10f3f592699265d10b106eda37c3ce793f7a85 OP_EQUALVERIFY OP_CHECKSIG",
        "hex": "76a9146d10f3f592699265d10b106eda37c3ce793f7a8588ac",
        "reqSigs": 1,
        "type": "pubkeyhash",
        "addresses": [
          "mqTeFsmynRPY75GtXv58ngvP9H8nTcNGUQ"
        ]
      }
    }
  ],
  "hex": "010000000171392af0289e556e3a0a4583c73322425e1c2793100e313ecb6a212265847cf2010000006c493046022100f6fba122a4d085795f3e40df9ade9af1ce7965a7bfabfc2641136b9a3b3fbfe2022100a56e0e3edc6e1a829d3a65a490c9dd5344f2c6ed3cee0daaad8d383992c6e8160121032d590edf077da055e43e5e83d3e70e679287cb1871c4e4b365d899c73afb5069ffffffff02f0a29a3b000000001976a914001fa7459a6cfc64bdc178ba7e7a21603bb2568f88ac00ca9a3b000000001976a9146d10f3f592699265d10b106eda37c3ce793f7a8588ac00000000",
  "blockhash": "00000000e3a8f21dee97098db00e39ee0d19afab7027e90beb69ec130828a5e9",
  "confirmations": 241411,
  "time": 1391848466,
  "blocktime": 1391848466
}
