{
  "txid": "ddf81227d7608267a21b2cf5f4b5935a5fd2f217d64e52eb5b2df1b37636e5f7",
  "hash": "ddf81227d7608267a21b2cf5f4b5935a5fd2f217d64e52eb5b2df1b37636e5f7",
  "version": 1,
  "size": 112,
  "vsize": 112,
  "weight": 448,
  "locktime": 0,
  "vin": [
    {
      "coinbase": "03e4120ff9c30a1c216900002f424d4920546573742f",
      "sequence": 16777215
    }
  ],
  "vout": [
    {
      "value": 3.12500000,
      "n": 0,
      "scriptPubKey": {
        "asm": "OP_DUP OP_HASH160 c486de584a735ec2f22da7cd9681614681f92173 OP_UNKNOWN [error]",
        "hex": "76a914c486de584a735ec2f22da7cd9681614681f92173d83d0aa68688ac",
        "type": "nonstandard"
      }
    }
  ],
  "hex": "01000000010000000000000000000000000000000000000000000000000000000000000000ffffffff1603e4120ff9c30a1c216900002f424d4920546573742fffffff0001205fa012000000001e76a914c486de584a735ec2f22da7cd9681614681f92173d83d0aa68688ac00000000",
  "blockhash": "0000000000000c00901f2049055e2a437c819d79a3d54fd63e6af796cd7b8a79",
  "confirmations": 584690,
  "time": 1476291850,
  "blocktime": 1476291850
}
