{
  "txid": "df3b6ebcfead10c9c21d11fb68f93e7afe2bb6b15aedb1ebdce41d2634559220",
  "hash": "df3b6ebcfead10c9c21d11fb68f93e7afe2bb6b15aedb1ebdce41d2634559220",
  "version": 1,
  "size": 225,
  "vsize": 225,
  "weight": 900,
  "locktime": 0,
  "vin": [
    {
      "txid": "b948ead0fdefd20fea401ed0685d1260ff15c2f42c425375e1a8d280af192a92",
      "vout": 1,
      "scriptSig": {
        "asm": "304402205a64ef9abcd9aca7d80b40be29ed1311a38decd2a5ae96e5795baee17027e06102204d5d96b8c8928e8f83f4f32de48410b546980a9c6d69b899c95cc848d47f2e83[ALL] 0316cff587a01a2736d5e12e53551b18d73780b83c3bfb4fcf209c869b11b6415e",
        "hex": "47304402205a64ef9abcd9aca7d80b40be29ed1311a38decd2a5ae96e5795baee17027e06102204d5d96b8c8928e8f83f4f32de48410b546980a9c6d69b899c95cc848d47f2e8301210316cff587a01a2736d5e12e53551b18d73780b83c3bfb4fcf209c869b11b6415e"
      },
      "sequence": 4294967295
    }
  ],
  "vout": [
    {
      "value": 0.00500000,
      "n": 0,
      "scriptPubKey": {
        "asm": "OP_DUP OP_HASH160 7b87c1509892f1986a0d601b4945bdb20087cf70 OP_EQUALVERIFY OP_CHECKSIG",
        "hex": "76a9147b87c1509892f1986a0d601b4945bdb20087cf7088ac",
        "reqSigs": 1,
        "type": "pubkeyhash",
        "addresses": [
          "mrn835g1G5cVP1h54djjNYLBDfyC427Zgh"
        ]
      }
    },
    {
      "value": 4.50380894,
      "n": 1,
      "scriptPubKey": {
        "asm": "OP_DUP OP_HASH160 c01a7ca16b47be50cbdbc60724f701d52d751566 OP_EQUALVERIFY OP_CHECKSIG",
        "hex": "76a914c01a7ca16b47be50cbdbc60724f701d52d75156688ac",
        "reqSigs": 1,
        "type": "pubkeyhash",
        "addresses": [
          "my2hmDuD9XjmtQWFu9HyyNAsE5WGSDBKpQ"
        ]
      }
    }
  ],
  "hex": "0100000001922a19af80d2a8e17553422cf4c215ff60125d68d01e40ea0fd2effdd0ea48b9010000006a47304402205a64ef9abcd9aca7d80b40be29ed1311a38decd2a5ae96e5795baee17027e06102204d5d96b8c8928e8f83f4f32de48410b546980a9c6d69b899c95cc848d47f2e8301210316cff587a01a2736d5e12e53551b18d73780b83c3bfb4fcf209c869b11b6415effffffff0220a10700000000001976a9147b87c1509892f1986a0d601b4945bdb20087cf7088ac5e44d81a000000001976a914c01a7ca16b47be50cbdbc60724f701d52d75156688ac00000000",
  "blockhash": "00000000000000a2fdb3cef01b42cacf22d04489fe42601b59bd4c8f9501967c",
  "confirmations": 644994,
  "time": 1472812912,
  "blocktime": 1472812912
}
