{
  "txid": "f56da6d0bb5807561c29093066edd1d505c2fa4ae89bb895c4318481d360fd3f",
  "hash": "f56da6d0bb5807561c29093066edd1d505c2fa4ae89bb895c4318481d360fd3f",
  "version": 1,
  "size": 370,
  "vsize": 370,
  "weight": 1480,
  "locktime": 0,
  "vin": [
    {
      "txid": "226351667e09bd4b4b3aa76caf6df5836615d25f365025a51e7a0d63585fa203",
      "vout": 1,
      "scriptSig": {
        "asm": "304402204efc3d70e4ca3049c2a425025edf22d5ca355f9ec899dbfbbeeb2268533a0f2b02204780d3739653035af4814ea52e1396d021953f948c29754edd0ee537364603dc[ALL] 03f7a897e4dbecab2264b21917f90664ea8256189ea725d28740cf7ba5d85b5763",
        "hex": "47304402204efc3d70e4ca3049c2a425025edf22d5ca355f9ec899dbfbbeeb2268533a0f2b02204780d3739653035af4814ea52e1396d021953f948c29754edd0ee537364603dc012103f7a897e4dbecab2264b21917f90664ea8256189ea725d28740cf7ba5d85b5763"
      },
      "sequence": 4294967295
    },
    {
      "txid": "226351667e09bd4b4b3aa76caf6df5836615d25f365025a51e7a0d63585fa203",
      "vout": 0,
      "scriptSig": {
        "asm": "304402202d96defdc5b4af71d6ba28c9a6042c2d5ee7bc6de565d4db84ef517445626e03022022da80320e9e489c8f41b74833dfb6a54a4eb5087cdb46eb663eef0b25caa526[ALL] 03f7a897e4dbecab2264b21917f90664ea8256189ea725d28740cf7ba5d85b5763",
        "hex": "47304402202d96defdc5b4af71d6ba28c9a6042c2d5ee7bc6de565d4db84ef517445626e03022022da80320e9e489c8f41b74833dfb6a54a4eb5087cdb46eb663eef0b25caa526012103f7a897e4dbecab2264b21917f90664ea8256189ea725d28740cf7ba5d85b5763"
      },
      "sequence": 4294967295
    }
  ],
  "vout": [
    {
      "value": 1.00000000,
      "n": 0,
      "scriptPubKey": {
        "asm": "OP_HASH160 b7e6f7ff8658b2d1fb107e3d7be7af4742e6b1b3 OP_EQUAL",
        "hex": "a914b7e6f7ff8658b2d1fb107e3d7be7af4742e6b1b387",
        "reqSigs": 1,
        "type": "scripthash",
        "addresses": [
          "2NA1cLNuYccXNbPo7uiuLwzoA6gZR7UhNga"
        ]
      }
    },
    {
      "value": 0.16549999,
      "n": 1,
      "scriptPubKey": {
        "asm": "OP_DUP OP_HASH160 913bcc2be49cb534c20474c4dee1e9c4c317e7eb OP_EQUALVERIFY OP_CHECKSIG",
        "hex": "76a914913bcc2be49cb534c20474c4dee1e9c4c317e7eb88ac",
        "reqSigs": 1,
        "type": "pubkeyhash",
        "addresses": [
          "mtksug9EwqzUeKK8Auv4CwkE4mPpcAowLB"
        ]
      }
    }
  ],
  "hex": "010000000203a25f58630d7a1ea52550365fd2156683f56daf6ca73a4b4bbd097e66516322010000006a47304402204efc3d70e4ca3049c2a425025edf22d5ca355f9ec899dbfbbeeb2268533a0f2b02204780d3739653035af4814ea52e1396d021953f948c29754edd0ee537364603dc012103f7a897e4dbecab2264b21917f90664ea8256189ea725d28740cf7ba5d85b5763ffffffff03a25f58630d7a1ea52550365fd2156683f56daf6ca73a4b4bbd097e66516322000000006a47304402202d96defdc5b4af71d6ba28c9a6042c2d5ee7bc6de565d4db84ef517445626e03022022da80320e9e489c8f41b74833dfb6a54a4eb5087cdb46eb663eef0b25caa526012103f7a897e4dbecab2264b21917f90664ea8256189ea725d28740cf7ba5d85b5763ffffffff0200e1f5050000000017a914b7e6f7ff8658b2d1fb107e3d7be7af4742e6b1b3876f88fc00000000001976a914913bcc2be49cb534c20474c4dee1e9c4c317e7eb88ac00000000",
  "blockhash": "000000000000015d6077a411a8f5cc95caf775ccf11c54e27df75ce58d187313",
  "confirmations": 644920,
  "time": 1472857006,
  "blocktime": 1472857006
}
