{
  "txid": "ff80fe4937e2de16411c3a2bc534d661dc8b4f8aad75e6fbc4b1ec6060d9ef1c",
  "hash": "ff80fe4937e2de16411c3a2bc534d661dc8b4f8aad75e6fbc4b1ec6060d9ef1c",
  "version": 1,
  "size": 481,
  "vsize": 481,
  "weight": 1924,
  "locktime": 0,
  "vin": [
    {
      "txid": "d5a5a506eb319e3d48acc55ddb0ec0de7f5d9513adb2c643fc42ec652b487781",
      "vout": 1,
      "scriptSig": {
        "asm": "3046022100955062369843b52db91eb9c1b8fb5ed20b346a62841edfb2ba2097d2a9bc31810221009ace1c91398620b4d1bfa559ca2abcaf6c1a524e606bb5fedf74c9a123ae4ec8[ALL] 03046d258651af2fbb6acb63414a604314ce94d644a0efd8832ca5275f2bc207c6",
        "hex": "493046022100955062369843b52db91eb9c1b8fb5ed20b346a62841edfb2ba2097d2a9bc31810221009ace1c91398620b4d1bfa559ca2abcaf6c1a524e606bb5fedf74c9a123ae4ec8012103046d258651af2fbb6acb63414a604314ce94d644a0efd8832ca5275f2bc207c6"
      },
      "sequence": 4294967295
    }
  ],
  "vout": [
    {
      "value": 0.05000000,
      "n": 0,
      "scriptPubKey": {
        "asm": "2 033423007d8f263819a2e42becaaf5b06f34cb09919e06304349d950668209eaed 021d69e2b68c3960903b702af7829fadcd80bd89b158150c85c4a75b2c8cb9c394 2 OP_CHECKMULTISIG",
        "hex": "5221033423007d8f263819a2e42becaaf5b06f34cb09919e06304349d950668209eaed21021d69e2b68c3960903b702af7829fadcd80bd89b158150c85c4a75b2c8cb9c39452ae",
        "reqSigs": 2,
        "type": "multisig",
        "addresses": [
          "muoTCLELk1SjpPZaGQhCrPuNVS564vMRs2",
          "my3zYs9nFt7pm7osAMPuAPXefKxCn7QEV8"
        ]
      }
    },
    {
      "value": 0.05000000,
      "n": 1,
      "scriptPubKey": {
        "asm": "2 0 021d69e2b68c3960903b702af7829fadcd80bd89b158150c85c4a75b2c8cb9c394 2 OP_CHECKMULTISIG",
        "hex": "52010021021d69e2b68c3960903b702af7829fadcd80bd89b158150c85c4a75b2c8cb9c39452ae",
        "type": "nonstandard"
      }
    },
    {
      "value": 0.05000000,
      "n": 2,
      "scriptPubKey": {
        "asm": "2 0279be667ef9dcbbac55a06295ce870b07029bfcdb2dce28d959f2815b16f81798 021d69e2b68c3960903b702af7829fadcd80bd89b158150c85c4a75b2c8cb9c394 2 OP_CHECKMULTISIG",
        "hex": "52210279be667ef9dcbbac55a06295ce870b07029bfcdb2dce28d959f2815b16f8179821021d69e2b68c3960903b702af7829fadcd80bd89b158150c85c4a75b2c8cb9c39452ae",
        "reqSigs": 2,
        "type": "multisig",
        "addresses": [
          "mrCDrCybB6J1vRfbwM5hemdJz73FwDBC8r",
          "my3zYs9nFt7pm7osAMPuAPXefKxCn7QEV8"
        ]
      }
    },
    {
      "value": 0.79950000,
      "n": 3,
      "scriptPubKey": {
        "asm": "OP_DUP OP_HASH160 6cce12229300b733cdf0c7ce3079c7503b080fca OP_EQUALVERIFY OP_CHECKSIG",
        "hex": "76a9146cce12229300b733cdf0c7ce3079c7503b080fca88ac",
        "reqSigs": 1,
        "type": "pubkeyhash",
        "addresses": [
          "mqSG8pnVpKy3mtPpWrXB81ch4F374P5Bpz"
        ]
      }
    },
    {
      "value": 0.05000000,
      "n": 4,
      "scriptPubKey": {
        "asm": "2 02c6047f9441ed7d6d3045406e95c07cd85c778e4b8cef3ca7abac09b95c709ee5 021d69e2b68c3960903b702af7829fadcd80bd89b158150c85c4a75b2c8cb9c394 2 OP_CHECKMULTISIG",
        "hex": "522102c6047f9441ed7d6d3045406e95c07cd85c778e4b8cef3ca7abac09b95c709ee521021d69e2b68c3960903b702af7829fadcd80bd89b158150c85c4a75b2c8cb9c39452ae",
        "reqSigs": 2,
        "type": "multisig",
        "addresses": [
          "mg8Jz5776UdyiYcBb9Z873NTozEiADRW5H",
          "my3zYs9nFt7pm7osAMPuAPXefKxCn7QEV8"
        ]
      }
    }
  ],
  "hex": "01000000018177482b65ec42fc43c6b2ad13955d7fdec00edb5dc5ac483d9e31eb06a5a5d5010000006c493046022100955062369843b52db91eb9c1b8fb5ed20b346a62841edfb2ba2097d2a9bc31810221009ace1c91398620b4d1bfa559ca2abcaf6c1a524e606bb5fedf74c9a123ae4ec8012103046d258651af2fbb6acb63414a604314ce94d644a0efd8832ca5275f2bc207c6ffffffff05404b4c0000000000475221033423007d8f263819a2e42becaaf5b06f34cb09919e06304349d950668209eaed21021d69e2b68c3960903b702af7829fadcd80bd89b158150c85c4a75b2c8cb9c39452ae404b4c00000000002752010021021d69e2b68c3960903b702af7829fadcd80bd89b158150c85c4a75b2c8cb9c39452ae404b4c00000000004752210279be667ef9dcbbac55a06295ce870b07029bfcdb2dce28d959f2815b16f8179821021d69e2b68c3960903b702af7829fadcd80bd89b158150c85c4a75b2c8cb9c39452aeb0f0c304000000001976a9146cce12229300b733cdf0c7ce3079c7503b080fca88ac404b4c000000000047522102c6047f9441ed7d6d3045406e95c07cd85c778e4b8cef3ca7abac09b95c709ee521021d69e2b68c3960903b702af7829fadcd80bd89b158150c85c4a75b2c8cb9c39452ae00000000",
  "blockhash": "00000000729ec06f8412175c8a4105c32d6e748b037feb219baacb473b458cd8",
  "confirmations": 228044,
  "time": 1358708429,
  "blocktime": 1358708429
}
