{
  "hex": "0100000001d967897603771672654db507a02ceb65dea8a682d2333ee819cac80950ec5c58020000006a473044022059a0cc21ad24ae18726d128c85328a0b54dab62aeb41ffbcad368ece6fdf9d2602200e477332401ce1296d379dc5f797720e854e40fc5af0a268f585e7dae64d38e5012103624fbfb0079e85bbc9aaeba6f48581326ad01194b3c54ce22852a27b1d2892d1ffffffff03000000000000000000220935d7946a00001976a9143cc9ede1da2d7351aaebaf6a25d2657e0b05a71688ac220935d7946a00001976a9143cc9ede1da2d7351aaebaf6a25d2657e0b05a71688ac00000000",
  "txid": "0834641a7d30d8a2d2b451617599670445ee94ed7736e146c13be260c576c641",
  "size": 234,
  "version": 1,
  "locktime": 0,
  "vin": [
    {
      "txid": "585cec5009c8ca19e83e33d282a6a8de65eb2ca007b54d6572167703768967d9",
      "vout": 2,
      "scriptSig": {
        "asm": "3044022059a0cc21ad24ae18726d128c85328a0b54dab62aeb41ffbcad368ece6fdf9d2602200e477332401ce1296d379dc5f797720e854e40fc5af0a268f585e7dae64d38e5[ALL] 03624fbfb0079e85bbc9aaeba6f48581326ad01194b3c54ce22852a27b1d2892d1",
        "hex": "473044022059a0cc21ad24ae18726d128c85328a0b54dab62aeb41ffbcad368ece6fdf9d2602200e477332401ce1296d379dc5f797720e854e40fc5af0a268f585e7dae64d38e5012103624fbfb0079e85bbc9aaeba6f48581326ad01194b3c54ce22852a27b1d2892d1"
      },
      "value": 2343749.96562500,
      "valueSat": 234374996562500,
      "address": "XgEGH3y7RfeKEdn2hkYEvBnrnmGBr7zvjL",
      "sequence": 4294967295
    }
  ],
  "vout": [
    {
      "value": 0.00000000,
      "valueSat": 0,
      "n": 0,
      "scriptPubKey": {
        "asm": "",
        "hex": "",
        "type": "nonstandard"
      }
    },
    {
      "value": 1171874.98281250,
      "valueSat": 117187498281250,
      "n": 1,
      "scriptPubKey": {
        "asm": "OP_DUP OP_HASH160 3cc9ede1da2d7351aaebaf6a25d2657e0b05a716 OP_EQUALVERIFY OP_CHECKSIG",
        "hex": "76a9143cc9ede1da2d7351aaebaf6a25d2657e0b05a71688ac",
        "reqSigs": 1,
        "type": "pubkeyhash",
        "addresses": [
          "XgEGH3y7RfeKEdn2hkYEvBnrnmGBr7zvjL"
        ]
      },
      "spentTxId": "5b8d857b64870f01263eb3b1e22adc32fc942df5b4aab709d80e15e828878c79",
      "spentIndex": 0,
      "spentHeight": 893
    },
    {
      "value": 1171874.98281250,
      "valueSat": 117187498281250,
      "n": 2,
      "scriptPubKey": {
        "asm": "OP_DUP OP_HASH160 3cc9ede1da2d7351aaebaf6a25d2657e0b05a716 OP_EQUALVERIFY OP_CHECKSIG",
        "hex": "76a9143cc9ede1da2d7351aaebaf6a25d2657e0b05a71688ac",
        "reqSigs": 1,
        "type": "pubkeyhash",
        "addresses": [
          "XgEGH3y7RfeKEdn2hkYEvBnrnmGBr7zvjL"
        ]
      },
      "spentTxId": "5fd7c87b26f60acfdc665b956405d587b8638191327aa504add325ef93cbf7f9",
      "spentIndex": 0,
      "spentHeight": 890
    }
  ],
  "blockhash": "b72dd1655408e9307ef5874be20422ee71029333283e2360975bc6073bdb2b81",
  "height": 809,
  "confirmations": 33131,
  "time": 1520318120,
  "blocktime": 1520318120
}