{
  "txid": "08bc248ef36158e88867143129a35bc0e7d2d4affa0e4c3b9f4991fec86e6644",
  "hash": "08bc248ef36158e88867143129a35bc0e7d2d4affa0e4c3b9f4991fec86e6644",
  "version": 1,
  "size": 268,
  "vsize": 268,
  "weight": 1072,
  "locktime": 0,
  "vin": [
    {
      "txid": "a998adc58106cda44791c78e268c45dd797c0e3226d4083c9fc8cf2090ee0424",
      "vout": 1,
      "scriptSig": {
        "asm": "304402203d02515a2af01698e922fac47b1c145038e783abb930bf5e6f37ebfe9f3e137502207ef05ab7034ca7e2c186aa7cb5809eade81288f55dae73e34602878efcbbb65c[ALL] 03d2eea4d434ca7638dba967a059fd935bfb11b6febee22c65a6a2cfc90bc84ee9",
        "hex": "47304402203d02515a2af01698e922fac47b1c145038e783abb930bf5e6f37ebfe9f3e137502207ef05ab7034ca7e2c186aa7cb5809eade81288f55dae73e34602878efcbbb65c012103d2eea4d434ca7638dba967a059fd935bfb11b6febee22c65a6a2cfc90bc84ee9"
      },
      "sequence": 4294967295
    }
  ],
  "vout": [
    {
      "value": 0,
      "n": 0,
      "scriptPubKey": {
        "asm": "",
        "hex": "",
        "type": "nonstandard"
      }
    },
    {
      "value": 245009.16352694,
      "n": 1,
      "scriptPubKey": {
        "asm": "OP_DUP OP_HASH160 d08c17bf53ac57f9f9678215c15155709cf6f090 OP_EQUALVERIFY OP_CHECKSIG",
        "hex": "76a914d08c17bf53ac57f9f9678215c15155709cf6f09088ac",
        "reqSigs": 1,
        "type": "pubkeyhash",
        "addresses": [
          "XuhYCyDPtgsjhKbNqzja6aiFWbzYF7y1W3"
        ]
      }
    },
    {
      "value": 244986.66352694,
      "n": 2,
      "scriptPubKey": {
        "asm": "OP_DUP OP_HASH160 d08c17bf53ac57f9f9678215c15155709cf6f090 OP_EQUALVERIFY OP_CHECKSIG",
        "hex": "76a914d08c17bf53ac57f9f9678215c15155709cf6f09088ac",
        "reqSigs": 1,
        "type": "pubkeyhash",
        "addresses": [
          "XuhYCyDPtgsjhKbNqzja6aiFWbzYF7y1W3"
        ]
      }
    },
    {
      "value": 22.5,
      "n": 3,
      "scriptPubKey": {
        "asm": "OP_DUP OP_HASH160 0c3a370d92eae2c7536779b5e540e65ae6c6251e OP_EQUALVERIFY OP_CHECKSIG",
        "hex": "76a9140c3a370d92eae2c7536779b5e540e65ae6c6251e88ac",
        "reqSigs": 1,
        "type": "pubkeyhash",
        "addresses": [
          "XboVgQd1Lvz3Ap1cKC24bJRX6qfD7PPXZv"
        ]
      }
    }
  ],
  "hex": "01000000012404ee9020cfc89f3c08d426320e7c79dd458c268ec79147a4cd0681c5ad98a9010000006a47304402203d02515a2af01698e922fac47b1c145038e783abb930bf5e6f37ebfe9f3e137502207ef05ab7034ca7e2c186aa7cb5809eade81288f55dae73e34602878efcbbb65c012103d2eea4d434ca7638dba967a059fd935bfb11b6febee22c65a6a2cfc90bc84ee9ffffffff04000000000000000000b6766a90481600001976a914d08c17bf53ac57f9f9678215c15155709cf6f09088ac36304e0a481600001976a914d08c17bf53ac57f9f9678215c15155709cf6f09088ac80461c86000000001976a9140c3a370d92eae2c7536779b5e540e65ae6c6251e88ac00000000",
  "blockhash": "cb521f4776dd5e3255c3a05504bfc2deca9529c4afec620efa0fe3ca266de55e",
  "confirmations": 1634895,
  "time": 1522618527,
  "blocktime": 1522618527
}