{
  "txid": "1361d3574b9091557e62732b7da30f0c10e1411ba2d30973afb41e489e0993fe",
  "hash": "1361d3574b9091557e62732b7da30f0c10e1411ba2d30973afb41e489e0993fe",
  "version": 1,
  "size": 234,
  "vsize": 234,
  "weight": 936,
  "locktime": 0,
  "vin": [
    {
      "txid": "533ddceab3774b117c81c994663f69a40cebae0a9d80db6ff64db8fe2a97b051",
      "vout": 1,
      "scriptSig": {
        "asm": "304402200a0825834e6f912c26854a851e59d171c9fd839f7e61644dfe6588370da0657202202c6f9e08ffc6e9bb9b287157a66d4fb14e663524d8e5018bda555f5352fc4c9d[ALL] 03624fbfb0079e85bbc9aaeba6f48581326ad01194b3c54ce22852a27b1d2892d1",
        "hex": "47304402200a0825834e6f912c26854a851e59d171c9fd839f7e61644dfe6588370da0657202202c6f9e08ffc6e9bb9b287157a66d4fb14e663524d8e5018bda555f5352fc4c9d012103624fbfb0079e85bbc9aaeba6f48581326ad01194b3c54ce22852a27b1d2892d1"
      },
      "sequence": 4294967295
    }
  ],
  "vout": [
    {
      "value": 0,
      "n": 0,
      "scriptPubKey": {
        "asm": "",
        "hex": "",
        "type": "nonstandard"
      }
    },
    {
      "value": 73242.18642578,
      "n": 1,
      "scriptPubKey": {
        "asm": "OP_DUP OP_HASH160 3cc9ede1da2d7351aaebaf6a25d2657e0b05a716 OP_EQUALVERIFY OP_CHECKSIG",
        "hex": "76a9143cc9ede1da2d7351aaebaf6a25d2657e0b05a71688ac",
        "reqSigs": 1,
        "type": "pubkeyhash",
        "addresses": [
          "XgEGH3y7RfeKEdn2hkYEvBnrnmGBr7zvjL"
        ]
      }
    },
    {
      "value": 73242.18642578,
      "n": 2,
      "scriptPubKey": {
        "asm": "OP_DUP OP_HASH160 3cc9ede1da2d7351aaebaf6a25d2657e0b05a716 OP_EQUALVERIFY OP_CHECKSIG",
        "hex": "76a9143cc9ede1da2d7351aaebaf6a25d2657e0b05a71688ac",
        "reqSigs": 1,
        "type": "pubkeyhash",
        "addresses": [
          "XgEGH3y7RfeKEdn2hkYEvBnrnmGBr7zvjL"
        ]
      }
    }
  ],
  "hex": "010000000151b0972afeb84df66fdb809d0aaeeb0ca4693f6694c9817c114b77b3eadc3d53010000006a47304402200a0825834e6f912c26854a851e59d171c9fd839f7e61644dfe6588370da0657202202c6f9e08ffc6e9bb9b287157a66d4fb14e663524d8e5018bda555f5352fc4c9d012103624fbfb0079e85bbc9aaeba6f48581326ad01194b3c54ce22852a27b1d2892d1ffffffff030000000000000000009250734da90600001976a9143cc9ede1da2d7351aaebaf6a25d2657e0b05a71688ac9250734da90600001976a9143cc9ede1da2d7351aaebaf6a25d2657e0b05a71688ac00000000",
  "blockhash": "fd067f15e759fd17dde4501cf755518be8b85eb77ed3f28fdd240dbc29841337",
  "confirmations": 587629,
  "time": 1520393339,
  "blocktime": 1520393339
}