{
  "hex": "01000000010000000000000000000000000000000000000000000000000000000000000000ffffffff03530101ffffffff010000000000000000232103e8c52f2c5155771492907095753a43ce776e1fa7c5e769a67a9f3db4467ec029ac00000000",
  "txid": "1e591eae200f719344fc5df0c4286e3fb191fb8a645bdf054f9b36a856fce41e",
  "size": 98,
  "version": 1,
  "locktime": 0,
  "vin": [
    {
      "coinbase": "530101",
      "sequence": 4294967295
    }
  ],
  "vout": [
    {
      "value": 0.00000000,
      "valueSat": 0,
      "n": 0,
      "scriptPubKey": {
        "asm": "03e8c52f2c5155771492907095753a43ce776e1fa7c5e769a67a9f3db4467ec029 OP_CHECKSIG",
        "hex": "2103e8c52f2c5155771492907095753a43ce776e1fa7c5e769a67a9f3db4467ec029ac",
        "reqSigs": 1,
        "type": "pubkey",
        "addresses": [
          "XdJnCKYNwzCz8ATv8Eu75gonaHyfr9qXg9"
        ]
      }
    }
  ],
  "blockhash": "00000766115b26ecbc09cd3a3db6870fdaf2f049d65a910eb2f2b48b566ca7bd",
  "height": 3,
  "confirmations": 46851,
  "time": 1520276303,
  "blocktime": 1520276303
}