{
  "txid": "2113eba36effc9e2cb60807ac1d999c078105a76d94cff7b37002cfac8a0da6b",
  "hash": "7505256b91d7f46db21968c6d31236d52fe0c062e150270f51c341808c8ee891",
  "version": 2,
  "size": 2328,
  "vsize": 2235,
  "weight": 8940,
  "locktime": 1406946,
  "vin": [
    {
      "txid": "a9c25b1e90e528b1b01b6d701700fea43b893b6963b2f0d7e22bda2a9ea4e60e",
      "vout": 1,
      "scriptSig": {
        "asm": "304402203820b5ccf8438907620a95704b8d25f903013215b4392d84aa00fe9339501acb022077f181d488d10bff94773a9b4541d883b29957fd0509d289a837ab3b5bdaecf3[ALL] 03488ae10abfd1dac4a3a0c3c0383bc5dd43a09bf79c58f96a554ac46b6074f239",
        "hex": "47304402203820b5ccf8438907620a95704b8d25f903013215b4392d84aa00fe9339501acb022077f181d488d10bff94773a9b4541d883b29957fd0509d289a837ab3b5bdaecf3012103488ae10abfd1dac4a3a0c3c0383bc5dd43a09bf79c58f96a554ac46b6074f239"
      },
      "sequence": 4294967293
    },
    {
      "txid": "af6c5c514ad150e655de58da0dd44113015ed17f9849912aeab16b5971cb7edf",
      "vout": 1,
      "scriptSig": {
        "asm": "3045022100edf2da7d6d7befbe3cbaf2e309a2f9e080aaebd339a2e54f3443e911c5385265022050f8cd01ec6c02f31543286c3fe3bdb2237f68421ec40961dca65a2cf2a7f867[ALL] 02e9d5c21944655ad21d66220b0ba9a0df3c19a054df20d313b45373abdfc140bd",
        "hex": "483045022100edf2da7d6d7befbe3cbaf2e309a2f9e080aaebd339a2e54f3443e911c5385265022050f8cd01ec6c02f31543286c3fe3bdb2237f68421ec40961dca65a2cf2a7f867012102e9d5c21944655ad21d66220b0ba9a0df3c19a054df20d313b45373abdfc140bd"
      },
      "sequence": 4294967293
    },
    {
      "txid": "e4918fc79780b5964d5a3b4b6ea9afadfef3e3cf7c91e93acf6af036b9d39d28",
      "vout": 1,
      "scriptSig": {
        "asm": "30440220169739c81de64a0f5c43cfe10b983b08d6eadcca30796640e9db40081e0e4d5402202ac7700efb95467077d1ffd48e760363f0c98952c6c11309eda97ae9faab3b24[ALL] 020516d27192cdd372301d2a80215472f9532fa442a515ad678f8aad7ba3700c68",
        "hex": "4730440220169739c81de64a0f5c43cfe10b983b08d6eadcca30796640e9db40081e0e4d5402202ac7700efb95467077d1ffd48e760363f0c98952c6c11309eda97ae9faab3b240121020516d27192cdd372301d2a80215472f9532fa442a515ad678f8aad7ba3700c68"
      },
      "sequence": 4294967293
    },
    {
      "txid": "a15831424a95b22f23bb6c3348f4f44aeb4cdc1050a8526e90def9f8b9fc5219",
      "vout": 1,
      "scriptSig": {
        "asm": "3045022100e4283671d020b6bc1eb32da4d053a786fc207c2afec9336e0195b4da7331d9f9022041c167004eacc28f60b34b21978d30b095e5740959fa0db3e6b3df730650c8d5[ALL] 02b60c9b545f8e1550016be02cdf3f640ea7634e13b50259be7241e886543ed2dd",
        "hex": "483045022100e4283671d020b6bc1eb32da4d053a786fc207c2afec9336e0195b4da7331d9f9022041c167004eacc28f60b34b21978d30b095e5740959fa0db3e6b3df730650c8d5012102b60c9b545f8e1550016be02cdf3f640ea7634e13b50259be7241e886543ed2dd"
      },
      "sequence": 4294967293
    },
    {
      "txid": "328e3508ddfeb2c7e1f6cbc58075a3700fc532c3d454f573c245dd9f9ca08f94",
      "vout": 1,
      "scriptSig": {
        "asm": "3045022100fe807fcaa608dcddaf5934bfd4c238608babba00d5951407fac3dc4f872bdb8d0220230513dcbf69b1627c3624c88a834f6dc5753f6d55fd904cc08d67688e22e50c[ALL] 03a862dbc98b2c6e7aa12fc35e5a6ae82d80eea2e55608beb997cfd705831b79a3",
        "hex": "483045022100fe807fcaa608dcddaf5934bfd4c238608babba00d5951407fac3dc4f872bdb8d0220230513dcbf69b1627c3624c88a834f6dc5753f6d55fd904cc08d67688e22e50c012103a862dbc98b2c6e7aa12fc35e5a6ae82d80eea2e55608beb997cfd705831b79a3"
      },
      "sequence": 4294967293
    },
    {
      "txid": "9b0c7c2661ec02c184a4c6c79af8eab66d18d18e31d75181d0f1a2dfafab0ea2",
      "vout": 1,
      "scriptSig": {
        "asm": "3045022100c6e48ee5e66e4fab4a04f17611006e50a4ae6c8e639cb37468511d74c60609cd02206bea2a65620402aae85fb9ed7feada7260b9d8f66cc9ae459dd7b8487e7bd5ac[ALL] 03f250e84582954b9db37f58a3b43b9fb06764ba2405b2deede89141668d330234",
        "hex": "483045022100c6e48ee5e66e4fab4a04f17611006e50a4ae6c8e639cb37468511d74c60609cd02206bea2a65620402aae85fb9ed7feada7260b9d8f66cc9ae459dd7b8487e7bd5ac012103f250e84582954b9db37f58a3b43b9fb06764ba2405b2deede89141668d330234"
      },
      "sequence": 4294967293
    },
    {
      "txid": "8febfe94c1315c830b78cb39edcbc74154da0307a72ac2b7d8ff08910a8e6f9c",
      "vout": 1,
      "scriptSig": {
        "asm": "3045022100c5d9c419f6b7afee1e9d5f389c46fc2e63e5bca8158b6bcf4085e39802df1ecc02201a04f5f82bee4604f910d53b08baf381f0513f06f441e38a0302d33f9f5f9f6c[ALL] 0355804a6e553040efe79c85879cba24419ffac3c22e3137686570f36eada4c538",
        "hex": "483045022100c5d9c419f6b7afee1e9d5f389c46fc2e63e5bca8158b6bcf4085e39802df1ecc02201a04f5f82bee4604f910d53b08baf381f0513f06f441e38a0302d33f9f5f9f6c01210355804a6e553040efe79c85879cba24419ffac3c22e3137686570f36eada4c538"
      },
      "sequence": 4294967293
    },
    {
      "txid": "7d0fb328aaaf18dfe15727c14ffb952974245bcffd27b90841c91906e61e609a",
      "vout": 1,
      "scriptSig": {
        "asm": "3045022100efbd56544ee995001ede805cb57040b803a0454053b82eeba10067ab38b0774a02205cf8db3f22d9d547009c2fb110295a4d0f98af199eb13a5b48d09098b55a3b9c[ALL] 02c5dc65609c922a70fef0f5f4f7268b4663f2a87553c21b4b1046067f847dc93f",
        "hex": "483045022100efbd56544ee995001ede805cb57040b803a0454053b82eeba10067ab38b0774a02205cf8db3f22d9d547009c2fb110295a4d0f98af199eb13a5b48d09098b55a3b9c012102c5dc65609c922a70fef0f5f4f7268b4663f2a87553c21b4b1046067f847dc93f"
      },
      "sequence": 4294967293
    },
    {
      "txid": "1617008d2d66df5261d96fffbc3ae7676af924d24fabd6e8f6ea18f91e26ebaa",
      "vout": 1,
      "scriptSig": {
        "asm": "304402206033ffd081d3f0cf92c517fc03da255f1ed82d340ea8a12e26af9fc6a51125f7022018691d68715057c00209958a644d9532489d5ce3f1112ad459b1054a99ca1f52[ALL] 036d0c865ea5150e9282fc28e60a1b33240e6449521785e728ab1fb0114bf1c2d0",
        "hex": "47304402206033ffd081d3f0cf92c517fc03da255f1ed82d340ea8a12e26af9fc6a51125f7022018691d68715057c00209958a644d9532489d5ce3f1112ad459b1054a99ca1f520121036d0c865ea5150e9282fc28e60a1b33240e6449521785e728ab1fb0114bf1c2d0"
      },
      "sequence": 4294967293
    },
    {
      "txid": "e3198123e3ba1b6e0bcd917ed8a87705c81faf52b66bf3d59d68644e8ce8880b",
      "vout": 1,
      "scriptSig": {
        "asm": "3044022000b3cd31481b0cf52ef3da048664a352c37183fcbe3a8da3819a996a22ddb4e102203ab7112051bbe635825573dc536644e21404a53a701bed73e03bfb8eabb5e5c5[ALL] 024ced738d99169b5ad4c510a9d3f308b4141d86e5d0cf8258e9d9c4cfe2907e34",
        "hex": "473044022000b3cd31481b0cf52ef3da048664a352c37183fcbe3a8da3819a996a22ddb4e102203ab7112051bbe635825573dc536644e21404a53a701bed73e03bfb8eabb5e5c50121024ced738d99169b5ad4c510a9d3f308b4141d86e5d0cf8258e9d9c4cfe2907e34"
      },
      "sequence": 4294967293
    },
    {
      "txid": "b22bb50c35d3c128faa4799142636d94bb3c237356c09f8b78c1650ea3f00f7f",
      "vout": 0,
      "scriptSig": {
        "asm": "0014def03dfc28a38bcbe071884b66aef2bf0675ec78",
        "hex": "160014def03dfc28a38bcbe071884b66aef2bf0675ec78"
      },
      "txinwitness": [
        "3045022100ac72613cbc31856d486e57b21f5336c9e93a1444934dd573750169db6b942717022068d75cc3d5aeb8df9df3c653622d6723752a3aecba0ed0ce29822883c4bcebd801",
        "038d99052f748483b3ee8647958f82ee414561b5333d18dcf6045a83de7966e962"
      ],
      "sequence": 4294967293
    },
    {
      "txid": "555c924f71dbaf36f0ad08026a57bbf4014480a867cb5c1f827f91a7a91e5a22",
      "vout": 1,
      "scriptSig": {
        "asm": "3045022100b78c0953a9aef413c454ab3d5ae33a92e3eab74529499fc9a494f711c46ffd7902203c7d92cf868677ae74cbd0e87d888f2f365d88042452c8cdd6393102bef1b362[ALL] 02ad91e6f2c9c2f5ad537a075a1127c687265a6264fd2ba2f04fb3d04d5c7c160b",
        "hex": "483045022100b78c0953a9aef413c454ab3d5ae33a92e3eab74529499fc9a494f711c46ffd7902203c7d92cf868677ae74cbd0e87d888f2f365d88042452c8cdd6393102bef1b362012102ad91e6f2c9c2f5ad537a075a1127c687265a6264fd2ba2f04fb3d04d5c7c160b"
      },
      "sequence": 4294967293
    },
    {
      "txid": "11c13d389292993e5706ebb6d3b45ff8f4d27f44f8d1e9962d7190e9c82760a8",
      "vout": 1,
      "scriptSig": {
        "asm": "3045022100fe9545edf143bcb86cf3592d119e74e38f9fca085932dd8e2fb129f5276f9360022030bfe8a77bc01a4e286fcdc9c62a2a5a579d26c2a9f3efc57ee6bafc16e11d5d[ALL] 02c6892a9fc3c39bdf0775388cd1c38b4c42fa1dc444c82740af095ef5ac99af7d",
        "hex": "483045022100fe9545edf143bcb86cf3592d119e74e38f9fca085932dd8e2fb129f5276f9360022030bfe8a77bc01a4e286fcdc9c62a2a5a579d26c2a9f3efc57ee6bafc16e11d5d012102c6892a9fc3c39bdf0775388cd1c38b4c42fa1dc444c82740af095ef5ac99af7d"
      },
      "sequence": 4294967293
    },
    {
      "txid": "70aecfb694f3dd036d508c8f5cc1aa6efe079974c26563fafc2899e859481cdd",
      "vout": 1,
      "scriptSig": {
        "asm": "3044022052a5bedb3bf50993f3713428b1a71b2cf161ae194e50381adbb84af9a3c8f75202204623e06ec5a4a472c2c9b5d74a57f1e6098227e10e2ad5132deb090c95cf4fa9[ALL] 0324a560e0da215a6ca36a010beb55ab658d5fb1e08fd62d08fee1b6cd463265f8",
        "hex": "473044022052a5bedb3bf50993f3713428b1a71b2cf161ae194e50381adbb84af9a3c8f75202204623e06ec5a4a472c2c9b5d74a57f1e6098227e10e2ad5132deb090c95cf4fa901210324a560e0da215a6ca36a010beb55ab658d5fb1e08fd62d08fee1b6cd463265f8"
      },
      "sequence": 4294967293
    },
    {
      "txid": "5a8533f47d57acf0a86566ddec177660a9acd9f853b254dbe7b5c2a3b7b2a499",
      "vout": 1,
      "scriptSig": {
        "asm": "304402206f628ed6038cf9b7d63741b106285365364ed91aa04c15244ef56704de9816ab02205f755e7372013ce68fb020dbcd19b741e70ef5f798779c0ed9aaedc34d88732c[ALL] 034a22cbc4a3147dcaadf8b533ef722e57c89891726f50e7dad93b7ea25f1c7b37",
        "hex": "47304402206f628ed6038cf9b7d63741b106285365364ed91aa04c15244ef56704de9816ab02205f755e7372013ce68fb020dbcd19b741e70ef5f798779c0ed9aaedc34d88732c0121034a22cbc4a3147dcaadf8b533ef722e57c89891726f50e7dad93b7ea25f1c7b37"
      },
      "sequence": 4294967293
    }
  ],
  "vout": [
    {
      "value": 0.99826328,
      "n": 0,
      "scriptPubKey": {
        "asm": "OP_HASH160 0b3fa54c6fdab3424b6b8c26e2ae31cc20925702 OP_EQUAL",
        "hex": "a9140b3fa54c6fdab3424b6b8c26e2ae31cc2092570287",
        "reqSigs": 1,
        "type": "scripthash",
        "addresses": [
          "7TS8S2dd3pU3ZDDPXY7mG6LxrtKqg676RS"
        ]
      }
    },
    {
      "value": 200000,
      "n": 1,
      "scriptPubKey": {
        "asm": "OP_HASH160 e6720cf77f05ee3526181876814964d81d346983 OP_EQUAL",
        "hex": "a914e6720cf77f05ee3526181876814964d81d34698387",
        "reqSigs": 1,
        "type": "scripthash",
        "addresses": [
          "7oR8oEisWkdRXZ3DNj6vQSC4Q2EaJBK7p2"
        ]
      }
    }
  ],
  "hex": "0200000000010f0ee6a49e2ada2be2d7f0b263693b893ba4fe0017706d1bb0b128e5901e5bc2a9010000006a47304402203820b5ccf8438907620a95704b8d25f903013215b4392d84aa00fe9339501acb022077f181d488d10bff94773a9b4541d883b29957fd0509d289a837ab3b5bdaecf3012103488ae10abfd1dac4a3a0c3c0383bc5dd43a09bf79c58f96a554ac46b6074f239fdffffffdf7ecb71596bb1ea2a9149987fd15e011341d40dda58de55e650d14a515c6caf010000006b483045022100edf2da7d6d7befbe3cbaf2e309a2f9e080aaebd339a2e54f3443e911c5385265022050f8cd01ec6c02f31543286c3fe3bdb2237f68421ec40961dca65a2cf2a7f867012102e9d5c21944655ad21d66220b0ba9a0df3c19a054df20d313b45373abdfc140bdfdffffff289dd3b936f06acf3ae9917ccfe3f3feadafa96e4b3b5a4d96b58097c78f91e4010000006a4730440220169739c81de64a0f5c43cfe10b983b08d6eadcca30796640e9db40081e0e4d5402202ac7700efb95467077d1ffd48e760363f0c98952c6c11309eda97ae9faab3b240121020516d27192cdd372301d2a80215472f9532fa442a515ad678f8aad7ba3700c68fdffffff1952fcb9f8f9de906e52a85010dc4ceb4af4f448336cbb232fb2954a423158a1010000006b483045022100e4283671d020b6bc1eb32da4d053a786fc207c2afec9336e0195b4da7331d9f9022041c167004eacc28f60b34b21978d30b095e5740959fa0db3e6b3df730650c8d5012102b60c9b545f8e1550016be02cdf3f640ea7634e13b50259be7241e886543ed2ddfdffffff948fa09c9fdd45c273f554d4c332c50f70a37580c5cbf6e1c7b2fedd08358e32010000006b483045022100fe807fcaa608dcddaf5934bfd4c238608babba00d5951407fac3dc4f872bdb8d0220230513dcbf69b1627c3624c88a834f6dc5753f6d55fd904cc08d67688e22e50c012103a862dbc98b2c6e7aa12fc35e5a6ae82d80eea2e55608beb997cfd705831b79a3fdffffffa20eabafdfa2f1d08151d7318ed1186db6eaf89ac7c6a484c102ec61267c0c9b010000006b483045022100c6e48ee5e66e4fab4a04f17611006e50a4ae6c8e639cb37468511d74c60609cd02206bea2a65620402aae85fb9ed7feada7260b9d8f66cc9ae459dd7b8487e7bd5ac012103f250e84582954b9db37f58a3b43b9fb06764ba2405b2deede89141668d330234fdffffff9c6f8e0a9108ffd8b7c22aa70703da5441c7cbed39cb780b835c31c194feeb8f010000006b483045022100c5d9c419f6b7afee1e9d5f389c46fc2e63e5bca8158b6bcf4085e39802df1ecc02201a04f5f82bee4604f910d53b08baf381f0513f06f441e38a0302d33f9f5f9f6c01210355804a6e553040efe79c85879cba24419ffac3c22e3137686570f36eada4c538fdffffff9a601ee60619c94108b927fdcf5b24742995fb4fc12757e1df18afaa28b30f7d010000006b483045022100efbd56544ee995001ede805cb57040b803a0454053b82eeba10067ab38b0774a02205cf8db3f22d9d547009c2fb110295a4d0f98af199eb13a5b48d09098b55a3b9c012102c5dc65609c922a70fef0f5f4f7268b4663f2a87553c21b4b1046067f847dc93ffdffffffaaeb261ef918eaf6e8d6ab4fd224f96a67e73abcff6fd96152df662d8d001716010000006a47304402206033ffd081d3f0cf92c517fc03da255f1ed82d340ea8a12e26af9fc6a51125f7022018691d68715057c00209958a644d9532489d5ce3f1112ad459b1054a99ca1f520121036d0c865ea5150e9282fc28e60a1b33240e6449521785e728ab1fb0114bf1c2d0fdffffff0b88e88c4e64689dd5f36bb652af1fc80577a8d87e91cd0b6e1bbae3238119e3010000006a473044022000b3cd31481b0cf52ef3da048664a352c37183fcbe3a8da3819a996a22ddb4e102203ab7112051bbe635825573dc536644e21404a53a701bed73e03bfb8eabb5e5c50121024ced738d99169b5ad4c510a9d3f308b4141d86e5d0cf8258e9d9c4cfe2907e34fdffffff7f0ff0a30e65c1788b9fc05673233cbb946d63429179a4fa28c1d3350cb52bb20000000017160014def03dfc28a38bcbe071884b66aef2bf0675ec78fdffffff225a1ea9a7917f821f5ccb67a8804401f4bb576a0208adf036afdb714f925c55010000006b483045022100b78c0953a9aef413c454ab3d5ae33a92e3eab74529499fc9a494f711c46ffd7902203c7d92cf868677ae74cbd0e87d888f2f365d88042452c8cdd6393102bef1b362012102ad91e6f2c9c2f5ad537a075a1127c687265a6264fd2ba2f04fb3d04d5c7c160bfdffffffa86027c8e990712d96e9d1f8447fd2f4f85fb4d3b6eb06573e999292383dc111010000006b483045022100fe9545edf143bcb86cf3592d119e74e38f9fca085932dd8e2fb129f5276f9360022030bfe8a77bc01a4e286fcdc9c62a2a5a579d26c2a9f3efc57ee6bafc16e11d5d012102c6892a9fc3c39bdf0775388cd1c38b4c42fa1dc444c82740af095ef5ac99af7dfdffffffdd1c4859e89928fcfa6365c2749907fe6eaac15c8f8c506d03ddf394b6cfae70010000006a473044022052a5bedb3bf50993f3713428b1a71b2cf161ae194e50381adbb84af9a3c8f75202204623e06ec5a4a472c2c9b5d74a57f1e6098227e10e2ad5132deb090c95cf4fa901210324a560e0da215a6ca36a010beb55ab658d5fb1e08fd62d08fee1b6cd463265f8fdffffff99a4b2b7a3c2b5e7db54b253f8d9aca9607617ecdd6665a8f0ac577df433855a010000006a47304402206f628ed6038cf9b7d63741b106285365364ed91aa04c15244ef56704de9816ab02205f755e7372013ce68fb020dbcd19b741e70ef5f798779c0ed9aaedc34d88732c0121034a22cbc4a3147dcaadf8b533ef722e57c89891726f50e7dad93b7ea25f1c7b37fdffffff02983af3050000000017a9140b3fa54c6fdab3424b6b8c26e2ae31cc20925702870040e59c3012000017a914e6720cf77f05ee3526181876814964d81d346983870000000000000000000002483045022100ac72613cbc31856d486e57b21f5336c9e93a1444934dd573750169db6b942717022068d75cc3d5aeb8df9df3c653622d6723752a3aecba0ed0ce29822883c4bcebd80121038d99052f748483b3ee8647958f82ee414561b5333d18dcf6045a83de7966e96200000000e2771500",
  "blockhash": "612f41557c318c6b25c0830e9312c9579ee507b4928c26d98f581ae011448c7e",
  "confirmations": 264582,
  "time": 1605631411,
  "blocktime": 1605631411
}