{
  "txid": "33c492af908aa33aa078571f703fc75e82154272cd8e5a8da88ce13ba3b009a5",
  "hash": "33c492af908aa33aa078571f703fc75e82154272cd8e5a8da88ce13ba3b009a5",
  "version": 2,
  "size": 162,
  "vsize": 162,
  "weight": 648,
  "locktime": 0,
  "vin": [
    {
      "txid": "808bd50d4edc8056428ec2041af06f31242e0c8639035670a0a67ff58e8692d3",
      "vout": 1,
      "scriptSig": {
        "asm": "",
        "hex": ""
      },
      "sequence": 4294967295
    }
  ],
  "vout": [
    {
      "value": 0,
      "n": 0,
      "scriptPubKey": {
        "asm": "",
        "hex": "",
        "type": "nonstandard"
      }
    },
    {
      "value": 2934.37213072,
      "n": 1,
      "scriptPubKey": {
        "asm": "OP_DUP OP_HASH160 2fc6c22cc08c7da31a9b4a82fc59ec35adb50603 OP_EQUALVERIFY OP_CHECKSIG",
        "hex": "76a9142fc6c22cc08c7da31a9b4a82fc59ec35adb5060388ac",
        "reqSigs": 1,
        "type": "pubkeyhash",
        "addresses": [
          "Xf3ThFZVPE8MwNF3ZQ2gmUJuNKYFLgcJgf"
        ]
      }
    },
    {
      "value": 0.45,
      "n": 2,
      "scriptPubKey": {
        "asm": "OP_DUP OP_HASH160 425f01700da8a7b37b62da55e5375ab3c10ac850 OP_EQUALVERIFY OP_CHECKSIG",
        "hex": "76a914425f01700da8a7b37b62da55e5375ab3c10ac85088ac",
        "reqSigs": 1,
        "type": "pubkeyhash",
        "addresses": [
          "XgjnF28CLXnWQYGJMMzRzQrJdUPihG2e8G"
        ]
      }
    },
    {
      "value": 9,
      "n": 3,
      "scriptPubKey": {
        "asm": "OP_DUP OP_HASH160 d477431a885bba9d37f51ab22f20f7c2fb6e9683 OP_EQUALVERIFY OP_CHECKSIG",
        "hex": "76a914d477431a885bba9d37f51ab22f20f7c2fb6e968388ac",
        "reqSigs": 1,
        "type": "pubkeyhash",
        "addresses": [
          "Xv4FxQ6vhQ62vbnebJEJsskSW9TWGJGsYv"
        ]
      }
    }
  ],
  "hex": "0200000001d392868ef57fa6a070560339860c2e24316ff01a04c28e425680dc4e0dd58b800100000000ffffffff0400000000000000000090893852440000001976a9142fc6c22cc08c7da31a9b4a82fc59ec35adb5060388ac40a5ae02000000001976a914425f01700da8a7b37b62da55e5375ab3c10ac85088ac00e9a435000000001976a914d477431a885bba9d37f51ab22f20f7c2fb6e968388ac00000000",
  "blockhash": "66cec40d99362a9925acfbe5ee3e788aaac0ce52d5c36b702320d7ec0bf587cf",
  "confirmations": 782027,
  "time": 1574954378,
  "blocktime": 1574954378
}