{
  "hex": "01000000010000000000000000000000000000000000000000000000000000000000000000ffffffff03550101ffffffff010000000000000000232103f46aecb86ca6f0404f9339e6ff242d82cd36e23612bad62f840986a570ddfd13ac00000000",
  "txid": "41e315108dc2df60caddbc7e8740a5614217f996c96898019e69b3195fd7ee10",
  "size": 98,
  "version": 1,
  "locktime": 0,
  "vin": [
    {
      "coinbase": "550101",
      "sequence": 4294967295
    }
  ],
  "vout": [
    {
      "value": 0,
      "valueSat": 0,
      "n": 0,
      "scriptPubKey": {
        "asm": "03f46aecb86ca6f0404f9339e6ff242d82cd36e23612bad62f840986a570ddfd13 OP_CHECKSIG",
        "hex": "2103f46aecb86ca6f0404f9339e6ff242d82cd36e23612bad62f840986a570ddfd13ac",
        "reqSigs": 1,
        "type": "pubkey",
        "addresses": [
          "XcqpUChZhNkVDgQqFF9U4DdewDGUMWwG53"
        ]
      }
    }
  ],
  "blockhash": "00000267225f7dba55d9a3493740e7f0dde0f28a371d2c3b42e7676b5728d020",
  "height": 5,
  "confirmations": 163490,
  "time": 1520276359,
  "blocktime": 1520276359
}