{
    "txid": "5789a36b0d64cdbfd45f52d36d26e803f38230f38abaa354df6c900441dcedac",
    "hash": "13c7d8fa4f1009191039aee9b2f157d8209c0ae2f3a821a2976a1ab4c7feb7d2",
    "version": 2,
    "size": 222,
    "vsize": 141,
    "weight": 561,
    "locktime": 2408829,
    "vin": [
        {
            "txid": "ff82c8c789eee96f67d09db48b5018000df9576830c10a25b72412efd81c6267",
            "vout": 0,
            "scriptSig": {
                "asm": "",
                "hex": ""
            },
            "txinwitness": [
                "304402203c5d8b741e00c8c05f43dbf984b7511a35959c5aa5b2ff618c87e376c614180b022022c0a0e913539262df092953daf6efe7a095a34aa34e74070ca9aee037c47a9701",
                "03a8b733ecbe91e5313df7a57d665cf64c4587abab3be43ab944a69ffc2df2121b"
            ],
            "sequence": 4294967294
        }
    ],
    "vout": [
        {
            "value": 0.00006,
            "n": 0,
            "scriptPubKey": {
                "asm": "0 880f255bb2a58910fcbe6e605a8de01d34e7a3b1",
                "desc": "addr(tb1q3q8j2kaj5ky3pl97des94r0qr56w0ga3fddqg9)#vqn36tkd",
                "hex": "0014880f255bb2a58910fcbe6e605a8de01d34e7a3b1",
                "address": "tb1q3q8j2kaj5ky3pl97des94r0qr56w0ga3fddqg9",
                "type": "witness_v0_keyhash"
            }
        },
        {
            "value": 0.01149626,
            "n": 1,
            "scriptPubKey": {
                "asm": "0 864c167caabed37d6b113b6c68d064c265db6137",
                "desc": "addr(tb1qsexpvl92hmfh66c38dkx35rycfjakcfhy0892x)#4cq3pmjt",
                "hex": "0014864c167caabed37d6b113b6c68d064c265db6137",
                "address": "tb1qsexpvl92hmfh66c38dkx35rycfjakcfhy0892x",
                "type": "witness_v0_keyhash"
            }
        }
    ],
    "hex": "0200000000010167621cd8ef1224b7250ac1306857f90d0018508bb49dd0676fe9ee89c7c882ff0000000000feffffff027017000000000000160014880f255bb2a58910fcbe6e605a8de01d34e7a3b1ba8a110000000000160014864c167caabed37d6b113b6c68d064c265db61370247304402203c5d8b741e00c8c05f43dbf984b7511a35959c5aa5b2ff618c87e376c614180b022022c0a0e913539262df092953daf6efe7a095a34aa34e74070ca9aee037c47a97012103a8b733ecbe91e5313df7a57d665cf64c4587abab3be43ab944a69ffc2df2121b7dc12400",
    "blockhash": "00000000000000362c340c56cba7a0dee144d84b8c4b76b53f0893df55a6b06f",
    "confirmations": 36,
    "time": 1669652275,
    "blocktime": 1669652275
}
