{
  "hex": "01000000014fff5f99ac9708d6333f6928b024b36cde209feb8490d386d94efc66682074fd020000006b483045022100cdf82e52b1257ccf132d6a2b60c001bb17b8bb179df806ecb00390094c70fda502202376f6740881efdb56b2144e06195de403e18d5980effc05e3b9e78d785399b8012103624fbfb0079e85bbc9aaeba6f48581326ad01194b3c54ce22852a27b1d2892d1ffffffff0300000000000000000044126aae29d500001976a9143cc9ede1da2d7351aaebaf6a25d2657e0b05a71688ac44126aae29d500001976a9143cc9ede1da2d7351aaebaf6a25d2657e0b05a71688ac00000000",
  "txid": "585cec5009c8ca19e83e33d282a6a8de65eb2ca007b54d6572167703768967d9",
  "size": 235,
  "version": 1,
  "locktime": 0,
  "vin": [
    {
      "txid": "fd74206866fc4ed986d39084eb9f20de6cb324b028693f33d60897ac995fff4f",
      "vout": 2,
      "scriptSig": {
        "asm": "3045022100cdf82e52b1257ccf132d6a2b60c001bb17b8bb179df806ecb00390094c70fda502202376f6740881efdb56b2144e06195de403e18d5980effc05e3b9e78d785399b8[ALL] 03624fbfb0079e85bbc9aaeba6f48581326ad01194b3c54ce22852a27b1d2892d1",
        "hex": "483045022100cdf82e52b1257ccf132d6a2b60c001bb17b8bb179df806ecb00390094c70fda502202376f6740881efdb56b2144e06195de403e18d5980effc05e3b9e78d785399b8012103624fbfb0079e85bbc9aaeba6f48581326ad01194b3c54ce22852a27b1d2892d1"
      },
      "value": 4687499.93125000,
      "valueSat": 468749993125000,
      "address": "XgEGH3y7RfeKEdn2hkYEvBnrnmGBr7zvjL",
      "sequence": 4294967295
    }
  ],
  "vout": [
    {
      "value": 0.00000000,
      "valueSat": 0,
      "n": 0,
      "scriptPubKey": {
        "asm": "",
        "hex": "",
        "type": "nonstandard"
      }
    },
    {
      "value": 2343749.96562500,
      "valueSat": 234374996562500,
      "n": 1,
      "scriptPubKey": {
        "asm": "OP_DUP OP_HASH160 3cc9ede1da2d7351aaebaf6a25d2657e0b05a716 OP_EQUALVERIFY OP_CHECKSIG",
        "hex": "76a9143cc9ede1da2d7351aaebaf6a25d2657e0b05a71688ac",
        "reqSigs": 1,
        "type": "pubkeyhash",
        "addresses": [
          "XgEGH3y7RfeKEdn2hkYEvBnrnmGBr7zvjL"
        ]
      },
      "spentTxId": "24625cf8c2544406b0439340af2cd06da8c91655165af4320b7254ea2cb88dba",
      "spentIndex": 0,
      "spentHeight": 804
    },
    {
      "value": 2343749.96562500,
      "valueSat": 234374996562500,
      "n": 2,
      "scriptPubKey": {
        "asm": "OP_DUP OP_HASH160 3cc9ede1da2d7351aaebaf6a25d2657e0b05a716 OP_EQUALVERIFY OP_CHECKSIG",
        "hex": "76a9143cc9ede1da2d7351aaebaf6a25d2657e0b05a71688ac",
        "reqSigs": 1,
        "type": "pubkeyhash",
        "addresses": [
          "XgEGH3y7RfeKEdn2hkYEvBnrnmGBr7zvjL"
        ]
      },
      "spentTxId": "0834641a7d30d8a2d2b451617599670445ee94ed7736e146c13be260c576c641",
      "spentIndex": 0,
      "spentHeight": 809
    }
  ],
  "blockhash": "cc4ccf19cfb9fa373ba8da68c7d25266d675a2414db603edb3cc88f866a782ea",
  "height": 733,
  "confirmations": 33221,
  "time": 1520314409,
  "blocktime": 1520314409
}