{
  "txid": "63161f40de6f1c046740f9992e5b67a10ff7f4dbd1e50bded7ce6fc8ac9566cf",
  "hash": "63161f40de6f1c046740f9992e5b67a10ff7f4dbd1e50bded7ce6fc8ac9566cf",
  "version": 1,
  "size": 269,
  "vsize": 269,
  "weight": 1076,
  "locktime": 0,
  "vin": [
    {
      "txid": "a261dc777dddbbf77456ee2a9427cb6cf4c262666a8aa14914efd13fb113dc64",
      "vout": 1,
      "scriptSig": {
        "asm": "3045022100a0004df9b5df3ff9032acf56c0e36b5e9825df08b33cf020cfa8be828632980202202e1252a8509928a1e438fbdc19ce6d94171f77cd1e136c2fb94b082f3b72c45e[ALL] 033cb1e57a386f6f81536840b71480f3e68228415a85a05a5cc1bb6f33153b4854",
        "hex": "483045022100a0004df9b5df3ff9032acf56c0e36b5e9825df08b33cf020cfa8be828632980202202e1252a8509928a1e438fbdc19ce6d94171f77cd1e136c2fb94b082f3b72c45e0121033cb1e57a386f6f81536840b71480f3e68228415a85a05a5cc1bb6f33153b4854"
      },
      "sequence": 4294967295
    }
  ],
  "vout": [
    {
      "value": 0,
      "n": 0,
      "scriptPubKey": {
        "asm": "",
        "hex": "",
        "type": "nonstandard"
      }
    },
    {
      "value": 1392.05180221,
      "n": 1,
      "scriptPubKey": {
        "asm": "OP_DUP OP_HASH160 c77516ce8736633a2a5dfe30748702a8914ea012 OP_EQUALVERIFY OP_CHECKSIG",
        "hex": "76a914c77516ce8736633a2a5dfe30748702a8914ea01288ac",
        "reqSigs": 1,
        "type": "pubkeyhash",
        "addresses": [
          "XtsUZvKvN7ZEwGQ8WPSbJ6NUtxCJgBDBJP"
        ]
      }
    },
    {
      "value": 147700,
      "n": 2,
      "scriptPubKey": {
        "asm": "OP_DUP OP_HASH160 b897333bffbf08c4b89d8cf67463c165123b439b OP_EQUALVERIFY OP_CHECKSIG",
        "hex": "76a914b897333bffbf08c4b89d8cf67463c165123b439b88ac",
        "reqSigs": 1,
        "type": "pubkeyhash",
        "addresses": [
          "XsWsJ7u8dmCVuUn6ShsWiniWkhGDQzctiu"
        ]
      }
    },
    {
      "value": 25000,
      "n": 3,
      "scriptPubKey": {
        "asm": "OP_DUP OP_HASH160 a1d0b47e021d66c9fc21d6824ae6d221091e25f7 OP_EQUALVERIFY OP_CHECKSIG",
        "hex": "76a914a1d0b47e021d66c9fc21d6824ae6d221091e25f788ac",
        "reqSigs": 1,
        "type": "pubkeyhash",
        "addresses": [
          "XqSSeDfHxZXfSgreywkRom4VHrjBTAjG78"
        ]
      }
    }
  ],
  "hex": "010000000164dc13b13fd1ef1449a18a6a6662c2f46ccb27942aee5674f7bbdd7d77dc61a2010000006b483045022100a0004df9b5df3ff9032acf56c0e36b5e9825df08b33cf020cfa8be828632980202202e1252a8509928a1e438fbdc19ce6d94171f77cd1e136c2fb94b082f3b72c45e0121033cb1e57a386f6f81536840b71480f3e68228415a85a05a5cc1bb6f33153b4854ffffffff040000000000000000003d7b4669200000001976a914c77516ce8736633a2a5dfe30748702a8914ea01288ac00749ae86e0d00001976a914b897333bffbf08c4b89d8cf67463c165123b439b88ac00a89c13460200001976a914a1d0b47e021d66c9fc21d6824ae6d221091e25f788ac00000000",
  "blockhash": "76848793c90ee23b7de68c1c97d0a6dd8d53921c48854fac53a22e56c8549b18",
  "confirmations": 1544848,
  "time": 1528326581,
  "blocktime": 1528326581
}