{
  "txid": "63539693bf1d8df5d969e96d7e89f26b3816580bed1712da4b4e60913efc7b34",
  "hash": "63539693bf1d8df5d969e96d7e89f26b3816580bed1712da4b4e60913efc7b34",
  "version": 1,
  "size": 234,
  "vsize": 234,
  "weight": 936,
  "locktime": 0,
  "vin": [
    {
      "txid": "67bd941a90e99db9be6cdb2551249cf0ec9732b5cc8ed5d7917795b5f43af64f",
      "vout": 2,
      "scriptSig": {
        "asm": "304402201f444235e301daf80909e2bd8a7d8ff9fad883ed6005c85a365a6b1526e21afc022031e4a0a60abff969f9b09eebf36468bd60b4e48db4ef60d4df346ea4787e4c47[ALL] 03624fbfb0079e85bbc9aaeba6f48581326ad01194b3c54ce22852a27b1d2892d1",
        "hex": "47304402201f444235e301daf80909e2bd8a7d8ff9fad883ed6005c85a365a6b1526e21afc022031e4a0a60abff969f9b09eebf36468bd60b4e48db4ef60d4df346ea4787e4c47012103624fbfb0079e85bbc9aaeba6f48581326ad01194b3c54ce22852a27b1d2892d1"
      },
      "sequence": 4294967295
    }
  ],
  "vout": [
    {
      "value": 0,
      "n": 0,
      "scriptPubKey": {
        "asm": "",
        "hex": "",
        "type": "nonstandard"
      }
    },
    {
      "value": 73242.18642578,
      "n": 1,
      "scriptPubKey": {
        "asm": "OP_DUP OP_HASH160 3cc9ede1da2d7351aaebaf6a25d2657e0b05a716 OP_EQUALVERIFY OP_CHECKSIG",
        "hex": "76a9143cc9ede1da2d7351aaebaf6a25d2657e0b05a71688ac",
        "reqSigs": 1,
        "type": "pubkeyhash",
        "addresses": [
          "XgEGH3y7RfeKEdn2hkYEvBnrnmGBr7zvjL"
        ]
      }
    },
    {
      "value": 73242.18642578,
      "n": 2,
      "scriptPubKey": {
        "asm": "OP_DUP OP_HASH160 3cc9ede1da2d7351aaebaf6a25d2657e0b05a716 OP_EQUALVERIFY OP_CHECKSIG",
        "hex": "76a9143cc9ede1da2d7351aaebaf6a25d2657e0b05a71688ac",
        "reqSigs": 1,
        "type": "pubkeyhash",
        "addresses": [
          "XgEGH3y7RfeKEdn2hkYEvBnrnmGBr7zvjL"
        ]
      }
    }
  ],
  "hex": "01000000014ff63af4b5957791d7d58eccb53297ecf09c245125db6cbeb99de9901a94bd67020000006a47304402201f444235e301daf80909e2bd8a7d8ff9fad883ed6005c85a365a6b1526e21afc022031e4a0a60abff969f9b09eebf36468bd60b4e48db4ef60d4df346ea4787e4c47012103624fbfb0079e85bbc9aaeba6f48581326ad01194b3c54ce22852a27b1d2892d1ffffffff030000000000000000009250734da90600001976a9143cc9ede1da2d7351aaebaf6a25d2657e0b05a71688ac9250734da90600001976a9143cc9ede1da2d7351aaebaf6a25d2657e0b05a71688ac00000000",
  "blockhash": "dee3fab1c4e5187f6e42771f1cee64adbc67eca095d74a372f43a05022298a58",
  "confirmations": 587635,
  "time": 1520392854,
  "blocktime": 1520392854
}