{
  "txid": "677c83e52f8707c45d3b2f82df5c4ecc575b544670d5b2f0d349cf067dc83bb2",
  "hash": "677c83e52f8707c45d3b2f82df5c4ecc575b544670d5b2f0d349cf067dc83bb2",
  "version": 2,
  "size": 162,
  "vsize": 162,
  "weight": 648,
  "locktime": 0,
  "vin": [
    {
      "txid": "33c492af908aa33aa078571f703fc75e82154272cd8e5a8da88ce13ba3b009a5",
      "vout": 1,
      "scriptSig": {
        "asm": "",
        "hex": ""
      },
      "sequence": 4294967295
    }
  ],
  "vout": [
    {
      "value": 0,
      "n": 0,
      "scriptPubKey": {
        "asm": "",
        "hex": "",
        "type": "nonstandard"
      }
    },
    {
      "value": 2951.47213072,
      "n": 1,
      "scriptPubKey": {
        "asm": "OP_DUP OP_HASH160 2fc6c22cc08c7da31a9b4a82fc59ec35adb50603 OP_EQUALVERIFY OP_CHECKSIG",
        "hex": "76a9142fc6c22cc08c7da31a9b4a82fc59ec35adb5060388ac",
        "reqSigs": 1,
        "type": "pubkeyhash",
        "addresses": [
          "Xf3ThFZVPE8MwNF3ZQ2gmUJuNKYFLgcJgf"
        ]
      }
    },
    {
      "value": 0.9,
      "n": 2,
      "scriptPubKey": {
        "asm": "OP_DUP OP_HASH160 425f01700da8a7b37b62da55e5375ab3c10ac850 OP_EQUALVERIFY OP_CHECKSIG",
        "hex": "76a914425f01700da8a7b37b62da55e5375ab3c10ac85088ac",
        "reqSigs": 1,
        "type": "pubkeyhash",
        "addresses": [
          "XgjnF28CLXnWQYGJMMzRzQrJdUPihG2e8G"
        ]
      }
    },
    {
      "value": 7000000,
      "n": 3,
      "scriptPubKey": {
        "asm": "OP_DUP OP_HASH160 930db3d92489c7e4c8783e843cfc60d54d6a1035 OP_EQUALVERIFY OP_CHECKSIG",
        "hex": "76a914930db3d92489c7e4c8783e843cfc60d54d6a103588ac",
        "reqSigs": 1,
        "type": "pubkeyhash",
        "addresses": [
          "Xp6PaXBQrN6L8sVFHQYVW5rBnKApecD6vu"
        ]
      }
    }
  ],
  "hex": "0200000001a509b0a33be18ca88d5a8ecd724215825ec73f701f5778a03aa38a90af92c4330100000000ffffffff04000000000000000000101125b8440000001976a9142fc6c22cc08c7da31a9b4a82fc59ec35adb5060388ac804a5d05000000001976a914425f01700da8a7b37b62da55e5375ab3c10ac85088ac00c05773a57c02001976a914930db3d92489c7e4c8783e843cfc60d54d6a103588ac00000000",
  "blockhash": "c6c9a39dfe3abc01db2a6049133d9770349dd0a5627e8446b698b3d96c63dc84",
  "confirmations": 775950,
  "time": 1575325470,
  "blocktime": 1575325470
}