{
  "hex": "01000000010000000000000000000000000000000000000000000000000000000000000000ffffffff03520101ffffffff010020886ca22d1b00232103e8c52f2c5155771492907095753a43ce776e1fa7c5e769a67a9f3db4467ec029ac00000000",
  "txid": "67aa0bd8b9297ca6ee25a1e5c2e3a8dbbcc1e20eab76b6d1bdf9d69f8a5356b8",
  "size": 98,
  "version": 1,
  "locktime": 0,
  "vin": [
    {
      "coinbase": "520101",
      "sequence": 4294967295
    }
  ],
  "vout": [
    {
      "value": 76500000.00000000,
      "valueSat": 7650000000000000,
      "n": 0,
      "scriptPubKey": {
        "asm": "03e8c52f2c5155771492907095753a43ce776e1fa7c5e769a67a9f3db4467ec029 OP_CHECKSIG",
        "hex": "2103e8c52f2c5155771492907095753a43ce776e1fa7c5e769a67a9f3db4467ec029ac",
        "reqSigs": 1,
        "type": "pubkey",
        "addresses": [
          "XdJnCKYNwzCz8ATv8Eu75gonaHyfr9qXg9"
        ]
      },
      "spentTxId": "095048976d1e4e47ba1124c2e6a7cef309ac22fbddc73082165bc589e44db726",
      "spentIndex": 0,
      "spentHeight": 26
    }
  ],
  "blockhash": "000004645e2717b556682e3c642a4c6e473bf25c653ff8e8c114a3006040ffb8",
  "height": 2,
  "confirmations": 33960,
  "time": 1520276299,
  "blocktime": 1520276299
}