{
  "txid": "6b984d317623fdb3f40e5d64a4236de33b9cb1de5f12a6abe2e8f242f6572655",
  "hash": "dd5b520855a8359b19b7cd99e68be581e9210c2ca9a80aa557f2e39443d8c1fd",
  "version": 1,
  "size": 250,
  "vsize": 168,
  "weight": 670,
  "locktime": 0,
  "vin": [
    {
      "txid": "2089eeb16b2b4ee5e1410fb2eaa109baf0a1c505873f3ecca91483ef111baa59",
      "vout": 1,
      "scriptSig": {
        "asm": "001450606f66fa5b35eb7702063a5f7eb1f61880bb70",
        "hex": "16001450606f66fa5b35eb7702063a5f7eb1f61880bb70"
      },
      "txinwitness": [
        "30450221009ebb5595c076ff84622d887faaf97da06dbe2afd7dfa4aa434b22524fd93842f02205eadec47b9224481bb337c50d7f9076deeed0e70923a133b9e6e5ba761c06a1b01",
        "03c33aea23c6fbd4d5819e4cb9d3ef44174f9a51b98f3c32893f9fe401ce87cb0c"
      ],
      "sequence": 4294967295
    }
  ],
  "vout": [
    {
      "value": 14900.00000000,
      "n": 0,
      "scriptPubKey": {
        "asm": "OP_DUP OP_HASH160 f43d34f960bb1b461e9e979ef8a7271c38abace3 OP_EQUALVERIFY OP_CHECKSIG",
        "hex": "76a914f43d34f960bb1b461e9e979ef8a7271c38abace388ac",
        "reqSigs": 1,
        "type": "pubkeyhash",
        "addresses": [
          "XxxG2nu3XXFJz9tSwSc7fV6GxM6Zwm7qFq"
        ]
      }
    },
    {
      "value": 1638.34135749,
      "n": 1,
      "scriptPubKey": {
        "asm": "OP_HASH160 fddbeaabbe01f0987b4566ee4c6a07e8d8b6bc96 OP_EQUAL",
        "hex": "a914fddbeaabbe01f0987b4566ee4c6a07e8d8b6bc9687",
        "reqSigs": 1,
        "type": "scripthash",
        "addresses": [
          "7qYwAMGmC4u4vBuejaQyawv7C45dDgYQMo"
        ]
      }
    }
  ],
  "hex": "0100000000010159aa1b11ef8314a9cc3e3f8705c5a1f0ba09a1eab20f41e1e54e2b6bb1ee8920010000001716001450606f66fa5b35eb7702063a5f7eb1f61880bb70ffffffff0200b4ebea5a0100001976a914f43d34f960bb1b461e9e979ef8a7271c38abace388acc58446252600000017a914fddbeaabbe01f0987b4566ee4c6a07e8d8b6bc9687024830450221009ebb5595c076ff84622d887faaf97da06dbe2afd7dfa4aa434b22524fd93842f02205eadec47b9224481bb337c50d7f9076deeed0e70923a133b9e6e5ba761c06a1b012103c33aea23c6fbd4d5819e4cb9d3ef44174f9a51b98f3c32893f9fe401ce87cb0c00000000"
}