{
  "hex": "01000000010000000000000000000000000000000000000000000000000000000000000000ffffffff0e03f4560202e200062f503253482fffffffff028006672100000000232102a9f34e4bc8b77f6f99aab03646da75d770e4088fd38f1604e2b0f106e7314156aca0c15908000000000000000000",
  "txid": "728e76d2d5f0513aabeca6fd7101878469052e39f42f7a9b979a63d7e87353c2",
  "size": 118,
  "version": 1,
  "type": 0,
  "locktime": 0,
  "vin": [
    {
      "coinbase": "03f4560202e200062f503253482f",
      "sequence": 4294967295
    }
  ],
  "vout": [
    {
      "value": 5.60400000,
      "valueSat": 560400000,
      "n": 0,
      "scriptPubKey": {
        "asm": "02a9f34e4bc8b77f6f99aab03646da75d770e4088fd38f1604e2b0f106e7314156 OP_CHECKSIG",
        "hex": "2102a9f34e4bc8b77f6f99aab03646da75d770e4088fd38f1604e2b0f106e7314156ac",
        "reqSigs": 1,
        "type": "pubkey",
        "addresses": [
          "Xgg7QHQcsBPYygYPj1QhDcCmfKXa7sFd9b"
        ]
      }
    },
    {
      "value": 1.40100000,
      "valueSat": 140100000,
      "n": 1,
      "scriptPubKey": {
        "asm": "",
        "hex": "",
        "type": "nonstandard"
      }
    }
  ],
  "blockhash": "000000000008df6451e1bf46bad7060e37737506eecfbc8e95bf5feb5331679d",
  "height": 153332,
  "confirmations": 910741,
  "time": 1413427064,
  "blocktime": 1413427064,
  "instantlock": false
}