{
  "hex": "010000000117f0b323487abc8471a02eebbe492fbd68cc9a22c58ac979020b9ed9fdb901521d0000006b483045022100ab77008477930b172fe0e58373fad7fb951dba4985d3f15c09d8f6dd635f1fab02205b4a6143cc1111f7c27c72891b0f2d82b37a8048839d1c7705e88228a02a106b012103a93081050d08f8d56b6acc4d13bd451b8fb912c9c4cda36895b0db6566dcecccfeffffff030000000000000000496a225869337351664d51737932437a4d5a54726e4b573648464770315671465468644c772258794a4338786e664672484e634d696e68366778755052595939484361593944416f016300e1f505000000001976a91450c2ee67c90dc44c29a2e54a1e92ac7160cb3f6688accc058142170000001976a9144a246b936e26e373aff00fa17715e34e7572ec7d88ac2b000000",
  "txid": "7f2b5f25b0ae24a417633e4214827f930a69802c1c43d1fb2ff7b7075b2d1701",
  "size": 308,
  "version": 1,
  "locktime": 43,
  "vin": [
    {
      "txid": "5201b9fdd99e0b0279c98ac5229acc68bd2f49beeb2ea07184bc7a4823b3f017",
      "vout": 29,
      "scriptSig": {
        "asm": "3045022100ab77008477930b172fe0e58373fad7fb951dba4985d3f15c09d8f6dd635f1fab02205b4a6143cc1111f7c27c72891b0f2d82b37a8048839d1c7705e88228a02a106b[ALL] 03a93081050d08f8d56b6acc4d13bd451b8fb912c9c4cda36895b0db6566dceccc",
        "hex": "483045022100ab77008477930b172fe0e58373fad7fb951dba4985d3f15c09d8f6dd635f1fab02205b4a6143cc1111f7c27c72891b0f2d82b37a8048839d1c7705e88228a02a106b012103a93081050d08f8d56b6acc4d13bd451b8fb912c9c4cda36895b0db6566dceccc"
      },
      "value": 1000.00000000,
      "valueSat": 100000000000,
      "address": "Xi3sQfMQsy2CzMZTrnKW6HFGp1VqFThdLw",
      "sequence": 4294967294
    }
  ],
  "vout": [
    {
      "value": 0.00000000,
      "valueSat": 0,
      "n": 0,
      "scriptPubKey": {
        "asm": "OP_RETURN 5869337351664d51737932437a4d5a54726e4b573648464770315671465468644c77 58794a4338786e664672484e634d696e68366778755052595939484361593944416f 99 ffaabbcc",
        "hex": "6a225869337351664d51737932437a4d5a54726e4b573648464770315671465468644c772258794a4338786e664672484e634d696e68366778755052595939484361593944416f0163",
        "type": "nulldata"
      }
    },
    {
      "value": 1.00000000,
      "valueSat": 100000000,
      "n": 1,
      "scriptPubKey": {
        "asm": "OP_DUP OP_HASH160 50c2ee67c90dc44c29a2e54a1e92ac7160cb3f66 OP_EQUALVERIFY OP_CHECKSIG",
        "hex": "76a91450c2ee67c90dc44c29a2e54a1e92ac7160cb3f6688ac",
        "reqSigs": 1,
        "type": "pubkeyhash",
        "addresses": [
          "Xi3sQfMQsy2CzMZTrnKW6HFGp1VqFThdLw"
        ]
      }
    },
    {
      "value": 998.99999692,
      "valueSat": 99899999692,
      "n": 2,
      "scriptPubKey": {
        "asm": "OP_DUP OP_HASH160 4a246b936e26e373aff00fa17715e34e7572ec7d OP_EQUALVERIFY OP_CHECKSIG",
        "hex": "76a9144a246b936e26e373aff00fa17715e34e7572ec7d88ac",
        "reqSigs": 1,
        "type": "pubkeyhash",
        "addresses": [
          "XhSsTyDVQEuLmcqqvWYcaHiu2ekNjDeMQR"
        ]
      }
    }
  ],
  "blockhash": "00000342ba8e453b8e758e70d7c84e42a678304b9480d35cb6307d1ba2f46042",
  "height": 46,
  "confirmations": 33915,
  "time": 1520277648,
  "blocktime": 1520277648
}