{
  "hex": "01000000010000000000000000000000000000000000000000000000000000000000000000ffffffff03540101ffffffff010000000000000000232103f46aecb86ca6f0404f9339e6ff242d82cd36e23612bad62f840986a570ddfd13ac00000000",
  "txid": "85b4b5b8b6b9053694a93f643cc8867db2b5ee8d68ddaab3a058b992b14c684c",
  "size": 98,
  "version": 1,
  "locktime": 0,
  "vin": [
    {
      "coinbase": "540101",
      "sequence": 4294967295
    }
  ],
  "vout": [
    {
      "value": 0,
      "valueSat": 0,
      "n": 0,
      "scriptPubKey": {
        "asm": "03f46aecb86ca6f0404f9339e6ff242d82cd36e23612bad62f840986a570ddfd13 OP_CHECKSIG",
        "hex": "2103f46aecb86ca6f0404f9339e6ff242d82cd36e23612bad62f840986a570ddfd13ac",
        "reqSigs": 1,
        "type": "pubkey",
        "addresses": [
          "XcqpUChZhNkVDgQqFF9U4DdewDGUMWwG53"
        ]
      }
    }
  ],
  "blockhash": "00000b59875e80b0afc6c657bc5318d39e03532b7d97fb78a4c7bd55c4840c32",
  "height": 4,
  "confirmations": 163491,
  "time": 1520276353,
  "blocktime": 1520276353
}