{
  "txid": "8bc14086c3567c834af5479f73a00ad2cdcb0b8e3109ec2f05c29c00b8b7eaf0",
  "hash": "8bc14086c3567c834af5479f73a00ad2cdcb0b8e3109ec2f05c29c00b8b7eaf0",
  "version": 2,
  "size": 371,
  "vsize": 371,
  "weight": 1484,
  "locktime": 1270438,
  "vin": [
    {
      "txid": "b912239fc87227c281c34393afa6f99b1edd202126b7002452f31306cdc87210",
      "vout": 1,
      "scriptSig": {
        "asm": "304402206b44d45fe43ef30a6de958c67cb2ead7560279dfcddbbd757aac38808881870c02207879fa3533885a3e1fb0509fbf99f6f13b61d2ba86f26673cc7f99b0704eb749[ALL] 03146cf67bc5d00d3b7952df463346c19a5771137386283bce1e7055393a645b72",
        "hex": "47304402206b44d45fe43ef30a6de958c67cb2ead7560279dfcddbbd757aac38808881870c02207879fa3533885a3e1fb0509fbf99f6f13b61d2ba86f26673cc7f99b0704eb749012103146cf67bc5d00d3b7952df463346c19a5771137386283bce1e7055393a645b72"
      },
      "sequence": 4294967294
    }
  ],
  "vout": [
    {
      "value": 0,
      "n": 0,
      "scriptPubKey": {
        "asm": "OP_RETURN 586b4d50664737436441613469397a6a6f787a4c734a647454363366316f3155794b 58684a6d6e67614d4864624a66484135665864534c71676935563579556e7375514c 99 1f870f6bea59802344960ebddcbdd0e0db9a432e7968f7a376f45fa34eb55c3d3615a9592a61cddfe0e291d800762e0744c3849028dfa5743c59ada81dab88b868",
        "hex": "6a22586b4d50664737436441613469397a6a6f787a4c734a647454363366316f3155794b2258684a6d6e67614d4864624a66484135665864534c71676935563579556e7375514c0163411f870f6bea59802344960ebddcbdd0e0db9a432e7968f7a376f45fa34eb55c3d3615a9592a61cddfe0e291d800762e0744c3849028dfa5743c59ada81dab88b868",
        "type": "nulldata"
      }
    },
    {
      "value": 1,
      "n": 1,
      "scriptPubKey": {
        "asm": "OP_DUP OP_HASH160 6a0381cdbc49e556ff108110e0d9fda5109030c9 OP_EQUALVERIFY OP_CHECKSIG",
        "hex": "76a9146a0381cdbc49e556ff108110e0d9fda5109030c988ac",
        "reqSigs": 1,
        "type": "pubkeyhash",
        "addresses": [
          "XkMPfG7CdAa4i9zjoxzLsJdtT63f1o1UyK"
        ]
      }
    },
    {
      "value": 2143.30950198,
      "n": 2,
      "scriptPubKey": {
        "asm": "OP_HASH160 4ccbc35271d43ae14c238e1417555ad23dcbdff5 OP_EQUAL",
        "hex": "a9144ccbc35271d43ae14c238e1417555ad23dcbdff587",
        "reqSigs": 1,
        "type": "scripthash",
        "addresses": [
          "7ZQiD1wxWmmjgn8xm3zEEK4gyUqr4Xu5Zg"
        ]
      }
    }
  ],
  "hex": "02000000011072c8cd0613f3522400b7262120dd1e9bf9a6af9343c381c22772c89f2312b9010000006a47304402206b44d45fe43ef30a6de958c67cb2ead7560279dfcddbbd757aac38808881870c02207879fa3533885a3e1fb0509fbf99f6f13b61d2ba86f26673cc7f99b0704eb749012103146cf67bc5d00d3b7952df463346c19a5771137386283bce1e7055393a645b72feffffff0300000000000000008b6a22586b4d50664737436441613469397a6a6f787a4c734a647454363366316f3155794b2258684a6d6e67614d4864624a66484135665864534c71676935563579556e7375514c0163411f870f6bea59802344960ebddcbdd0e0db9a432e7968f7a376f45fa34eb55c3d3615a9592a61cddfe0e291d800762e0744c3849028dfa5743c59ada81dab88b86800e1f505000000001976a9146a0381cdbc49e556ff108110e0d9fda5109030c988ac36c21ee73100000017a9144ccbc35271d43ae14c238e1417555ad23dcbdff587a6621300",
  "blockhash": "125b0de3044e35e67019ae274c30ab7c626c75c5a60d8c3a48561bdf04d400c9",
  "confirmations": 401123,
  "time": 1597508296,
  "blocktime": 1597508296
}