{
  "hex": "01000000014e289a36310fe66f0317211c5d7db5ce5adc69d8873a8f8cccdc67649110cf9e0100000000ffffffff04000000000000000000e0db3bcd170000001976a91450c2ee67c90dc44c29a2e54a1e92ac7160cb3f6688aca0525701000000001976a914f80246a42bb0d6de131282b4e1bef064f01a39f988ac80461c86000000001976a914fbac413c28d5220ffd49a43952f7680625de545d88ac00000000",
  "txid": "8c7feafc18576b89bf87faf8aa89feaac1a3fad7d5da77d1fe773219a0e9d864",
  "size": 162,
  "version": 1,
  "locktime": 0,
  "vin": [
    {
      "txid": "9ecf10916467dccc8c8f3a87d869dc5aceb57d5d1c2117036fe60f31369a284e",
      "vout": 1,
      "scriptSig": {
        "asm": "",
        "hex": ""
      },
      "value": 1000.00000000,
      "valueSat": 100000000000,
      "address": "Xi3sQfMQsy2CzMZTrnKW6HFGp1VqFThdLw",
      "sequence": 4294967295
    }
  ],
  "vout": [
    {
      "value": 0.00000000,
      "valueSat": 0,
      "n": 0,
      "scriptPubKey": {
        "asm": "",
        "hex": "",
        "type": "nonstandard"
      }
    },
    {
      "value": 1022.27500000,
      "valueSat": 102227500000,
      "n": 1,
      "scriptPubKey": {
        "asm": "OP_DUP OP_HASH160 50c2ee67c90dc44c29a2e54a1e92ac7160cb3f66 OP_EQUALVERIFY OP_CHECKSIG",
        "hex": "76a91450c2ee67c90dc44c29a2e54a1e92ac7160cb3f6688ac",
        "reqSigs": 1,
        "type": "pubkeyhash",
        "addresses": [
          "Xi3sQfMQsy2CzMZTrnKW6HFGp1VqFThdLw"
        ]
      },
      "spentTxId": "10d74101353252748645a91d570b8ba949e51853487e1060e1e2b66b6ba838d8",
      "spentIndex": 59,
      "spentHeight": 25035
    },
    {
      "value": 0.22500000,
      "valueSat": 22500000,
      "n": 2,
      "scriptPubKey": {
        "asm": "OP_DUP OP_HASH160 f80246a42bb0d6de131282b4e1bef064f01a39f9 OP_EQUALVERIFY OP_CHECKSIG",
        "hex": "76a914f80246a42bb0d6de131282b4e1bef064f01a39f988ac",
        "reqSigs": 1,
        "type": "pubkeyhash",
        "addresses": [
          "XyJC8xnfFrHNcMinh6gxuPRYY9HCaY9DAo"
        ]
      }
    },
    {
      "value": 22.50000000,
      "valueSat": 2250000000,
      "n": 3,
      "scriptPubKey": {
        "asm": "OP_DUP OP_HASH160 fbac413c28d5220ffd49a43952f7680625de545d OP_EQUALVERIFY OP_CHECKSIG",
        "hex": "76a914fbac413c28d5220ffd49a43952f7680625de545d88ac",
        "reqSigs": 1,
        "type": "pubkeyhash",
        "addresses": [
          "XydZnssXHCxxRtB4rk7evfKT9XP7GqyA9N"
        ]
      },
      "spentTxId": "2e4193dd0330b2c392d0015fb2857bd708fad339a6e04cfac1980276cf6af75e",
      "spentIndex": 206,
      "spentHeight": 28754
    }
  ],
  "blockhash": "19f320185015d146237efe757852b21c5e08b88b2f4de9d3fa9517d8463e472b",
  "height": 21888,
  "confirmations": 12073,
  "time": 1521716682,
  "blocktime": 1521716682
}