{
  "txid": "8fba21b6368b51a616456cbb6a3af30052b5eeee2b4ea008b70d984d85fb1092",
  "hash": "a34898822757239fe3ced621c3959db5954e61cea04685450affe400fa483bd9",
  "version": 2,
  "size": 441,
  "vsize": 358,
  "weight": 1431,
  "locktime": 0,
  "vin": [
    {
      "txid": "ac8fc18d1f77a114ca5b8266662b867430c5d59abf17a7554e6aab2ee542256a",
      "vout": 1,
      "scriptSig": {
        "asm": "00146152418418ad9924ad33b0c1fcce2e18733cb419",
        "hex": "1600146152418418ad9924ad33b0c1fcce2e18733cb419"
      },
      "txinwitness": [
        "30450221008f441fdc5cc68887cad71106f1ece8ddc3b0eb3c9b56dffc0ba0d943f4e0990a02206b10472257a6c457a3c931bdb3ab57ccfb48507c5916d6077504db163324185401",
        "02376715fff755ba868972ef45e776a71316ae279ed5ee13963913d331c211a5d9"
      ],
      "sequence": 4294967295
    },
    {
      "txid": "08bc248ef36158e88867143129a35bc0e7d2d4affa0e4c3b9f4991fec86e6644",
      "vout": 1,
      "scriptSig": {
        "asm": "473044022019010f92af932338fcb6c14a1f1c5330e1083117025cc0979b93b60c49f7b9d6022029a3b55cc77a8d45a0462ae0a6a0928f754cd19c5e7c4c138faba42df14f0b99012103e6cb4fb16876f92809842a4f186301348be8795dda83fea75e063ef8c6dfade2",
        "hex": "4c6a473044022019010f92af932338fcb6c14a1f1c5330e1083117025cc0979b93b60c49f7b9d6022029a3b55cc77a8d45a0462ae0a6a0928f754cd19c5e7c4c138faba42df14f0b99012103e6cb4fb16876f92809842a4f186301348be8795dda83fea75e063ef8c6dfade2"
      },
      "sequence": 4294967295
    }
  ],
  "vout": [
    {
      "value": 0,
      "n": 0,
      "scriptPubKey": {
        "asm": "",
        "hex": "",
        "type": "nonstandard"
      }
    },
    {
      "value": 182513.58176347,
      "n": 1,
      "scriptPubKey": {
        "asm": "OP_HASH160 67bbe94c4206b8d95b0eb770295c7a260779e0b6 OP_EQUAL",
        "hex": "a91467bbe94c4206b8d95b0eb770295c7a260779e0b687",
        "reqSigs": 1,
        "type": "scripthash",
        "addresses": [
          "7bs9TobPv6k9vvZVwYHEVwUQzv2t3MQcWD"
        ]
      }
    },
    {
      "value": 182504.58176347,
      "n": 2,
      "scriptPubKey": {
        "asm": "OP_HASH160 67bbe94c4206b8d95b0eb770295c7a260779e0b6 OP_EQUAL",
        "hex": "a91467bbe94c4206b8d95b0eb770295c7a260779e0b687",
        "reqSigs": 1,
        "type": "scripthash",
        "addresses": [
          "7bs9TobPv6k9vvZVwYHEVwUQzv2t3MQcWD"
        ]
      }
    },
    {
      "value": 9,
      "n": 3,
      "scriptPubKey": {
        "asm": "OP_DUP OP_HASH160 5f5a2afd365be1daf9c4ed836e5650db412ffa94 OP_EQUALVERIFY OP_CHECKSIG",
        "hex": "76a9145f5a2afd365be1daf9c4ed836e5650db412ffa9488ac",
        "reqSigs": 1,
        "type": "pubkeyhash",
        "addresses": [
          "XjP23TKrSpw1yraSeGaenv7ce5dVNiKYSZ"
        ]
      }
    }
  ],
  "hex": "020000000001026a2542e52eab6a4e55a717bf9ad5c53074862b6666825bca14a1771f8dc18fac01000000171600146152418418ad9924ad33b0c1fcce2e18733cb419ffffffff44666ec8fe91499f3b4c0efaafd4d2e7c05ba32931146788e85861f38e24bc08010000006c4c6a473044022019010f92af932338fcb6c14a1f1c5330e1083117025cc0979b93b60c49f7b9d6022029a3b55cc77a8d45a0462ae0a6a0928f754cd19c5e7c4c138faba42df14f0b99012103e6cb4fb16876f92809842a4f186301348be8795dda83fea75e063ef8c6dfade2ffffffff040000000000000000005b84b8799910000017a91467bbe94c4206b8d95b0eb770295c7a260779e0b6875b9b13449910000017a91467bbe94c4206b8d95b0eb770295c7a260779e0b68700e9a435000000001976a9145f5a2afd365be1daf9c4ed836e5650db412ffa9488ac024830450221008f441fdc5cc68887cad71106f1ece8ddc3b0eb3c9b56dffc0ba0d943f4e0990a02206b10472257a6c457a3c931bdb3ab57ccfb48507c5916d6077504db1633241854012102376715fff755ba868972ef45e776a71316ae279ed5ee13963913d331c211a5d90000000000",
  "blockhash": "0921e87173c79a3639c1c05a119ede932e7757414a9a58fed34b5508d3d30fde",
  "confirmations": 138819,
  "time": 1613017419,
  "blocktime": 1613017419
}