{
  "hex": "01000000017765f90bc69fd9d222821ca30d0a121d7075f17005a72ef65cab4e005a590f0c010000006a47304402200a44383e48fe2df47423dad95b7dd8f17dd9facfb70c2d279a83418e5e0439eb02202c1863f54c752dcfcf7b1c74384f97a21bfc1e97fc66257a2c7d9d5c2851a2600121031810683b84cd1306250970702942d435a1a64ca75304830b55c73dea5340c20dffffffff04000000000000000000c8f9b9c4b60000001976a9145356fa18a159ac621882928d307a54474a53b0f388ac48b39d3eb60000001976a9145356fa18a159ac621882928d307a54474a53b0f388ac80461c86000000001976a9146055945235585a7cf8f8c1d9e513f531d61ab55588ac00000000",
  "txid": "9165692aa53f0db6be61521daf8bece68e005396880376260872352db0c005c1",
  "size": 268,
  "version": 1,
  "locktime": 0,
  "vin": [
    {
      "txid": "0c0f595a004eab5cf62ea70570f175701d120a0da31c8222d2d99fc60bf96577",
      "vout": 1,
      "scriptSig": {
        "asm": "304402200a44383e48fe2df47423dad95b7dd8f17dd9facfb70c2d279a83418e5e0439eb02202c1863f54c752dcfcf7b1c74384f97a21bfc1e97fc66257a2c7d9d5c2851a260[ALL] 031810683b84cd1306250970702942d435a1a64ca75304830b55c73dea5340c20d",
        "hex": "47304402200a44383e48fe2df47423dad95b7dd8f17dd9facfb70c2d279a83418e5e0439eb02202c1863f54c752dcfcf7b1c74384f97a21bfc1e97fc66257a2c7d9d5c2851a2600121031810683b84cd1306250970702942d435a1a64ca75304830b55c73dea5340c20d"
      },
      "value": 15654.69140625,
      "valueSat": 1565469140625,
      "address": "XiHW7SR56UPHeXKwcpeVsE4nUfkHv5RqE3",
      "sequence": 4294967295
    }
  ],
  "vout": [
    {
      "value": 0.00000000,
      "valueSat": 0,
      "n": 0,
      "scriptPubKey": {
        "asm": "",
        "hex": "",
        "type": "nonstandard"
      }
    },
    {
      "value": 7849.84570312,
      "valueSat": 784984570312,
      "n": 1,
      "scriptPubKey": {
        "asm": "OP_DUP OP_HASH160 5356fa18a159ac621882928d307a54474a53b0f3 OP_EQUALVERIFY OP_CHECKSIG",
        "hex": "76a9145356fa18a159ac621882928d307a54474a53b0f388ac",
        "reqSigs": 1,
        "type": "pubkeyhash",
        "addresses": [
          "XiHW7SR56UPHeXKwcpeVsE4nUfkHv5RqE3"
        ]
      },
      "spentTxId": "b08f9eeba01e5b50ceaeb436c3a08f9bcc1726fbf8306d9177f7739487d16b50",
      "spentIndex": 0,
      "spentHeight": 23391
    },
    {
      "value": 7827.34570312,
      "valueSat": 782734570312,
      "n": 2,
      "scriptPubKey": {
        "asm": "OP_DUP OP_HASH160 5356fa18a159ac621882928d307a54474a53b0f3 OP_EQUALVERIFY OP_CHECKSIG",
        "hex": "76a9145356fa18a159ac621882928d307a54474a53b0f388ac",
        "reqSigs": 1,
        "type": "pubkeyhash",
        "addresses": [
          "XiHW7SR56UPHeXKwcpeVsE4nUfkHv5RqE3"
        ]
      },
      "spentTxId": "4853304417ab040cce26f7be7fbbfc36b6e2c3ea40ca481c776ba9be8f2b7c46",
      "spentIndex": 0,
      "spentHeight": 23953
    },
    {
      "value": 22.50000000,
      "valueSat": 2250000000,
      "n": 3,
      "scriptPubKey": {
        "asm": "OP_DUP OP_HASH160 6055945235585a7cf8f8c1d9e513f531d61ab555 OP_EQUALVERIFY OP_CHECKSIG",
        "hex": "76a9146055945235585a7cf8f8c1d9e513f531d61ab55588ac",
        "reqSigs": 1,
        "type": "pubkeyhash",
        "addresses": [
          "XjUDDq221NwqRtp85wfvoDrMaaxvUCDRrY"
        ]
      },
      "spentTxId": "067db2757842b4bd1e1966de3c7c1f2f6ee09387e06699bfb0a075a8399a55fc",
      "spentIndex": 0,
      "spentHeight": 30867
    }
  ],
  "blockhash": "1ca318b7a26ed67ca7c8c9b5069d653ba224bf86989125d1dfbb0973b7d6a5e0",
  "height": 23000,
  "confirmations": 10976,
  "time": 1521784448,
  "blocktime": 1521784448
}