{
  "txid": "9195bdc773984d1b5b56ab91546726057ad3dcdf8d11821471dbfea8dfba66cf",
  "hash": "9195bdc773984d1b5b56ab91546726057ad3dcdf8d11821471dbfea8dfba66cf",
  "version": 2,
  "size": 196,
  "vsize": 196,
  "weight": 784,
  "locktime": 0,
  "vin": [
    {
      "txid": "c0f305e3d58f75d01b1da1b83238f4dfa085896e1d47c8c5cd847d0984417dcb",
      "vout": 1,
      "scriptSig": {
        "asm": "",
        "hex": ""
      },
      "sequence": 4294967295
    }
  ],
  "vout": [
    {
      "value": 0,
      "n": 0,
      "scriptPubKey": {
        "asm": "",
        "hex": "",
        "type": "nonstandard"
      }
    },
    {
      "value": 5288.63815864,
      "n": 1,
      "scriptPubKey": {
        "asm": "OP_DUP OP_HASH160 6a0381cdbc49e556ff108110e0d9fda5109030c9 OP_EQUALVERIFY OP_CHECKSIG",
        "hex": "76a9146a0381cdbc49e556ff108110e0d9fda5109030c988ac",
        "reqSigs": 1,
        "type": "pubkeyhash",
        "addresses": [
          "XkMPfG7CdAa4i9zjoxzLsJdtT63f1o1UyK"
        ]
      }
    },
    {
      "value": 5279.72815864,
      "n": 2,
      "scriptPubKey": {
        "asm": "OP_DUP OP_HASH160 6a0381cdbc49e556ff108110e0d9fda5109030c9 OP_EQUALVERIFY OP_CHECKSIG",
        "hex": "76a9146a0381cdbc49e556ff108110e0d9fda5109030c988ac",
        "reqSigs": 1,
        "type": "pubkeyhash",
        "addresses": [
          "XkMPfG7CdAa4i9zjoxzLsJdtT63f1o1UyK"
        ]
      }
    },
    {
      "value": 0.09,
      "n": 3,
      "scriptPubKey": {
        "asm": "OP_DUP OP_HASH160 489c5a720449eb9e7a0d1d11b122b5fd12761e31 OP_EQUALVERIFY OP_CHECKSIG",
        "hex": "76a914489c5a720449eb9e7a0d1d11b122b5fd12761e3188ac",
        "reqSigs": 1,
        "type": "pubkeyhash",
        "addresses": [
          "XhJmngaMHdbJfHA5fXdSLqgi5V5yUnsuQL"
        ]
      }
    },
    {
      "value": 9,
      "n": 4,
      "scriptPubKey": {
        "asm": "OP_DUP OP_HASH160 68ad1ac20976e05c473a71feb6c8565a2b5aeb4a OP_EQUALVERIFY OP_CHECKSIG",
        "hex": "76a91468ad1ac20976e05c473a71feb6c8565a2b5aeb4a88ac",
        "reqSigs": 1,
        "type": "pubkeyhash",
        "addresses": [
          "XkEKUiY6m27UipLvwLr4Ujpx1ANM8PqFBr"
        ]
      }
    }
  ],
  "hex": "0200000001cb7d4184097d84cdc5c8471d6e8985a0dff43832b8a11d1bd0758fd5e305f3c00100000000ffffffff05000000000000000000b868bd227b0000001976a9146a0381cdbc49e556ff108110e0d9fda5109030c988acf8d3a1ed7a0000001976a9146a0381cdbc49e556ff108110e0d9fda5109030c988ac40548900000000001976a914489c5a720449eb9e7a0d1d11b122b5fd12761e3188ac00e9a435000000001976a91468ad1ac20976e05c473a71feb6c8565a2b5aeb4a88ac00000000",
  "blockhash": "b5da5aee0547717c1eb537a924d4652aac3be595c3f42e7a89386c8cd764f1fb",
  "confirmations": 2503,
  "time": 1621227401,
  "blocktime": 1621227401
}