{
  "txid": "980dc3eb7577a44d9a57c6d26151e9bd2b517d8b35ac111016b4c890a1f78a8d",
  "hash": "980dc3eb7577a44d9a57c6d26151e9bd2b517d8b35ac111016b4c890a1f78a8d",
  "version": 1,
  "size": 234,
  "vsize": 234,
  "weight": 936,
  "locktime": 0,
  "vin": [
    {
      "txid": "533ddceab3774b117c81c994663f69a40cebae0a9d80db6ff64db8fe2a97b051",
      "vout": 2,
      "scriptSig": {
        "asm": "304402206f75863b212819912e871f9071825d0274b8bdb4d736bad4c86ad95a6f3497a2022066145d851d955fbf1d6966422be25dd8b4b44f0bd8a5c67bf04800ff88764acd[ALL] 03624fbfb0079e85bbc9aaeba6f48581326ad01194b3c54ce22852a27b1d2892d1",
        "hex": "47304402206f75863b212819912e871f9071825d0274b8bdb4d736bad4c86ad95a6f3497a2022066145d851d955fbf1d6966422be25dd8b4b44f0bd8a5c67bf04800ff88764acd012103624fbfb0079e85bbc9aaeba6f48581326ad01194b3c54ce22852a27b1d2892d1"
      },
      "sequence": 4294967295
    }
  ],
  "vout": [
    {
      "value": 0,
      "n": 0,
      "scriptPubKey": {
        "asm": "",
        "hex": "",
        "type": "nonstandard"
      }
    },
    {
      "value": 73242.18642578,
      "n": 1,
      "scriptPubKey": {
        "asm": "OP_DUP OP_HASH160 3cc9ede1da2d7351aaebaf6a25d2657e0b05a716 OP_EQUALVERIFY OP_CHECKSIG",
        "hex": "76a9143cc9ede1da2d7351aaebaf6a25d2657e0b05a71688ac",
        "reqSigs": 1,
        "type": "pubkeyhash",
        "addresses": [
          "XgEGH3y7RfeKEdn2hkYEvBnrnmGBr7zvjL"
        ]
      }
    },
    {
      "value": 73242.18642578,
      "n": 2,
      "scriptPubKey": {
        "asm": "OP_DUP OP_HASH160 3cc9ede1da2d7351aaebaf6a25d2657e0b05a716 OP_EQUALVERIFY OP_CHECKSIG",
        "hex": "76a9143cc9ede1da2d7351aaebaf6a25d2657e0b05a71688ac",
        "reqSigs": 1,
        "type": "pubkeyhash",
        "addresses": [
          "XgEGH3y7RfeKEdn2hkYEvBnrnmGBr7zvjL"
        ]
      }
    }
  ],
  "hex": "010000000151b0972afeb84df66fdb809d0aaeeb0ca4693f6694c9817c114b77b3eadc3d53020000006a47304402206f75863b212819912e871f9071825d0274b8bdb4d736bad4c86ad95a6f3497a2022066145d851d955fbf1d6966422be25dd8b4b44f0bd8a5c67bf04800ff88764acd012103624fbfb0079e85bbc9aaeba6f48581326ad01194b3c54ce22852a27b1d2892d1ffffffff030000000000000000009250734da90600001976a9143cc9ede1da2d7351aaebaf6a25d2657e0b05a71688ac9250734da90600001976a9143cc9ede1da2d7351aaebaf6a25d2657e0b05a71688ac00000000",
  "blockhash": "17ec63913d4798460cf65fe995d6829bc6f634be9f31b7f6a69ca95ea0b333f3",
  "confirmations": 588045,
  "time": 1520368002,
  "blocktime": 1520368002
}