{
  "txid": "9969603dca74d14d29d1d5f56b94c7872551607f8c2d6837ab9715c60721b50e",
  "hash": "9969603dca74d14d29d1d5f56b94c7872551607f8c2d6837ab9715c60721b50e",
  "version": 1,
  "size": 312,
  "vsize": 312,
  "weight": 1248,
  "locktime": 0,
  "vin": [
  ],
  "vout": [
    {
      "value": 2.83595354,
      "n": 0,
      "scriptPubKey": {
        "asm": "OP_DUP OP_HASH160 0568015a9facccfd09d70d409b6fc1a5546cecc6 OP_EQUALVERIFY OP_CHECKSIG",
        "hex": "76a9140568015a9facccfd09d70d409b6fc1a5546cecc688ac",
        "reqSigs": 1,
        "type": "pubkeyhash",
        "addresses": [
          "1VayNert3x1KzbpzMGt2qdqrAThiRovi8"
        ]
      }
    },
    {
      "value": 0.01,
      "n": 1,
      "scriptPubKey": {
        "asm": "OP_DUP OP_HASH160 7f74e1560a03193e6c6782af4b9982eb111061e4 OP_EQUALVERIFY OP_CHECKSIG",
        "hex": "76a9147f74e1560a03193e6c6782af4b9982eb111061e488ac",
        "reqSigs": 1,
        "type": "pubkeyhash",
        "addresses": [
          "1CcvqLs2SzckTsKRhpfk2JzPqkiqSkd6Hu"
        ]
      }
    },
    {
      "value": 0.01,
      "n": 2,
      "scriptPubKey": {
        "asm": "04678afd04678afd OP_DROP OP_SHA256 894eeb82f9a851f5d1cb1be3249f58bc8d259963832c5e7474a76f7a859ee95c OP_EQUAL",
        "hex": "0804678afd04678afd75a820894eeb82f9a851f5d1cb1be3249f58bc8d259963832c5e7474a76f7a859ee95c87",
        "type": "nonstandard"
      }
    }
  ],
  "hex": "010000000130b9400da79e83ebaf3fbb6c94f8ee0923e8d64c0089b2318fc9e68753a2d141000000008b483045022064e348746df42411ae5b1cab8b07a22736c42a9e58e336cdc8a5757beb929aa70221008419a71d5947f13586f6b28bc69fa185c289a7bffde174817bd5497109e339e2014104a39b9e4fbd213ef24bb9be69de4a118dd0644082e47c01fd9159d38637b83fbcdc115a5d6e970586a012d1cfe3e3a8b1a3d04e763bdc5a071c0e827c0bd834a5ffffffff035a52e710000000001976a9140568015a9facccfd09d70d409b6fc1a5546cecc688ac40420f00000000001976a9147f74e1560a03193e6c6782af4b9982eb111061e488ac40420f00000000002d0804678afd04678afd75a820894eeb82f9a851f5d1cb1be3249f58bc8d259963832c5e7474a76f7a859ee95c8700000000",
  "blockhash": "0000000000000c903d611033d7f69368b69552f79bdedead19b53cf585ea780a",
  "confirmations": 419994,
  "time": 1321752937,
  "blocktime": 1321752937
}