{
  "hex": "01000000012fc5fa7c3c9e0edda402bfdc6c16040f8dd013c5c036f7b8d78f94f8c76014780100000000ffffffff0400000000000000000000e87648170000001976a91450c2ee67c90dc44c29a2e54a1e92ac7160cb3f6688ac00000000000000001976a914f80246a42bb0d6de131282b4e1bef064f01a39f988ac00000000000000001976a914f7fdf918bc701980aeaf07085654f5e289d2102388ac00000000",
  "txid": "9ecf10916467dccc8c8f3a87d869dc5aceb57d5d1c2117036fe60f31369a284e",
  "size": 162,
  "version": 1,
  "locktime": 0,
  "vin": [
    {
      "txid": "781460c7f8948fd7b8f736c0c513d08d0f04166cdcbf02a4dd0e9e3c7cfac52f",
      "vout": 1,
      "scriptSig": {
        "asm": "",
        "hex": ""
      },
      "value": 1000.00000000,
      "valueSat": 100000000000,
      "address": "Xi3sQfMQsy2CzMZTrnKW6HFGp1VqFThdLw",
      "sequence": 4294967295
    }
  ],
  "vout": [
    {
      "value": 0.00000000,
      "valueSat": 0,
      "n": 0,
      "scriptPubKey": {
        "asm": "",
        "hex": "",
        "type": "nonstandard"
      }
    },
    {
      "value": 1000.00000000,
      "valueSat": 100000000000,
      "n": 1,
      "scriptPubKey": {
        "asm": "OP_DUP OP_HASH160 50c2ee67c90dc44c29a2e54a1e92ac7160cb3f66 OP_EQUALVERIFY OP_CHECKSIG",
        "hex": "76a91450c2ee67c90dc44c29a2e54a1e92ac7160cb3f6688ac",
        "reqSigs": 1,
        "type": "pubkeyhash",
        "addresses": [
          "Xi3sQfMQsy2CzMZTrnKW6HFGp1VqFThdLw"
        ]
      },
      "spentTxId": "8c7feafc18576b89bf87faf8aa89feaac1a3fad7d5da77d1fe773219a0e9d864",
      "spentIndex": 0,
      "spentHeight": 21888
    },
    {
      "value": 0.00000000,
      "valueSat": 0,
      "n": 2,
      "scriptPubKey": {
        "asm": "OP_DUP OP_HASH160 f80246a42bb0d6de131282b4e1bef064f01a39f9 OP_EQUALVERIFY OP_CHECKSIG",
        "hex": "76a914f80246a42bb0d6de131282b4e1bef064f01a39f988ac",
        "reqSigs": 1,
        "type": "pubkeyhash",
        "addresses": [
          "XyJC8xnfFrHNcMinh6gxuPRYY9HCaY9DAo"
        ]
      }
    },
    {
      "value": 0.00000000,
      "valueSat": 0,
      "n": 3,
      "scriptPubKey": {
        "asm": "OP_DUP OP_HASH160 f7fdf918bc701980aeaf07085654f5e289d21023 OP_EQUALVERIFY OP_CHECKSIG",
        "hex": "76a914f7fdf918bc701980aeaf07085654f5e289d2102388ac",
        "reqSigs": 1,
        "type": "pubkeyhash",
        "addresses": [
          "XyJ6yzT3XNcX4npq15eyZJstW6RQ2bUKGA"
        ]
      }
    }
  ],
  "blockhash": "0f5e8615bd871a20b4ebb63693aa81361d8bdb7c6913785a61cde90e3455e4d8",
  "height": 19677,
  "confirmations": 14285,
  "time": 1521586596,
  "blocktime": 1521586596
}