{
  "hex": "0100000001ad64f9096a74457e97ce20600bb0b80914326f6fdfa1df5a9ada54fdf4cd96f20200000000ffffffff05000000000000000000bcbfd4c81d0000001976a914c9ba3c497107845ea80dcf64951ced030556384e88acdccb0f441d0000001976a914c9ba3c497107845ea80dcf64951ced030556384e88aca0525701000000001976a9140651c16ab25fa5a6b8c0598b6fd18c493ad2570088ac80461c86000000001976a9140ee4c07ec4c237dbc8569d483eb8ab0c3246314188ac00000000",
  "txid": "9f2cef5c3f94197247d0109e224e428d7904e54f4c695433829bbde6ef99ea44",
  "size": 196,
  "version": 1,
  "locktime": 0,
  "vin": [
    {
      "txid": "f296cdf4fd54da9a5adfa1df6f6f321409b8b00b6020ce977e45746a09f964ad",
      "vout": 2,
      "scriptSig": {
        "asm": "",
        "hex": ""
      },
      "value": 2513.91875000,
      "valueSat": 251391875000,
      "address": "Xu5UkgRL8YRqoW6uEW8SxMLDkJwbjFVfge",
      "sequence": 4294967295
    }
  ],
  "vout": [
    {
      "value": 0.00000000,
      "valueSat": 0,
      "n": 0,
      "scriptPubKey": {
        "asm": "",
        "hex": "",
        "type": "nonstandard"
      }
    },
    {
      "value": 1279.23437500,
      "valueSat": 127923437500,
      "n": 1,
      "scriptPubKey": {
        "asm": "OP_DUP OP_HASH160 c9ba3c497107845ea80dcf64951ced030556384e OP_EQUALVERIFY OP_CHECKSIG",
        "hex": "76a914c9ba3c497107845ea80dcf64951ced030556384e88ac",
        "reqSigs": 1,
        "type": "pubkeyhash",
        "addresses": [
          "Xu5UkgRL8YRqoW6uEW8SxMLDkJwbjFVfge"
        ]
      }
    },
    {
      "value": 1256.95937500,
      "valueSat": 125695937500,
      "n": 2,
      "scriptPubKey": {
        "asm": "OP_DUP OP_HASH160 c9ba3c497107845ea80dcf64951ced030556384e OP_EQUALVERIFY OP_CHECKSIG",
        "hex": "76a914c9ba3c497107845ea80dcf64951ced030556384e88ac",
        "reqSigs": 1,
        "type": "pubkeyhash",
        "addresses": [
          "Xu5UkgRL8YRqoW6uEW8SxMLDkJwbjFVfge"
        ]
      }
    },
    {
      "value": 0.22500000,
      "valueSat": 22500000,
      "n": 3,
      "scriptPubKey": {
        "asm": "OP_DUP OP_HASH160 0651c16ab25fa5a6b8c0598b6fd18c493ad25700 OP_EQUALVERIFY OP_CHECKSIG",
        "hex": "76a9140651c16ab25fa5a6b8c0598b6fd18c493ad2570088ac",
        "reqSigs": 1,
        "type": "pubkeyhash",
        "addresses": [
          "XbGFpsuhv6AH3gp3dx5eQrAexP5kESh9bY"
        ]
      }
    },
    {
      "value": 22.50000000,
      "valueSat": 2250000000,
      "n": 4,
      "scriptPubKey": {
        "asm": "OP_DUP OP_HASH160 0ee4c07ec4c237dbc8569d483eb8ab0c32463141 OP_EQUALVERIFY OP_CHECKSIG",
        "hex": "76a9140ee4c07ec4c237dbc8569d483eb8ab0c3246314188ac",
        "reqSigs": 1,
        "type": "pubkeyhash",
        "addresses": [
          "Xc3bKuGzy9grJZxC2ieTgQjjgyTMKSLqSM"
        ]
      }
    }
  ],
  "blockhash": "a3a9fb111a3f85c3d920c2dc58ce14d541a65763834247ef958aa3b4d665ef9c",
  "height": 37588,
  "confirmations": 48,
  "time": 1522677340,
  "blocktime": 1522677340
}