{
  "txid": "a261dc777dddbbf77456ee2a9427cb6cf4c262666a8aa14914efd13fb113dc64",
  "hash": "a261dc777dddbbf77456ee2a9427cb6cf4c262666a8aa14914efd13fb113dc64",
  "version": 1,
  "size": 234,
  "vsize": 234,
  "weight": 936,
  "locktime": 0,
  "vin": [
    {
      "txid": "26ece907768b6cfb52a8f436478bb22c043809290bd5a95d99b0a8dab8ae04c0",
      "vout": 1,
      "scriptSig": {
        "asm": "304402202eb4a0e36511284c8be5bf2484a1cacaad59773ab72d0ef470d686965d1e7df602203b65d9d064f3aacc792beee006b342a9e1aadc730eb3550225ef6ad04d03d14a[ALL] 033cb1e57a386f6f81536840b71480f3e68228415a85a05a5cc1bb6f33153b4854",
        "hex": "47304402202eb4a0e36511284c8be5bf2484a1cacaad59773ab72d0ef470d686965d1e7df602203b65d9d064f3aacc792beee006b342a9e1aadc730eb3550225ef6ad04d03d14a0121033cb1e57a386f6f81536840b71480f3e68228415a85a05a5cc1bb6f33153b4854"
      },
      "sequence": 4294967295
    }
  ],
  "vout": [
    {
      "value": 0,
      "n": 0,
      "scriptPubKey": {
        "asm": "",
        "hex": "",
        "type": "nonstandard"
      }
    },
    {
      "value": 1356.05180221,
      "n": 1,
      "scriptPubKey": {
        "asm": "OP_DUP OP_HASH160 c77516ce8736633a2a5dfe30748702a8914ea012 OP_EQUALVERIFY OP_CHECKSIG",
        "hex": "76a914c77516ce8736633a2a5dfe30748702a8914ea01288ac",
        "reqSigs": 1,
        "type": "pubkeyhash",
        "addresses": [
          "XtsUZvKvN7ZEwGQ8WPSbJ6NUtxCJgBDBJP"
        ]
      }
    },
    {
      "value": 20.25,
      "n": 2,
      "scriptPubKey": {
        "asm": "OP_DUP OP_HASH160 9e74bce08dbda121c089dc08b02b73dd816f0adc OP_EQUALVERIFY OP_CHECKSIG",
        "hex": "76a9149e74bce08dbda121c089dc08b02b73dd816f0adc88ac",
        "reqSigs": 1,
        "type": "pubkeyhash",
        "addresses": [
          "Xq8gSeVnyEQFpzLB59BFoz2efc8VD9ZDAu"
        ]
      }
    }
  ],
  "hex": "0100000001c004aeb8daa8b0995da9d50b290938042cb28b4736f4a852fb6c8b7607e9ec26010000006a47304402202eb4a0e36511284c8be5bf2484a1cacaad59773ab72d0ef470d686965d1e7df602203b65d9d064f3aacc792beee006b342a9e1aadc730eb3550225ef6ad04d03d14a0121033cb1e57a386f6f81536840b71480f3e68228415a85a05a5cc1bb6f33153b4854ffffffff030000000000000000003dd7b2921f0000001976a914c77516ce8736633a2a5dfe30748702a8914ea01288ac400cb378000000001976a9149e74bce08dbda121c089dc08b02b73dd816f0adc88ac00000000",
  "blockhash": "ced0aa146a022117e4e69a9fb413d0275ae290c2c7ef339ca95a2b3d6acc1988",
  "confirmations": 1604041,
  "time": 1524694589,
  "blocktime": 1524694589
}