{
  "txid": "a7cf3af87f66e58b43de4eb61e3bad6185fd8e3137d63c1960e4df67088f3fe5",
  "hash": "a7cf3af87f66e58b43de4eb61e3bad6185fd8e3137d63c1960e4df67088f3fe5",
  "version": 1,
  "size": 235,
  "vsize": 235,
  "weight": 940,
  "locktime": 0,
  "vin": [
    {
      "txid": "4a577640c37dd796ae6f8e0538db636983110f01dc42aeefe254bf370b645d1b",
      "vout": 2,
      "scriptSig": {
        "asm": "3045022100838d27b2a574dd99ae90db1703cbcdccdc59edeb98a6421216aefeec1b036e0f02206e5ec511ef654ba8d3df0bfddf513538909f4ff113b9d3c4752804425c39edf5[ALL] 03624fbfb0079e85bbc9aaeba6f48581326ad01194b3c54ce22852a27b1d2892d1",
        "hex": "483045022100838d27b2a574dd99ae90db1703cbcdccdc59edeb98a6421216aefeec1b036e0f02206e5ec511ef654ba8d3df0bfddf513538909f4ff113b9d3c4752804425c39edf5012103624fbfb0079e85bbc9aaeba6f48581326ad01194b3c54ce22852a27b1d2892d1"
      },
      "sequence": 4294967295
    }
  ],
  "vout": [
    {
      "value": 0,
      "n": 0,
      "scriptPubKey": {
        "asm": "",
        "hex": "",
        "type": "nonstandard"
      }
    },
    {
      "value": 73242.18642578,
      "n": 1,
      "scriptPubKey": {
        "asm": "OP_DUP OP_HASH160 3cc9ede1da2d7351aaebaf6a25d2657e0b05a716 OP_EQUALVERIFY OP_CHECKSIG",
        "hex": "76a9143cc9ede1da2d7351aaebaf6a25d2657e0b05a71688ac",
        "reqSigs": 1,
        "type": "pubkeyhash",
        "addresses": [
          "XgEGH3y7RfeKEdn2hkYEvBnrnmGBr7zvjL"
        ]
      }
    },
    {
      "value": 73242.18642578,
      "n": 2,
      "scriptPubKey": {
        "asm": "OP_DUP OP_HASH160 3cc9ede1da2d7351aaebaf6a25d2657e0b05a716 OP_EQUALVERIFY OP_CHECKSIG",
        "hex": "76a9143cc9ede1da2d7351aaebaf6a25d2657e0b05a71688ac",
        "reqSigs": 1,
        "type": "pubkeyhash",
        "addresses": [
          "XgEGH3y7RfeKEdn2hkYEvBnrnmGBr7zvjL"
        ]
      }
    }
  ],
  "hex": "01000000011b5d640b37bf54e2efae42dc010f11836963db38058e6fae96d77dc34076574a020000006b483045022100838d27b2a574dd99ae90db1703cbcdccdc59edeb98a6421216aefeec1b036e0f02206e5ec511ef654ba8d3df0bfddf513538909f4ff113b9d3c4752804425c39edf5012103624fbfb0079e85bbc9aaeba6f48581326ad01194b3c54ce22852a27b1d2892d1ffffffff030000000000000000009250734da90600001976a9143cc9ede1da2d7351aaebaf6a25d2657e0b05a71688ac9250734da90600001976a9143cc9ede1da2d7351aaebaf6a25d2657e0b05a71688ac00000000",
  "blockhash": "98513955cc3342bd26c7dfb88c69765ce05ffc1493c0a9beb38c1e02fc11e6c0",
  "confirmations": 587836,
  "time": 1520380830,
  "blocktime": 1520380830
}