{
  "txid": "ac8fc18d1f77a114ca5b8266662b867430c5d59abf17a7554e6aab2ee542256a",
  "hash": "c97c359cd174301251c2a6f0dba2ac6181704213845ca1bb47e4a0c4b78bd5e9",
  "version": 2,
  "size": 482,
  "vsize": 320,
  "weight": 1280,
  "locktime": 1528067,
  "vin": [
    {
      "txid": "6ed31f494684081b8ccd59363e1242657cc9f887fff2b26dae62f370db870cd3",
      "vout": 1,
      "scriptSig": {
        "asm": "0014c39d72d05f687f6713d6ebfbaa6763f19a861966",
        "hex": "160014c39d72d05f687f6713d6ebfbaa6763f19a861966"
      },
      "txinwitness": [
        "304402200f18bed889e96b38152e66e3a1e1cd044575c5c886b8a745611e91a1ee264c13022074b0469159571387eecd3e1eb0583f0dd33d0dd255ac4a02ea557932d1ffafeb01",
        "03e301c3e1a72f9968e89ea5565e005d516a725826d7e7a94c8e23e4db8e763c6b"
      ],
      "sequence": 4294967293
    },
    {
      "txid": "6ed31f494684081b8ccd59363e1242657cc9f887fff2b26dae62f370db870cd3",
      "vout": 2,
      "scriptSig": {
        "asm": "0014c39d72d05f687f6713d6ebfbaa6763f19a861966",
        "hex": "160014c39d72d05f687f6713d6ebfbaa6763f19a861966"
      },
      "txinwitness": [
        "304402200bfcf4260566d6954c1663337f2a81c4fe41ba9fe11fb21e1451a5a0dd2fc3f102207db243ecf5478793a29e899a05816ddcc5a9a955d567f4cb349e83afc0e832bc01",
        "03e301c3e1a72f9968e89ea5565e005d516a725826d7e7a94c8e23e4db8e763c6b"
      ],
      "sequence": 4294967293
    }
  ],
  "vout": [
    {
      "value": 120000,
      "n": 0,
      "scriptPubKey": {
        "asm": "OP_HASH160 a0f710f07a512724cdc43baae94349661c6eec3a OP_EQUAL",
        "hex": "a914a0f710f07a512724cdc43baae94349661c6eec3a87",
        "reqSigs": 1,
        "type": "scripthash",
        "addresses": [
          "7h5kqtYU2uqmeM4tGuuKrm5dbCew78cgiv"
        ]
      }
    },
    {
      "value": 120000,
      "n": 1,
      "scriptPubKey": {
        "asm": "OP_HASH160 67bbe94c4206b8d95b0eb770295c7a260779e0b6 OP_EQUAL",
        "hex": "a91467bbe94c4206b8d95b0eb770295c7a260779e0b687",
        "reqSigs": 1,
        "type": "scripthash",
        "addresses": [
          "7bs9TobPv6k9vvZVwYHEVwUQzv2t3MQcWD"
        ]
      }
    },
    {
      "value": 120000,
      "n": 2,
      "scriptPubKey": {
        "asm": "OP_HASH160 041ebb5ed73ad8552539eea8c4315a92375391e0 OP_EQUAL",
        "hex": "a914041ebb5ed73ad8552539eea8c4315a92375391e087",
        "reqSigs": 1,
        "type": "scripthash",
        "addresses": [
          "7SnSGo9e75u3R4UnyePWhQg7WEGjLj4VcP"
        ]
      }
    },
    {
      "value": 71868.6749681,
      "n": 3,
      "scriptPubKey": {
        "asm": "OP_HASH160 ecacae6abc850b35288563d17ad8f35e68092670 OP_EQUAL",
        "hex": "a914ecacae6abc850b35288563d17ad8f35e6809267087",
        "reqSigs": 1,
        "type": "scripthash",
        "addresses": [
          "7oz567pVaSXhjK4ucXMW8ZimuZU7q82Z4T"
        ]
      }
    }
  ],
  "hex": "02000000000102d30c87db70f362ae6db2f2ff87f8c97c6542123e3659cd8c1b088446491fd36e0100000017160014c39d72d05f687f6713d6ebfbaa6763f19a861966fdffffffd30c87db70f362ae6db2f2ff87f8c97c6542123e3659cd8c1b088446491fd36e0200000017160014c39d72d05f687f6713d6ebfbaa6763f19a861966fdffffff0400c0bcf7e90a000017a914a0f710f07a512724cdc43baae94349661c6eec3a8700c0bcf7e90a000017a91467bbe94c4206b8d95b0eb770295c7a260779e0b68700c0bcf7e90a000017a914041ebb5ed73ad8552539eea8c4315a92375391e0876a27af528906000017a914ecacae6abc850b35288563d17ad8f35e68092670870247304402200f18bed889e96b38152e66e3a1e1cd044575c5c886b8a745611e91a1ee264c13022074b0469159571387eecd3e1eb0583f0dd33d0dd255ac4a02ea557932d1ffafeb012103e301c3e1a72f9968e89ea5565e005d516a725826d7e7a94c8e23e4db8e763c6b0247304402200bfcf4260566d6954c1663337f2a81c4fe41ba9fe11fb21e1451a5a0dd2fc3f102207db243ecf5478793a29e899a05816ddcc5a9a955d567f4cb349e83afc0e832bc012103e301c3e1a72f9968e89ea5565e005d516a725826d7e7a94c8e23e4db8e763c6b03511700",
  "blockhash": "2070f7d6b912db67d246cb69285a14f71fbdb4449d2c7caefe7734e24a7d056f",
  "confirmations": 143296,
  "time": 1612840061,
  "blocktime": 1612840061
}