{
  "txid": "b5ea4dc6d87ada2beee36a36fe4c663a2e499c64fe08cb2d12b88b3014304f72",
  "hash": "b5ea4dc6d87ada2beee36a36fe4c663a2e499c64fe08cb2d12b88b3014304f72",
  "version": 2,
  "size": 372,
  "vsize": 372,
  "weight": 1488,
  "locktime": 307837,
  "vin": [
    {
      "txid": "f3c8861ea0ba731ce43ff126be882e4b4402887d57e0f1f3d1bfde4825e00870",
      "vout": 0,
      "scriptSig": {
        "asm": "30450221008662cba34596ee37e7098d29cb8cfc0d88df5694463d87fc7be129a93c9fd7c902202682596122ef717ba2b84bb916c6c4144fd25de0a54c3d993096a431d92ce045[ALL] 03c1748037c38e052f3132fec79c8774d3d92a79a948e6df90c0a0e4c0a8f1828b",
        "hex": "4830450221008662cba34596ee37e7098d29cb8cfc0d88df5694463d87fc7be129a93c9fd7c902202682596122ef717ba2b84bb916c6c4144fd25de0a54c3d993096a431d92ce045012103c1748037c38e052f3132fec79c8774d3d92a79a948e6df90c0a0e4c0a8f1828b"
      },
      "sequence": 4294967294
    }
  ],
  "vout": [
    {
      "value": 194442.99999628,
      "n": 0,
      "scriptPubKey": {
        "asm": "OP_HASH160 2f0a1da6909dcbca723a39d164c3db5c4bbb2de2 OP_EQUAL",
        "hex": "a9142f0a1da6909dcbca723a39d164c3db5c4bbb2de287",
        "reqSigs": 1,
        "type": "scripthash",
        "addresses": [
          "7WhNdcZYCRVEGVsQexp2e8Ua1tEPVoisvk"
        ]
      }
    },
    {
      "value": 0,
      "n": 1,
      "scriptPubKey": {
        "asm": "OP_RETURN 5866335468465a565045384d774e46335a5132676d554a754e4b59464c67634a6766 58676a6e463238434c586e575159474a4d4d7a527a51724a64555069684732653847 95 20cc6834cba79d6dfce39c2358dcfc751f5521e5dde44d617077a88a2ed823e12236a33604ac0e4527acd86f70af6e38e9f1d3e3c929268e8791582c13cd3cfeb8",
        "hex": "6a225866335468465a565045384d774e46335a5132676d554a754e4b59464c67634a67662258676a6e463238434c586e575159474a4d4d7a527a51724a64555069684732653847015f4120cc6834cba79d6dfce39c2358dcfc751f5521e5dde44d617077a88a2ed823e12236a33604ac0e4527acd86f70af6e38e9f1d3e3c929268e8791582c13cd3cfeb8",
        "type": "nulldata"
      }
    },
    {
      "value": 1,
      "n": 2,
      "scriptPubKey": {
        "asm": "OP_DUP OP_HASH160 2fc6c22cc08c7da31a9b4a82fc59ec35adb50603 OP_EQUALVERIFY OP_CHECKSIG",
        "hex": "76a9142fc6c22cc08c7da31a9b4a82fc59ec35adb5060388ac",
        "reqSigs": 1,
        "type": "pubkeyhash",
        "addresses": [
          "Xf3ThFZVPE8MwNF3ZQ2gmUJuNKYFLgcJgf"
        ]
      }
    }
  ],
  "hex": "02000000017008e02548debfd1f3f1e0577d8802444b2e88be26f13fe41c73baa01e86c8f3000000006b4830450221008662cba34596ee37e7098d29cb8cfc0d88df5694463d87fc7be129a93c9fd7c902202682596122ef717ba2b84bb916c6c4144fd25de0a54c3d993096a431d92ce045012103c1748037c38e052f3132fec79c8774d3d92a79a948e6df90c0a0e4c0a8f1828bfeffffff038c29983aaf11000017a9142f0a1da6909dcbca723a39d164c3db5c4bbb2de28700000000000000008b6a225866335468465a565045384d774e46335a5132676d554a754e4b59464c67634a67662258676a6e463238434c586e575159474a4d4d7a527a51724a64555069684732653847015f4120cc6834cba79d6dfce39c2358dcfc751f5521e5dde44d617077a88a2ed823e12236a33604ac0e4527acd86f70af6e38e9f1d3e3c929268e8791582c13cd3cfeb800e1f505000000001976a9142fc6c22cc08c7da31a9b4a82fc59ec35adb5060388ac7db20400",
  "blockhash": "c019d0dab254ce3fb2b1a3429bdeb41c17b8e8c72d8ace4b81819aa7aca435fe",
  "confirmations": 1366601,
  "time": 1539242831,
  "blocktime": 1539242831
}