{
  "txid": "bd715a5f43d73a5f347b7779859b029be069cc8ea6fc6480dfda40b64d828c6c",
  "hash": "bd715a5f43d73a5f347b7779859b029be069cc8ea6fc6480dfda40b64d828c6c",
  "version": 1,
  "size": 235,
  "vsize": 235,
  "weight": 940,
  "locktime": 0,
  "vin": [
    {
      "txid": "40ceeb530b29e5426236d3fcf8cc2162625bdd6a09f61f291452b351a2e411cf",
      "vout": 1,
      "scriptSig": {
        "asm": "3045022100ae6b492bd7fc007ca208ed609b8ad3e617c3d890ef4d24c92d6449f4db2b20810220588a30755b267d23a894af3f47512190c17beb969f145a2ac9a41bff91e93ea2[ALL] 03624fbfb0079e85bbc9aaeba6f48581326ad01194b3c54ce22852a27b1d2892d1",
        "hex": "483045022100ae6b492bd7fc007ca208ed609b8ad3e617c3d890ef4d24c92d6449f4db2b20810220588a30755b267d23a894af3f47512190c17beb969f145a2ac9a41bff91e93ea2012103624fbfb0079e85bbc9aaeba6f48581326ad01194b3c54ce22852a27b1d2892d1"
      },
      "sequence": 4294967295
    }
  ],
  "vout": [
    {
      "value": 0,
      "n": 0,
      "scriptPubKey": {
        "asm": "",
        "hex": "",
        "type": "nonstandard"
      }
    },
    {
      "value": 73242.18642578,
      "n": 1,
      "scriptPubKey": {
        "asm": "OP_DUP OP_HASH160 3cc9ede1da2d7351aaebaf6a25d2657e0b05a716 OP_EQUALVERIFY OP_CHECKSIG",
        "hex": "76a9143cc9ede1da2d7351aaebaf6a25d2657e0b05a71688ac",
        "reqSigs": 1,
        "type": "pubkeyhash",
        "addresses": [
          "XgEGH3y7RfeKEdn2hkYEvBnrnmGBr7zvjL"
        ]
      }
    },
    {
      "value": 73242.18642578,
      "n": 2,
      "scriptPubKey": {
        "asm": "OP_DUP OP_HASH160 3cc9ede1da2d7351aaebaf6a25d2657e0b05a716 OP_EQUALVERIFY OP_CHECKSIG",
        "hex": "76a9143cc9ede1da2d7351aaebaf6a25d2657e0b05a71688ac",
        "reqSigs": 1,
        "type": "pubkeyhash",
        "addresses": [
          "XgEGH3y7RfeKEdn2hkYEvBnrnmGBr7zvjL"
        ]
      }
    }
  ],
  "hex": "0100000001cf11e4a251b35214291ff6096add5b626221ccf8fcd3366242e5290b53ebce40010000006b483045022100ae6b492bd7fc007ca208ed609b8ad3e617c3d890ef4d24c92d6449f4db2b20810220588a30755b267d23a894af3f47512190c17beb969f145a2ac9a41bff91e93ea2012103624fbfb0079e85bbc9aaeba6f48581326ad01194b3c54ce22852a27b1d2892d1ffffffff030000000000000000009250734da90600001976a9143cc9ede1da2d7351aaebaf6a25d2657e0b05a71688ac9250734da90600001976a9143cc9ede1da2d7351aaebaf6a25d2657e0b05a71688ac00000000",
  "blockhash": "0bf973bfa84d49f85f6af32e53ccb577e43f725a6996c37ccc377f54ceebb463",
  "confirmations": 587655,
  "time": 1520391921,
  "blocktime": 1520391921
}