{
  "hex": "01000000010000000000000000000000000000000000000000000000000000000000000000ffffffff03560101ffffffff010000000000000000232103e8c52f2c5155771492907095753a43ce776e1fa7c5e769a67a9f3db4467ec029ac00000000",
  "txid": "c2c232be75be9dc0d761737173e8c3a22289d7302ac15e7924fab62f743fd6cb",
  "size": 98,
  "version": 1,
  "locktime": 0,
  "vin": [
    {
      "coinbase": "560101",
      "sequence": 4294967295
    }
  ],
  "vout": [
    {
      "value": 0,
      "valueSat": 0,
      "n": 0,
      "scriptPubKey": {
        "asm": "03e8c52f2c5155771492907095753a43ce776e1fa7c5e769a67a9f3db4467ec029 OP_CHECKSIG",
        "hex": "2103e8c52f2c5155771492907095753a43ce776e1fa7c5e769a67a9f3db4467ec029ac",
        "reqSigs": 1,
        "type": "pubkey",
        "addresses": [
          "XdJnCKYNwzCz8ATv8Eu75gonaHyfr9qXg9"
        ]
      }
    }
  ],
  "blockhash": "0000017ee4121cd8ae22f7321041ccb953d53828824217a9dc61a1c857facf85",
  "height": 6,
  "confirmations": 163685,
  "time": 1520276361,
  "blocktime": 1520276361
}