{
  "txid": "d8de60f9d59054062401ed6f9fcbf54a66741b10e5078c373cc8b4e333ccc96d",
  "hash": "d8de60f9d59054062401ed6f9fcbf54a66741b10e5078c373cc8b4e333ccc96d",
  "version": 2,
  "size": 235,
  "vsize": 235,
  "weight": 940,
  "locktime": 0,
  "vin": [
    {
      "txid": "c42816f51b91dd63cc32330d10236089f4ecebb7c508b4bcd0752797451662f7",
      "vout": 1,
      "scriptSig": {
        "asm": "3045022100f8c6d38764114449008e47ec5e87e7a03dc65ae65ae9532437a859d7b47100df022004e748a3a1a8354a8438a753b2ad4d2ee2d38c91b2ce80880ac0142160e54897[ALL] 02c499d4c53c437c4ab46aac31bf1907ef3eec5048fe2b0c7f72fb57117ae1005c",
        "hex": "483045022100f8c6d38764114449008e47ec5e87e7a03dc65ae65ae9532437a859d7b47100df022004e748a3a1a8354a8438a753b2ad4d2ee2d38c91b2ce80880ac0142160e54897012102c499d4c53c437c4ab46aac31bf1907ef3eec5048fe2b0c7f72fb57117ae1005c"
      },
      "sequence": 4294967295
    }
  ],
  "vout": [
    {
      "value": 0,
      "n": 0,
      "scriptPubKey": {
        "asm": "",
        "hex": "",
        "type": "nonstandard"
      }
    },
    {
      "value": 2112,
      "n": 1,
      "scriptPubKey": {
        "asm": "OP_DUP OP_HASH160 50409006f31b9f55e622abfa12a9df7cd41f983c OP_EQUALVERIFY OP_CHECKSIG",
        "hex": "76a91450409006f31b9f55e622abfa12a9df7cd41f983c88ac",
        "reqSigs": 1,
        "type": "pubkeyhash",
        "addresses": [
          "Xi1BEVHFRYg1QQfrNJF8L9yXvREAADxCLk"
        ]
      }
    },
    {
      "value": 9,
      "n": 2,
      "scriptPubKey": {
        "asm": "OP_DUP OP_HASH160 79fe3f940b45320bfa245c68d836b8f965d22c91 OP_EQUALVERIFY OP_CHECKSIG",
        "hex": "76a91479fe3f940b45320bfa245c68d836b8f965d22c9188ac",
        "reqSigs": 1,
        "type": "pubkeyhash",
        "addresses": [
          "XmotAx4gJyEEZoJiLk6AiL62DmAYucqhKt"
        ]
      }
    }
  ],
  "hex": "0200000001f7621645972775d0bcb408c5b7ebecf4896023100d3332cc63dd911bf51628c4010000006b483045022100f8c6d38764114449008e47ec5e87e7a03dc65ae65ae9532437a859d7b47100df022004e748a3a1a8354a8438a753b2ad4d2ee2d38c91b2ce80880ac0142160e54897012102c499d4c53c437c4ab46aac31bf1907ef3eec5048fe2b0c7f72fb57117ae1005cffffffff030000000000000000000040802c310000001976a91450409006f31b9f55e622abfa12a9df7cd41f983c88ac00e9a435000000001976a91479fe3f940b45320bfa245c68d836b8f965d22c9188ac00000000",
  "blockhash": "c0ccdd15fd746d866c746acad97feb2834547dbd15292223e299de3c8b8548ce",
  "confirmations": 83478,
  "time": 1616398385,
  "blocktime": 1616398385
}