{
  "txid": "da1af8037b1cb20f6702eef636d27871ab99bd69031668fafc0ae6cbe4f9941a",
  "hash": "da1af8037b1cb20f6702eef636d27871ab99bd69031668fafc0ae6cbe4f9941a",
  "version": 1,
  "size": 235,
  "vsize": 235,
  "weight": 940,
  "locktime": 0,
  "vin": [
    {
      "txid": "d5fd9995d441cb1fb885f2ad22962c41adfd8c407e423973c3b950210acbf941",
      "vout": 2,
      "scriptSig": {
        "asm": "3045022100e0928e1b40b8882d361412e2ebdc3362652a36a5c5f809b37e43e4fc4e09966902200846c62e14dbbc6c0f10cecc5852d6a4d42247a98287e6359d633e5df9e65f76[ALL] 03624fbfb0079e85bbc9aaeba6f48581326ad01194b3c54ce22852a27b1d2892d1",
        "hex": "483045022100e0928e1b40b8882d361412e2ebdc3362652a36a5c5f809b37e43e4fc4e09966902200846c62e14dbbc6c0f10cecc5852d6a4d42247a98287e6359d633e5df9e65f76012103624fbfb0079e85bbc9aaeba6f48581326ad01194b3c54ce22852a27b1d2892d1"
      },
      "sequence": 4294967295
    }
  ],
  "vout": [
    {
      "value": 0,
      "n": 0,
      "scriptPubKey": {
        "asm": "",
        "hex": "",
        "type": "nonstandard"
      }
    },
    {
      "value": 73242.18642578,
      "n": 1,
      "scriptPubKey": {
        "asm": "OP_DUP OP_HASH160 3cc9ede1da2d7351aaebaf6a25d2657e0b05a716 OP_EQUALVERIFY OP_CHECKSIG",
        "hex": "76a9143cc9ede1da2d7351aaebaf6a25d2657e0b05a71688ac",
        "reqSigs": 1,
        "type": "pubkeyhash",
        "addresses": [
          "XgEGH3y7RfeKEdn2hkYEvBnrnmGBr7zvjL"
        ]
      }
    },
    {
      "value": 73242.18642578,
      "n": 2,
      "scriptPubKey": {
        "asm": "OP_DUP OP_HASH160 3cc9ede1da2d7351aaebaf6a25d2657e0b05a716 OP_EQUALVERIFY OP_CHECKSIG",
        "hex": "76a9143cc9ede1da2d7351aaebaf6a25d2657e0b05a71688ac",
        "reqSigs": 1,
        "type": "pubkeyhash",
        "addresses": [
          "XgEGH3y7RfeKEdn2hkYEvBnrnmGBr7zvjL"
        ]
      }
    }
  ],
  "hex": "010000000141f9cb0a2150b9c37339427e408cfdad412c9622adf285b81fcb41d49599fdd5020000006b483045022100e0928e1b40b8882d361412e2ebdc3362652a36a5c5f809b37e43e4fc4e09966902200846c62e14dbbc6c0f10cecc5852d6a4d42247a98287e6359d633e5df9e65f76012103624fbfb0079e85bbc9aaeba6f48581326ad01194b3c54ce22852a27b1d2892d1ffffffff030000000000000000009250734da90600001976a9143cc9ede1da2d7351aaebaf6a25d2657e0b05a71688ac9250734da90600001976a9143cc9ede1da2d7351aaebaf6a25d2657e0b05a71688ac00000000",
  "blockhash": "92435e3280730249ce3fac51e4c8d690c300a1493032ca5482e01f0179050d05",
  "confirmations": 586977,
  "time": 1520433722,
  "blocktime": 1520433722
}