{
  "txid": "e66cfa37f10fe7e75f2414fb3465dda7864acbdb9885f519217dd147178b7188",
  "hash": "e66cfa37f10fe7e75f2414fb3465dda7864acbdb9885f519217dd147178b7188",
  "version": 1,
  "size": 234,
  "vsize": 234,
  "weight": 936,
  "locktime": 0,
  "vin": [
    {
      "txid": "342d9b16e5bdeeeb4ada59de3179dbe40a1563447b3afd0e0451f31819b45ba6",
      "vout": 2,
      "scriptSig": {
        "asm": "30440220686a805f81afd322e3a412410679d139481b513f04a7550f1d44d41f6cb407c6022058881887de78b94f223369df3996b071c0ec49bf6bbaba73ea10326ced3589b7[ALL] 03624fbfb0079e85bbc9aaeba6f48581326ad01194b3c54ce22852a27b1d2892d1",
        "hex": "4730440220686a805f81afd322e3a412410679d139481b513f04a7550f1d44d41f6cb407c6022058881887de78b94f223369df3996b071c0ec49bf6bbaba73ea10326ced3589b7012103624fbfb0079e85bbc9aaeba6f48581326ad01194b3c54ce22852a27b1d2892d1"
      },
      "sequence": 4294967295
    }
  ],
  "vout": [
    {
      "value": 0,
      "n": 0,
      "scriptPubKey": {
        "asm": "",
        "hex": "",
        "type": "nonstandard"
      }
    },
    {
      "value": 73242.18642578,
      "n": 1,
      "scriptPubKey": {
        "asm": "OP_DUP OP_HASH160 3cc9ede1da2d7351aaebaf6a25d2657e0b05a716 OP_EQUALVERIFY OP_CHECKSIG",
        "hex": "76a9143cc9ede1da2d7351aaebaf6a25d2657e0b05a71688ac",
        "reqSigs": 1,
        "type": "pubkeyhash",
        "addresses": [
          "XgEGH3y7RfeKEdn2hkYEvBnrnmGBr7zvjL"
        ]
      }
    },
    {
      "value": 73242.18642578,
      "n": 2,
      "scriptPubKey": {
        "asm": "OP_DUP OP_HASH160 3cc9ede1da2d7351aaebaf6a25d2657e0b05a716 OP_EQUALVERIFY OP_CHECKSIG",
        "hex": "76a9143cc9ede1da2d7351aaebaf6a25d2657e0b05a71688ac",
        "reqSigs": 1,
        "type": "pubkeyhash",
        "addresses": [
          "XgEGH3y7RfeKEdn2hkYEvBnrnmGBr7zvjL"
        ]
      }
    }
  ],
  "hex": "0100000001a65bb41918f351040efd3a7b4463150ae4db7931de59da4aebeebde5169b2d34020000006a4730440220686a805f81afd322e3a412410679d139481b513f04a7550f1d44d41f6cb407c6022058881887de78b94f223369df3996b071c0ec49bf6bbaba73ea10326ced3589b7012103624fbfb0079e85bbc9aaeba6f48581326ad01194b3c54ce22852a27b1d2892d1ffffffff030000000000000000009250734da90600001976a9143cc9ede1da2d7351aaebaf6a25d2657e0b05a71688ac9250734da90600001976a9143cc9ede1da2d7351aaebaf6a25d2657e0b05a71688ac00000000",
  "blockhash": "2855f642d5e64f2a627eda761d55b9a8ab9e5eccd572655439a27fa429548815",
  "confirmations": 587817,
  "time": 1520381857,
  "blocktime": 1520381857
}