{
  "hex": "01000000010000000000000000000000000000000000000000000000000000000000000000ffffffff04011a0101ffffffff01e60d000000000000232103f46aecb86ca6f0404f9339e6ff242d82cd36e23612bad62f840986a570ddfd13ac00000000",
  "txid": "eabfd68fce47655e076ae589e0b69d80d2be15d31b2941006978c7f57006cd4e",
  "size": 99,
  "version": 1,
  "locktime": 0,
  "vin": [
    {
      "coinbase": "011a0101",
      "sequence": 4294967295
    }
  ],
  "vout": [
    {
      "value": 0.00003558,
      "valueSat": 3558,
      "n": 0,
      "scriptPubKey": {
        "asm": "03f46aecb86ca6f0404f9339e6ff242d82cd36e23612bad62f840986a570ddfd13 OP_CHECKSIG",
        "hex": "2103f46aecb86ca6f0404f9339e6ff242d82cd36e23612bad62f840986a570ddfd13ac",
        "reqSigs": 1,
        "type": "pubkey",
        "addresses": [
          "XcqpUChZhNkVDgQqFF9U4DdewDGUMWwG53"
        ]
      }
    }
  ],
  "blockhash": "000001ff95f22b8d82db14a5c5e9f725e8239e548be43c668766e7ddaee81924",
  "height": 26,
  "confirmations": 56038,
  "time": 1520276635,
  "blocktime": 1520276635
}