{
  "txid": "f296cdf4fd54da9a5adfa1df6f6f321409b8b00b6020ce977e45746a09f964ad",
  "hash": "f296cdf4fd54da9a5adfa1df6f6f321409b8b00b6020ce977e45746a09f964ad",
  "version": 1,
  "size": 196,
  "vsize": 196,
  "weight": 784,
  "locktime": 0,
  "vin": [
    {
      "txid": "b5dddd087c051aeec5ce59a96adafc5449bb212ecd3892d7ff6456e573d7737b",
      "vout": 1,
      "scriptSig": {
        "asm": "",
        "hex": ""
      },
      "sequence": 4294967295
    }
  ],
  "vout": [
    {
      "value": 0,
      "n": 0,
      "scriptPubKey": {
        "asm": "",
        "hex": "",
        "type": "nonstandard"
      }
    },
    {
      "value": 2536.19375,
      "n": 1,
      "scriptPubKey": {
        "asm": "OP_DUP OP_HASH160 c9ba3c497107845ea80dcf64951ced030556384e OP_EQUALVERIFY OP_CHECKSIG",
        "hex": "76a914c9ba3c497107845ea80dcf64951ced030556384e88ac",
        "reqSigs": 1,
        "type": "pubkeyhash",
        "addresses": [
          "Xu5UkgRL8YRqoW6uEW8SxMLDkJwbjFVfge"
        ]
      }
    },
    {
      "value": 2513.91875,
      "n": 2,
      "scriptPubKey": {
        "asm": "OP_DUP OP_HASH160 c9ba3c497107845ea80dcf64951ced030556384e OP_EQUALVERIFY OP_CHECKSIG",
        "hex": "76a914c9ba3c497107845ea80dcf64951ced030556384e88ac",
        "reqSigs": 1,
        "type": "pubkeyhash",
        "addresses": [
          "Xu5UkgRL8YRqoW6uEW8SxMLDkJwbjFVfge"
        ]
      }
    },
    {
      "value": 0.225,
      "n": 3,
      "scriptPubKey": {
        "asm": "OP_DUP OP_HASH160 0651c16ab25fa5a6b8c0598b6fd18c493ad25700 OP_EQUALVERIFY OP_CHECKSIG",
        "hex": "76a9140651c16ab25fa5a6b8c0598b6fd18c493ad2570088ac",
        "reqSigs": 1,
        "type": "pubkeyhash",
        "addresses": [
          "XbGFpsuhv6AH3gp3dx5eQrAexP5kESh9bY"
        ]
      }
    },
    {
      "value": 22.5,
      "n": 4,
      "scriptPubKey": {
        "asm": "OP_DUP OP_HASH160 b4b58ae50a9e0a6e5837c1fe80c0502054534124 OP_EQUALVERIFY OP_CHECKSIG",
        "hex": "76a914b4b58ae50a9e0a6e5837c1fe80c050205453412488ac",
        "reqSigs": 1,
        "type": "pubkeyhash",
        "addresses": [
          "XsALwaebmmPSXViyfacBRhp68f7KWwiNvW"
        ]
      }
    }
  ],
  "hex": "01000000017b73d773e55664ffd79238cd2e21bb4954fcda6aa959cec5ee1a057c08ddddb50100000000ffffffff05000000000000000000988be40c3b0000001976a914c9ba3c497107845ea80dcf64951ced030556384e88acb8971f883a0000001976a914c9ba3c497107845ea80dcf64951ced030556384e88aca0525701000000001976a9140651c16ab25fa5a6b8c0598b6fd18c493ad2570088ac80461c86000000001976a914b4b58ae50a9e0a6e5837c1fe80c050205453412488ac00000000",
  "blockhash": "0ef7374452abd7dc71a9350a16813ba2df3489c626076296824aebf203c20cda",
  "confirmations": 556369,
  "time": 1522420058,
  "blocktime": 1522420058
}